{
  "abi": [
    {
      "inputs": [],
      "name": "GetFieldModulus",
      "outputs": [
        {
          "internalType": "uint256",
          "name": "",
          "type": "uint256"
        }
      ],
      "stateMutability": "pure",
      "type": "function"
    },
    {
      "inputs": [
        {
          "internalType": "uint256",
          "name": "pt1xx",
          "type": "uint256"
        },
        {
          "internalType": "uint256",
          "name": "pt1xy",
          "type": "uint256"
        },
        {
          "internalType": "uint256",
          "name": "pt1yx",
          "type": "uint256"
        },
        {
          "internalType": "uint256",
          "name": "pt1yy",
          "type": "uint256"
        },
        {
          "internalType": "uint256",
          "name": "pt1zx",
          "type": "uint256"
        },
        {
          "internalType": "uint256",
          "name": "pt1zy",
          "type": "uint256"
        },
        {
          "internalType": "uint256",
          "name": "pt2xx",
          "type": "uint256"
        },
        {
          "internalType": "uint256",
          "name": "pt2xy",
          "type": "uint256"
        },
        {
          "internalType": "uint256",
          "name": "pt2yx",
          "type": "uint256"
        },
        {
          "internalType": "uint256",
          "name": "pt2yy",
          "type": "uint256"
        },
        {
          "internalType": "uint256",
          "name": "pt2zx",
          "type": "uint256"
        },
        {
          "internalType": "uint256",
          "name": "pt2zy",
          "type": "uint256"
        }
      ],
      "name": "_ECTwistAddJacobian",
      "outputs": [
        {
          "internalType": "uint256[6]",
          "name": "pt3",
          "type": "uint256[6]"
        }
      ],
      "stateMutability": "pure",
      "type": "function"
    },
    {
      "inputs": [
        {
          "internalType": "uint256",
          "name": "pt1xx",
          "type": "uint256"
        },
        {
          "internalType": "uint256",
          "name": "pt1xy",
          "type": "uint256"
        },
        {
          "internalType": "uint256",
          "name": "pt1yx",
          "type": "uint256"
        },
        {
          "internalType": "uint256",
          "name": "pt1yy",
          "type": "uint256"
        },
        {
          "internalType": "uint256",
          "name": "pt1zx",
          "type": "uint256"
        },
        {
          "internalType": "uint256",
          "name": "pt1zy",
          "type": "uint256"
        }
      ],
      "name": "_ECTwistDoubleJacobian",
      "outputs": [
        {
          "internalType": "uint256",
          "name": "pt2xx",
          "type": "uint256"
        },
        {
          "internalType": "uint256",
          "name": "pt2xy",
          "type": "uint256"
        },
        {
          "internalType": "uint256",
          "name": "pt2yx",
          "type": "uint256"
        },
        {
          "internalType": "uint256",
          "name": "pt2yy",
          "type": "uint256"
        },
        {
          "internalType": "uint256",
          "name": "pt2zx",
          "type": "uint256"
        },
        {
          "internalType": "uint256",
          "name": "pt2zy",
          "type": "uint256"
        }
      ],
      "stateMutability": "pure",
      "type": "function"
    },
    {
      "inputs": [
        {
          "internalType": "uint256",
          "name": "d",
          "type": "uint256"
        },
        {
          "internalType": "uint256",
          "name": "pt1xx",
          "type": "uint256"
        },
        {
          "internalType": "uint256",
          "name": "pt1xy",
          "type": "uint256"
        },
        {
          "internalType": "uint256",
          "name": "pt1yx",
          "type": "uint256"
        },
        {
          "internalType": "uint256",
          "name": "pt1yy",
          "type": "uint256"
        },
        {
          "internalType": "uint256",
          "name": "pt1zx",
          "type": "uint256"
        },
        {
          "internalType": "uint256",
          "name": "pt1zy",
          "type": "uint256"
        }
      ],
      "name": "_ECTwistMulJacobian",
      "outputs": [
        {
          "internalType": "uint256[6]",
          "name": "pt2",
          "type": "uint256[6]"
        }
      ],
      "stateMutability": "pure",
      "type": "function"
    },
    {
      "inputs": [
        {
          "internalType": "uint256",
          "name": "xx",
          "type": "uint256"
        },
        {
          "internalType": "uint256",
          "name": "xy",
          "type": "uint256"
        },
        {
          "internalType": "uint256",
          "name": "yx",
          "type": "uint256"
        },
        {
          "internalType": "uint256",
          "name": "yy",
          "type": "uint256"
        }
      ],
      "name": "isOnCurve",
      "outputs": [
        {
          "internalType": "bool",
          "name": "",
          "type": "bool"
        }
      ],
      "stateMutability": "pure",
      "type": "function"
    }
  ],
  "bytecode": "6109b261003a600b82828239805160001a60731461002d57634e487b7160e01b600052600060045260246000fd5b30600052607381538281f3fe73000000000000000000000000000000000000000030146080604052600436106100615760003560e01c80634a863fe01461006657806355a3e90f1461008f5780635a3c8d36146100ab5780637c16f7c0146100be578063f2664d9a146100e1575b600080fd5b610079610074366004610790565b610121565b604051610086919061080b565b60405180910390f35b60405160008051602061095d8339815191528152602001610086565b6100796100b936600461083c565b6103aa565b6100d16100cc366004610888565b61042d565b6040519015158152602001610086565b6100f46100ef3660046108ba565b610444565b604080519687526020870195909552938501929092526060840152608083015260a082015260c001610086565b610129610772565b88158015610135575087155b15610177578686868686868660005b60a0890192909252608088019290925260608701929092526040860192909252602085810193909352909102015261039a565b82158015610183575081155b15610196578c8c8c8c8c8c866000610144565b6101a285858b8b6105b3565b90955093506101b38b8b85856105b3565b606083015260408201526101c987878b8b6105b3565b90975095506101da8d8d85856105b3565b60a083015260808201819052871480156101f7575060a081015186145b1561023c576040810151851480156102125750606081015184145b1561022d576102258d8d8d8d8d8d610444565b866000610144565b60016000818180808681610144565b610248898985856105b3565b9093509150610268858583600260200201518460035b6020020151610624565b909d509b506102828787836004602002015184600561025e565b909b5099506102938b8b81816105b3565b90995097506102b3898983600460200201518460055b60200201516105b3565b90955093506102c489898d8d6105b3565b90995097506102d5898985856105b3565b60a083015260808201526102eb8d8d81816105b3565b90975095506102fc878785856105b3565b909750955061030d87878b8b610624565b909750955061031e85856002610666565b909350915061032f87878585610624565b90975095506103408b8b89896105b3565b6020830152815261035385858989610624565b909b5099506103648d8d8d8d6105b3565b909b50995061037e898983600260200201518460036102a9565b909d509b5061038f8b8b8f8f610624565b606083015260408201525b9c9b505050505050505050505050565b6103b2610772565b87156104225760018816156103f3578051602082015160408301516060840151608085015160a08601516103f09594939291908d8d8d8d8d8d610121565b90505b610401878787878787610444565b949b5092995090975095509350915061041b600289610913565b97506103b2565b979650505050505050565b600061043b85858585610699565b95945050505050565b6000806000806000806104598c8c6003610666565b909650945061046a86868e8e6105b3565b909650945061047b8a8a8a8a6105b3565b909850965061048c8c8c8c8c6105b3565b909450925061049d84848a8a6105b3565b90945092506104ae868681816105b3565b909c509a506104bf84846008610666565b90925090506104d08c8c8484610624565b909c509a506104e1888881816105b3565b90925090506104f284846004610666565b909450925061050384848e8e610624565b9094509250610514848488886105b3565b90945092506105258a8a6008610666565b909650945061053686868c8c6105b3565b9096509450610547868684846105b3565b909650945061055884848888610624565b90945092506105698c8c6002610666565b909650945061057a86868a8a6105b3565b909650945061058b888884846105b3565b909250905061059c82826008610666565b809250819350505096509650965096509650969050565b6000806105f160008051602061095d83398151915285880960008051602061095d83398151915285880960008051602061095d83398151915261074e565b60008051602061095d8339815191528086880960008051602061095d833981519152868a09089150915094509492505050565b600080610640868560008051602061095d83398151915261074e565b610659868560008051602061095d83398151915261074e565b9150915094509492505050565b60008060008051602061095d83398151915283860960008051602061095d83398151915284860991509150935093915050565b60008060008060006106ad878789896105b3565b90945092506106be898981816105b3565b90925090506106cf82828b8b6105b3565b90925090506106e084848484610624565b909450925061073084847f2b149d40ceb8aaae81be18991be06ac3b5b4c5e559dbefa33267e6dc24a138e57e9713b03af0fed4cd2cafadeed8fdf4a74fa084e52d1852e4a2bd0685c315d2610624565b909450925083158015610741575082155b9998505050505050505050565b6000818061075e5761075e6108fd565b6107688484610935565b8508949350505050565b6040518060c001604052806006906020820280368337509192915050565b6000806000806000806000806000806000806101808d8f0312156107b357600080fd5b50508a359c60208c01359c5060408c01359b60608101359b5060808101359a5060a0810135995060c0810135985060e08101359750610100810135965061012081013595506101408101359450610160013592509050565b60c08101818360005b6006811015610833578151835260209283019290910190600101610814565b50505092915050565b600080600080600080600060e0888a03121561085757600080fd5b505085359760208701359750604087013596606081013596506080810135955060a0810135945060c0013592509050565b6000806000806080858703121561089e57600080fd5b5050823594602084013594506040840135936060013592509050565b60008060008060008060c087890312156108d357600080fd5b505084359660208601359650604086013595606081013595506080810135945060a0013592509050565b634e487b7160e01b600052601260045260246000fd5b60008261093057634e487b7160e01b600052601260045260246000fd5b500490565b8181038181111561095657634e487b7160e01b600052601160045260246000fd5b9291505056fe30644e72e131a029b85045b68181585d97816a916871ca8d3c208c16d87cfd47a264697066735822122062e8b1e73efef56d27f1bd30b020d3bc6b96f628081a526bb59f78db2646431e64736f6c63430008130033",
  "bytecodeSha1": "efae892b53ffb429c5802bd0a719b2049e8b4ea0",
  "compiler": {
    "evm_version": "istanbul",
    "optimizer": {
      "enabled": true,
      "runs": 200
    },
    "version": "0.8.19+commit.7dd6d404"
  },
  "contractName": "BN256G2",
  "language": "Solidity",
  "natspec": {
    "author": "Mustafa Al-Bassam (mus@musalbas.com)",
    "details": "Homepage: https://github.com/musalbas/solidity-BN256G2",
    "kind": "dev",
    "methods": {
      "GetFieldModulus()": {
        "notice": "Get the field modulus",
        "returns": {
          "_0": "The field modulus"
        }
      }
    },
    "title": "Elliptic curve operations on twist points for alt_bn128",
    "version": 1
  },
  "opcodes": "PUSH20 0x0 ADDRESS EQ PUSH1 0x80 PUSH1 0x40 MSTORE PUSH1 0x4 CALLDATASIZE LT PUSH2 0x61 JUMPI PUSH1 0x0 CALLDATALOAD PUSH1 0xE0 SHR DUP1 PUSH4 0x4A863FE0 EQ PUSH2 0x66 JUMPI DUP1 PUSH4 0x55A3E90F EQ PUSH2 0x8F JUMPI DUP1 PUSH4 0x5A3C8D36 EQ PUSH2 0xAB JUMPI DUP1 PUSH4 0x7C16F7C0 EQ PUSH2 0xBE JUMPI DUP1 PUSH4 0xF2664D9A EQ PUSH2 0xE1 JUMPI JUMPDEST PUSH1 0x0 DUP1 REVERT JUMPDEST PUSH2 0x79 PUSH2 0x74 CALLDATASIZE PUSH1 0x4 PUSH2 0x790 JUMP JUMPDEST PUSH2 0x121 JUMP JUMPDEST PUSH1 0x40 MLOAD PUSH2 0x86 SWAP2 SWAP1 PUSH2 0x80B JUMP JUMPDEST PUSH1 0x40 MLOAD DUP1 SWAP2 SUB SWAP1 RETURN JUMPDEST PUSH1 0x40 MLOAD PUSH1 0x0 DUP1 MLOAD PUSH1 0x20 PUSH2 0x95D DUP4 CODECOPY DUP2 MLOAD SWAP2 MSTORE DUP2 MSTORE PUSH1 0x20 ADD PUSH2 0x86 JUMP JUMPDEST PUSH2 0x79 PUSH2 0xB9 CALLDATASIZE PUSH1 0x4 PUSH2 0x83C JUMP JUMPDEST PUSH2 0x3AA JUMP JUMPDEST PUSH2 0xD1 PUSH2 0xCC CALLDATASIZE PUSH1 0x4 PUSH2 0x888 JUMP JUMPDEST PUSH2 0x42D JUMP JUMPDEST PUSH1 0x40 MLOAD SWAP1 ISZERO ISZERO DUP2 MSTORE PUSH1 0x20 ADD PUSH2 0x86 JUMP JUMPDEST PUSH2 0xF4 PUSH2 0xEF CALLDATASIZE PUSH1 0x4 PUSH2 0x8BA JUMP JUMPDEST PUSH2 0x444 JUMP JUMPDEST PUSH1 0x40 DUP1 MLOAD SWAP7 DUP8 MSTORE PUSH1 0x20 DUP8 ADD SWAP6 SWAP1 SWAP6 MSTORE SWAP4 DUP6 ADD SWAP3 SWAP1 SWAP3 MSTORE PUSH1 0x60 DUP5 ADD MSTORE PUSH1 0x80 DUP4 ADD MSTORE PUSH1 0xA0 DUP3 ADD MSTORE PUSH1 0xC0 ADD PUSH2 0x86 JUMP JUMPDEST PUSH2 0x129 PUSH2 0x772 JUMP JUMPDEST DUP9 ISZERO DUP1 ISZERO PUSH2 0x135 JUMPI POP DUP8 ISZERO JUMPDEST ISZERO PUSH2 0x177 JUMPI DUP7 DUP7 DUP7 DUP7 DUP7 DUP7 DUP7 PUSH1 0x0 JUMPDEST PUSH1 0xA0 DUP10 ADD SWAP3 SWAP1 SWAP3 MSTORE PUSH1 0x80 DUP9 ADD SWAP3 SWAP1 SWAP3 MSTORE PUSH1 0x60 DUP8 ADD SWAP3 SWAP1 SWAP3 MSTORE PUSH1 0x40 DUP7 ADD SWAP3 SWAP1 SWAP3 MSTORE PUSH1 0x20 DUP6 DUP2 ADD SWAP4 SWAP1 SWAP4 MSTORE SWAP1 SWAP2 MUL ADD MSTORE PUSH2 0x39A JUMP JUMPDEST DUP3 ISZERO DUP1 ISZERO PUSH2 0x183 JUMPI POP DUP2 ISZERO JUMPDEST ISZERO PUSH2 0x196 JUMPI DUP13 DUP13 DUP13 DUP13 DUP13 DUP13 DUP7 PUSH1 0x0 PUSH2 0x144 JUMP JUMPDEST PUSH2 0x1A2 DUP6 DUP6 DUP12 DUP12 PUSH2 0x5B3 JUMP JUMPDEST SWAP1 SWAP6 POP SWAP4 POP PUSH2 0x1B3 DUP12 DUP12 DUP6 DUP6 PUSH2 0x5B3 JUMP JUMPDEST PUSH1 0x60 DUP4 ADD MSTORE PUSH1 0x40 DUP3 ADD MSTORE PUSH2 0x1C9 DUP8 DUP8 DUP12 DUP12 PUSH2 0x5B3 JUMP JUMPDEST SWAP1 SWAP8 POP SWAP6 POP PUSH2 0x1DA DUP14 DUP14 DUP6 DUP6 PUSH2 0x5B3 JUMP JUMPDEST PUSH1 0xA0 DUP4 ADD MSTORE PUSH1 0x80 DUP3 ADD DUP2 SWAP1 MSTORE DUP8 EQ DUP1 ISZERO PUSH2 0x1F7 JUMPI POP PUSH1 0xA0 DUP2 ADD MLOAD DUP7 EQ JUMPDEST ISZERO PUSH2 0x23C JUMPI PUSH1 0x40 DUP2 ADD MLOAD DUP6 EQ DUP1 ISZERO PUSH2 0x212 JUMPI POP PUSH1 0x60 DUP2 ADD MLOAD DUP5 EQ JUMPDEST ISZERO PUSH2 0x22D JUMPI PUSH2 0x225 DUP14 DUP14 DUP14 DUP14 DUP14 DUP14 PUSH2 0x444 JUMP JUMPDEST DUP7 PUSH1 0x0 PUSH2 0x144 JUMP JUMPDEST PUSH1 0x1 PUSH1 0x0 DUP2 DUP2 DUP1 DUP1 DUP7 DUP2 PUSH2 0x144 JUMP JUMPDEST PUSH2 0x248 DUP10 DUP10 DUP6 DUP6 PUSH2 0x5B3 JUMP JUMPDEST SWAP1 SWAP4 POP SWAP2 POP PUSH2 0x268 DUP6 DUP6 DUP4 PUSH1 0x2 PUSH1 0x20 MUL ADD MLOAD DUP5 PUSH1 0x3 JUMPDEST PUSH1 0x20 MUL ADD MLOAD PUSH2 0x624 JUMP JUMPDEST SWAP1 SWAP14 POP SWAP12 POP PUSH2 0x282 DUP8 DUP8 DUP4 PUSH1 0x4 PUSH1 0x20 MUL ADD MLOAD DUP5 PUSH1 0x5 PUSH2 0x25E JUMP JUMPDEST SWAP1 SWAP12 POP SWAP10 POP PUSH2 0x293 DUP12 DUP12 DUP2 DUP2 PUSH2 0x5B3 JUMP JUMPDEST SWAP1 SWAP10 POP SWAP8 POP PUSH2 0x2B3 DUP10 DUP10 DUP4 PUSH1 0x4 PUSH1 0x20 MUL ADD MLOAD DUP5 PUSH1 0x5 JUMPDEST PUSH1 0x20 MUL ADD MLOAD PUSH2 0x5B3 JUMP JUMPDEST SWAP1 SWAP6 POP SWAP4 POP PUSH2 0x2C4 DUP10 DUP10 DUP14 DUP14 PUSH2 0x5B3 JUMP JUMPDEST SWAP1 SWAP10 POP SWAP8 POP PUSH2 0x2D5 DUP10 DUP10 DUP6 DUP6 PUSH2 0x5B3 JUMP JUMPDEST PUSH1 0xA0 DUP4 ADD MSTORE PUSH1 0x80 DUP3 ADD MSTORE PUSH2 0x2EB DUP14 DUP14 DUP2 DUP2 PUSH2 0x5B3 JUMP JUMPDEST SWAP1 SWAP8 POP SWAP6 POP PUSH2 0x2FC DUP8 DUP8 DUP6 DUP6 PUSH2 0x5B3 JUMP JUMPDEST SWAP1 SWAP8 POP SWAP6 POP PUSH2 0x30D DUP8 DUP8 DUP12 DUP12 PUSH2 0x624 JUMP JUMPDEST SWAP1 SWAP8 POP SWAP6 POP PUSH2 0x31E DUP6 DUP6 PUSH1 0x2 PUSH2 0x666 JUMP JUMPDEST SWAP1 SWAP4 POP SWAP2 POP PUSH2 0x32F DUP8 DUP8 DUP6 DUP6 PUSH2 0x624 JUMP JUMPDEST SWAP1 SWAP8 POP SWAP6 POP PUSH2 0x340 DUP12 DUP12 DUP10 DUP10 PUSH2 0x5B3 JUMP JUMPDEST PUSH1 0x20 DUP4 ADD MSTORE DUP2 MSTORE PUSH2 0x353 DUP6 DUP6 DUP10 DUP10 PUSH2 0x624 JUMP JUMPDEST SWAP1 SWAP12 POP SWAP10 POP PUSH2 0x364 DUP14 DUP14 DUP14 DUP14 PUSH2 0x5B3 JUMP JUMPDEST SWAP1 SWAP12 POP SWAP10 POP PUSH2 0x37E DUP10 DUP10 DUP4 PUSH1 0x2 PUSH1 0x20 MUL ADD MLOAD DUP5 PUSH1 0x3 PUSH2 0x2A9 JUMP JUMPDEST SWAP1 SWAP14 POP SWAP12 POP PUSH2 0x38F DUP12 DUP12 DUP16 DUP16 PUSH2 0x624 JUMP JUMPDEST PUSH1 0x60 DUP4 ADD MSTORE PUSH1 0x40 DUP3 ADD MSTORE JUMPDEST SWAP13 SWAP12 POP POP POP POP POP POP POP POP POP POP POP POP JUMP JUMPDEST PUSH2 0x3B2 PUSH2 0x772 JUMP JUMPDEST DUP8 ISZERO PUSH2 0x422 JUMPI PUSH1 0x1 DUP9 AND ISZERO PUSH2 0x3F3 JUMPI DUP1 MLOAD PUSH1 0x20 DUP3 ADD MLOAD PUSH1 0x40 DUP4 ADD MLOAD PUSH1 0x60 DUP5 ADD MLOAD PUSH1 0x80 DUP6 ADD MLOAD PUSH1 0xA0 DUP7 ADD MLOAD PUSH2 0x3F0 SWAP6 SWAP5 SWAP4 SWAP3 SWAP2 SWAP1 DUP14 DUP14 DUP14 DUP14 DUP14 DUP14 PUSH2 0x121 JUMP JUMPDEST SWAP1 POP JUMPDEST PUSH2 0x401 DUP8 DUP8 DUP8 DUP8 DUP8 DUP8 PUSH2 0x444 JUMP JUMPDEST SWAP5 SWAP12 POP SWAP3 SWAP10 POP SWAP1 SWAP8 POP SWAP6 POP SWAP4 POP SWAP2 POP PUSH2 0x41B PUSH1 0x2 DUP10 PUSH2 0x913 JUMP JUMPDEST SWAP8 POP PUSH2 0x3B2 JUMP JUMPDEST SWAP8 SWAP7 POP POP POP POP POP POP POP JUMP JUMPDEST PUSH1 0x0 PUSH2 0x43B DUP6 DUP6 DUP6 DUP6 PUSH2 0x699 JUMP JUMPDEST SWAP6 SWAP5 POP POP POP POP POP JUMP JUMPDEST PUSH1 0x0 DUP1 PUSH1 0x0 DUP1 PUSH1 0x0 DUP1 PUSH2 0x459 DUP13 DUP13 PUSH1 0x3 PUSH2 0x666 JUMP JUMPDEST SWAP1 SWAP7 POP SWAP5 POP PUSH2 0x46A DUP7 DUP7 DUP15 DUP15 PUSH2 0x5B3 JUMP JUMPDEST SWAP1 SWAP7 POP SWAP5 POP PUSH2 0x47B DUP11 DUP11 DUP11 DUP11 PUSH2 0x5B3 JUMP JUMPDEST SWAP1 SWAP9 POP SWAP7 POP PUSH2 0x48C DUP13 DUP13 DUP13 DUP13 PUSH2 0x5B3 JUMP JUMPDEST SWAP1 SWAP5 POP SWAP3 POP PUSH2 0x49D DUP5 DUP5 DUP11 DUP11 PUSH2 0x5B3 JUMP JUMPDEST SWAP1 SWAP5 POP SWAP3 POP PUSH2 0x4AE DUP7 DUP7 DUP2 DUP2 PUSH2 0x5B3 JUMP JUMPDEST SWAP1 SWAP13 POP SWAP11 POP PUSH2 0x4BF DUP5 DUP5 PUSH1 0x8 PUSH2 0x666 JUMP JUMPDEST SWAP1 SWAP3 POP SWAP1 POP PUSH2 0x4D0 DUP13 DUP13 DUP5 DUP5 PUSH2 0x624 JUMP JUMPDEST SWAP1 SWAP13 POP SWAP11 POP PUSH2 0x4E1 DUP9 DUP9 DUP2 DUP2 PUSH2 0x5B3 JUMP JUMPDEST SWAP1 SWAP3 POP SWAP1 POP PUSH2 0x4F2 DUP5 DUP5 PUSH1 0x4 PUSH2 0x666 JUMP JUMPDEST SWAP1 SWAP5 POP SWAP3 POP PUSH2 0x503 DUP5 DUP5 DUP15 DUP15 PUSH2 0x624 JUMP JUMPDEST SWAP1 SWAP5 POP SWAP3 POP PUSH2 0x514 DUP5 DUP5 DUP9 DUP9 PUSH2 0x5B3 JUMP JUMPDEST SWAP1 SWAP5 POP SWAP3 POP PUSH2 0x525 DUP11 DUP11 PUSH1 0x8 PUSH2 0x666 JUMP JUMPDEST SWAP1 SWAP7 POP SWAP5 POP PUSH2 0x536 DUP7 DUP7 DUP13 DUP13 PUSH2 0x5B3 JUMP JUMPDEST SWAP1 SWAP7 POP SWAP5 POP PUSH2 0x547 DUP7 DUP7 DUP5 DUP5 PUSH2 0x5B3 JUMP JUMPDEST SWAP1 SWAP7 POP SWAP5 POP PUSH2 0x558 DUP5 DUP5 DUP9 DUP9 PUSH2 0x624 JUMP JUMPDEST SWAP1 SWAP5 POP SWAP3 POP PUSH2 0x569 DUP13 DUP13 PUSH1 0x2 PUSH2 0x666 JUMP JUMPDEST SWAP1 SWAP7 POP SWAP5 POP PUSH2 0x57A DUP7 DUP7 DUP11 DUP11 PUSH2 0x5B3 JUMP JUMPDEST SWAP1 SWAP7 POP SWAP5 POP PUSH2 0x58B DUP9 DUP9 DUP5 DUP5 PUSH2 0x5B3 JUMP JUMPDEST SWAP1 SWAP3 POP SWAP1 POP PUSH2 0x59C DUP3 DUP3 PUSH1 0x8 PUSH2 0x666 JUMP JUMPDEST DUP1 SWAP3 POP DUP2 SWAP4 POP POP POP SWAP7 POP SWAP7 POP SWAP7 POP SWAP7 POP SWAP7 POP SWAP7 SWAP1 POP JUMP JUMPDEST PUSH1 0x0 DUP1 PUSH2 0x5F1 PUSH1 0x0 DUP1 MLOAD PUSH1 0x20 PUSH2 0x95D DUP4 CODECOPY DUP2 MLOAD SWAP2 MSTORE DUP6 DUP9 MULMOD PUSH1 0x0 DUP1 MLOAD PUSH1 0x20 PUSH2 0x95D DUP4 CODECOPY DUP2 MLOAD SWAP2 MSTORE DUP6 DUP9 MULMOD PUSH1 0x0 DUP1 MLOAD PUSH1 0x20 PUSH2 0x95D DUP4 CODECOPY DUP2 MLOAD SWAP2 MSTORE PUSH2 0x74E JUMP JUMPDEST PUSH1 0x0 DUP1 MLOAD PUSH1 0x20 PUSH2 0x95D DUP4 CODECOPY DUP2 MLOAD SWAP2 MSTORE DUP1 DUP7 DUP9 MULMOD PUSH1 0x0 DUP1 MLOAD PUSH1 0x20 PUSH2 0x95D DUP4 CODECOPY DUP2 MLOAD SWAP2 MSTORE DUP7 DUP11 MULMOD ADDMOD SWAP2 POP SWAP2 POP SWAP5 POP SWAP5 SWAP3 POP POP POP JUMP JUMPDEST PUSH1 0x0 DUP1 PUSH2 0x640 DUP7 DUP6 PUSH1 0x0 DUP1 MLOAD PUSH1 0x20 PUSH2 0x95D DUP4 CODECOPY DUP2 MLOAD SWAP2 MSTORE PUSH2 0x74E JUMP JUMPDEST PUSH2 0x659 DUP7 DUP6 PUSH1 0x0 DUP1 MLOAD PUSH1 0x20 PUSH2 0x95D DUP4 CODECOPY DUP2 MLOAD SWAP2 MSTORE PUSH2 0x74E JUMP JUMPDEST SWAP2 POP SWAP2 POP SWAP5 POP SWAP5 SWAP3 POP POP POP JUMP JUMPDEST PUSH1 0x0 DUP1 PUSH1 0x0 DUP1 MLOAD PUSH1 0x20 PUSH2 0x95D DUP4 CODECOPY DUP2 MLOAD SWAP2 MSTORE DUP4 DUP7 MULMOD PUSH1 0x0 DUP1 MLOAD PUSH1 0x20 PUSH2 0x95D DUP4 CODECOPY DUP2 MLOAD SWAP2 MSTORE DUP5 DUP7 MULMOD SWAP2 POP SWAP2 POP SWAP4 POP SWAP4 SWAP2 POP POP JUMP JUMPDEST PUSH1 0x0 DUP1 PUSH1 0x0 DUP1 PUSH1 0x0 PUSH2 0x6AD DUP8 DUP8 DUP10 DUP10 PUSH2 0x5B3 JUMP JUMPDEST SWAP1 SWAP5 POP SWAP3 POP PUSH2 0x6BE DUP10 DUP10 DUP2 DUP2 PUSH2 0x5B3 JUMP JUMPDEST SWAP1 SWAP3 POP SWAP1 POP PUSH2 0x6CF DUP3 DUP3 DUP12 DUP12 PUSH2 0x5B3 JUMP JUMPDEST SWAP1 SWAP3 POP SWAP1 POP PUSH2 0x6E0 DUP5 DUP5 DUP5 DUP5 PUSH2 0x624 JUMP JUMPDEST SWAP1 SWAP5 POP SWAP3 POP PUSH2 0x730 DUP5 DUP5 PUSH32 0x2B149D40CEB8AAAE81BE18991BE06AC3B5B4C5E559DBEFA33267E6DC24A138E5 PUSH31 0x9713B03AF0FED4CD2CAFADEED8FDF4A74FA084E52D1852E4A2BD0685C315D2 PUSH2 0x624 JUMP JUMPDEST SWAP1 SWAP5 POP SWAP3 POP DUP4 ISZERO DUP1 ISZERO PUSH2 0x741 JUMPI POP DUP3 ISZERO JUMPDEST SWAP10 SWAP9 POP POP POP POP POP POP POP POP POP JUMP JUMPDEST PUSH1 0x0 DUP2 DUP1 PUSH2 0x75E JUMPI PUSH2 0x75E PUSH2 0x8FD JUMP JUMPDEST PUSH2 0x768 DUP5 DUP5 PUSH2 0x935 JUMP JUMPDEST DUP6 ADDMOD SWAP5 SWAP4 POP POP POP POP JUMP JUMPDEST PUSH1 0x40 MLOAD DUP1 PUSH1 0xC0 ADD PUSH1 0x40 MSTORE DUP1 PUSH1 0x6 SWAP1 PUSH1 0x20 DUP3 MUL DUP1 CALLDATASIZE DUP4 CALLDATACOPY POP SWAP2 SWAP3 SWAP2 POP POP JUMP JUMPDEST PUSH1 0x0 DUP1 PUSH1 0x0 DUP1 PUSH1 0x0 DUP1 PUSH1 0x0 DUP1 PUSH1 0x0 DUP1 PUSH1 0x0 DUP1 PUSH2 0x180 DUP14 DUP16 SUB SLT ISZERO PUSH2 0x7B3 JUMPI PUSH1 0x0 DUP1 REVERT JUMPDEST POP POP DUP11 CALLDATALOAD SWAP13 PUSH1 0x20 DUP13 ADD CALLDATALOAD SWAP13 POP PUSH1 0x40 DUP13 ADD CALLDATALOAD SWAP12 PUSH1 0x60 DUP2 ADD CALLDATALOAD SWAP12 POP PUSH1 0x80 DUP2 ADD CALLDATALOAD SWAP11 POP PUSH1 0xA0 DUP2 ADD CALLDATALOAD SWAP10 POP PUSH1 0xC0 DUP2 ADD CALLDATALOAD SWAP9 POP PUSH1 0xE0 DUP2 ADD CALLDATALOAD SWAP8 POP PUSH2 0x100 DUP2 ADD CALLDATALOAD SWAP7 POP PUSH2 0x120 DUP2 ADD CALLDATALOAD SWAP6 POP PUSH2 0x140 DUP2 ADD CALLDATALOAD SWAP5 POP PUSH2 0x160 ADD CALLDATALOAD SWAP3 POP SWAP1 POP JUMP JUMPDEST PUSH1 0xC0 DUP2 ADD DUP2 DUP4 PUSH1 0x0 JUMPDEST PUSH1 0x6 DUP2 LT ISZERO PUSH2 0x833 JUMPI DUP2 MLOAD DUP4 MSTORE PUSH1 0x20 SWAP3 DUP4 ADD SWAP3 SWAP1 SWAP2 ADD SWAP1 PUSH1 0x1 ADD PUSH2 0x814 JUMP JUMPDEST POP POP POP SWAP3 SWAP2 POP POP JUMP JUMPDEST PUSH1 0x0 DUP1 PUSH1 0x0 DUP1 PUSH1 0x0 DUP1 PUSH1 0x0 PUSH1 0xE0 DUP9 DUP11 SUB SLT ISZERO PUSH2 0x857 JUMPI PUSH1 0x0 DUP1 REVERT JUMPDEST POP POP DUP6 CALLDATALOAD SWAP8 PUSH1 0x20 DUP8 ADD CALLDATALOAD SWAP8 POP PUSH1 0x40 DUP8 ADD CALLDATALOAD SWAP7 PUSH1 0x60 DUP2 ADD CALLDATALOAD SWAP7 POP PUSH1 0x80 DUP2 ADD CALLDATALOAD SWAP6 POP PUSH1 0xA0 DUP2 ADD CALLDATALOAD SWAP5 POP PUSH1 0xC0 ADD CALLDATALOAD SWAP3 POP SWAP1 POP JUMP JUMPDEST PUSH1 0x0 DUP1 PUSH1 0x0 DUP1 PUSH1 0x80 DUP6 DUP8 SUB SLT ISZERO PUSH2 0x89E JUMPI PUSH1 0x0 DUP1 REVERT JUMPDEST POP POP DUP3 CALLDATALOAD SWAP5 PUSH1 0x20 DUP5 ADD CALLDATALOAD SWAP5 POP PUSH1 0x40 DUP5 ADD CALLDATALOAD SWAP4 PUSH1 0x60 ADD CALLDATALOAD SWAP3 POP SWAP1 POP JUMP JUMPDEST PUSH1 0x0 DUP1 PUSH1 0x0 DUP1 PUSH1 0x0 DUP1 PUSH1 0xC0 DUP8 DUP10 SUB SLT ISZERO PUSH2 0x8D3 JUMPI PUSH1 0x0 DUP1 REVERT JUMPDEST POP POP DUP5 CALLDATALOAD SWAP7 PUSH1 0x20 DUP7 ADD CALLDATALOAD SWAP7 POP PUSH1 0x40 DUP7 ADD CALLDATALOAD SWAP6 PUSH1 0x60 DUP2 ADD CALLDATALOAD SWAP6 POP PUSH1 0x80 DUP2 ADD CALLDATALOAD SWAP5 POP PUSH1 0xA0 ADD CALLDATALOAD SWAP3 POP SWAP1 POP JUMP JUMPDEST PUSH4 0x4E487B71 PUSH1 0xE0 SHL PUSH1 0x0 MSTORE PUSH1 0x12 PUSH1 0x4 MSTORE PUSH1 0x24 PUSH1 0x0 REVERT JUMPDEST PUSH1 0x0 DUP3 PUSH2 0x930 JUMPI PUSH4 0x4E487B71 PUSH1 0xE0 SHL PUSH1 0x0 MSTORE PUSH1 0x12 PUSH1 0x4 MSTORE PUSH1 0x24 PUSH1 0x0 REVERT JUMPDEST POP DIV SWAP1 JUMP JUMPDEST DUP2 DUP2 SUB DUP2 DUP2 GT ISZERO PUSH2 0x956 JUMPI PUSH4 0x4E487B71 PUSH1 0xE0 SHL PUSH1 0x0 MSTORE PUSH1 0x11 PUSH1 0x4 MSTORE PUSH1 0x24 PUSH1 0x0 REVERT JUMPDEST SWAP3 SWAP2 POP POP JUMP INVALID ADDRESS PUSH5 0x4E72E131A0 0x29 0xB8 POP GASLIMIT 0xB6 DUP2 DUP2 PC 0x5D SWAP8 DUP2 PUSH11 0x916871CA8D3C208C16D87C REVERT SELFBALANCE LOG2 PUSH5 0x6970667358 0x22 SLT KECCAK256 PUSH3 0xE8B1E7 RETURNDATACOPY INVALID CREATE2 PUSH14 0x27F1BD30B020D3BC6B96F628081A MSTORE PUSH12 0xB59F78DB2646431E64736F6C PUSH4 0x43000813 STOP CALLER ",
  "sha1": "6d9597b3bdc88b89acbf9e9910a82dc0115f5667",
  "source": "// SPDX-License-Identifier: LGPL 3.0\npragma solidity ^0.8.15;\n\n/**\n * @title Elliptic curve operations on twist points for alt_bn128\n * @author Mustafa Al-Bassam (mus@musalbas.com)\n * @dev Homepage: https://github.com/musalbas/solidity-BN256G2\n */\n\nlibrary BN256G2 {\n    uint256 internal constant FIELD_MODULUS = 0x30644e72e131a029b85045b68181585d97816a916871ca8d3c208c16d87cfd47;\n    uint256 internal constant TWISTBX = 0x2b149d40ceb8aaae81be18991be06ac3b5b4c5e559dbefa33267e6dc24a138e5;\n    uint256 internal constant TWISTBY = 0x9713b03af0fed4cd2cafadeed8fdf4a74fa084e52d1852e4a2bd0685c315d2;\n    uint256 internal constant PTXX = 0;\n    uint256 internal constant PTXY = 1;\n    uint256 internal constant PTYX = 2;\n    uint256 internal constant PTYY = 3;\n    uint256 internal constant PTZX = 4;\n    uint256 internal constant PTZY = 5;\n\n    /**\n     * @notice Add two twist points\n     * @param pt1xx Coefficient 1 of x on point 1\n     * @param pt1xy Coefficient 2 of x on point 1\n     * @param pt1yx Coefficient 1 of y on point 1\n     * @param pt1yy Coefficient 2 of y on point 1\n     * @param pt2xx Coefficient 1 of x on point 2\n     * @param pt2xy Coefficient 2 of x on point 2\n     * @param pt2yx Coefficient 1 of y on point 2\n     * @param pt2yy Coefficient 2 of y on point 2\n     * @return (pt3xx, pt3xy, pt3yx, pt3yy)\n     */\n    function ECTwistAdd(\n        uint256 pt1xx,\n        uint256 pt1xy,\n        uint256 pt1yx,\n        uint256 pt1yy,\n        uint256 pt2xx,\n        uint256 pt2xy,\n        uint256 pt2yx,\n        uint256 pt2yy\n    )\n        internal\n        view\n        returns (\n            uint256,\n            uint256,\n            uint256,\n            uint256\n        )\n    {\n        if (pt1xx == 0 && pt1xy == 0 && pt1yx == 0 && pt1yy == 0) {\n            if (!(pt2xx == 0 && pt2xy == 0 && pt2yx == 0 && pt2yy == 0)) {\n                assert(_isOnCurve(pt2xx, pt2xy, pt2yx, pt2yy));\n            }\n            return (pt2xx, pt2xy, pt2yx, pt2yy);\n        } else if (pt2xx == 0 && pt2xy == 0 && pt2yx == 0 && pt2yy == 0) {\n            assert(_isOnCurve(pt1xx, pt1xy, pt1yx, pt1yy));\n            return (pt1xx, pt1xy, pt1yx, pt1yy);\n        }\n\n        assert(_isOnCurve(pt1xx, pt1xy, pt1yx, pt1yy));\n        assert(_isOnCurve(pt2xx, pt2xy, pt2yx, pt2yy));\n\n        uint256[6] memory pt3 = _ECTwistAddJacobian(pt1xx, pt1xy, pt1yx, pt1yy, 1, 0, pt2xx, pt2xy, pt2yx, pt2yy, 1, 0);\n\n        return _fromJacobian(pt3[PTXX], pt3[PTXY], pt3[PTYX], pt3[PTYY], pt3[PTZX], pt3[PTZY]);\n    }\n\n    /**\n     * @notice Multiply a twist point by a scalar\n     * @param s     Scalar to multiply by\n     * @param pt1xx Coefficient 1 of x\n     * @param pt1xy Coefficient 2 of x\n     * @param pt1yx Coefficient 1 of y\n     * @param pt1yy Coefficient 2 of y\n     * @return (pt2xx, pt2xy, pt2yx, pt2yy)\n     */\n    function ECTwistMul(\n        uint256 s,\n        uint256 pt1xx,\n        uint256 pt1xy,\n        uint256 pt1yx,\n        uint256 pt1yy\n    )\n        internal\n        view\n        returns (\n            uint256,\n            uint256,\n            uint256,\n            uint256\n        )\n    {\n        uint256 pt1zx = 1;\n        if (pt1xx == 0 && pt1xy == 0 && pt1yx == 0 && pt1yy == 0) {\n            pt1xx = 1;\n            pt1yx = 1;\n            pt1zx = 0;\n        } else {\n            assert(_isOnCurve(pt1xx, pt1xy, pt1yx, pt1yy));\n        }\n\n        uint256[6] memory pt2 = _ECTwistMulJacobian(s, pt1xx, pt1xy, pt1yx, pt1yy, pt1zx, 0);\n\n        return _fromJacobian(pt2[PTXX], pt2[PTXY], pt2[PTYX], pt2[PTYY], pt2[PTZX], pt2[PTZY]);\n    }\n\n    /**\n     * @notice Get the field modulus\n     * @return The field modulus\n     */\n    function GetFieldModulus() public pure returns (uint256) {\n        return FIELD_MODULUS;\n    }\n\n    function submod(\n        uint256 a,\n        uint256 b,\n        uint256 n\n    ) internal pure returns (uint256) {\n        return addmod(a, n - b, n);\n    }\n\n    function _FQ2Mul(\n        uint256 xx,\n        uint256 xy,\n        uint256 yx,\n        uint256 yy\n    ) internal pure returns (uint256, uint256) {\n        return (\n            submod(mulmod(xx, yx, FIELD_MODULUS), mulmod(xy, yy, FIELD_MODULUS), FIELD_MODULUS),\n            addmod(mulmod(xx, yy, FIELD_MODULUS), mulmod(xy, yx, FIELD_MODULUS), FIELD_MODULUS)\n        );\n    }\n\n    function _FQ2Muc(\n        uint256 xx,\n        uint256 xy,\n        uint256 c\n    ) internal pure returns (uint256, uint256) {\n        return (mulmod(xx, c, FIELD_MODULUS), mulmod(xy, c, FIELD_MODULUS));\n    }\n\n    function _FQ2Add(\n        uint256 xx,\n        uint256 xy,\n        uint256 yx,\n        uint256 yy\n    ) internal pure returns (uint256, uint256) {\n        return (addmod(xx, yx, FIELD_MODULUS), addmod(xy, yy, FIELD_MODULUS));\n    }\n\n    function _FQ2Sub(\n        uint256 xx,\n        uint256 xy,\n        uint256 yx,\n        uint256 yy\n    ) internal pure returns (uint256 rx, uint256 ry) {\n        return (submod(xx, yx, FIELD_MODULUS), submod(xy, yy, FIELD_MODULUS));\n    }\n\n    function _FQ2Div(\n        uint256 xx,\n        uint256 xy,\n        uint256 yx,\n        uint256 yy\n    ) internal view returns (uint256, uint256) {\n        (yx, yy) = _FQ2Inv(yx, yy);\n        return _FQ2Mul(xx, xy, yx, yy);\n    }\n\n    function _FQ2Inv(uint256 x, uint256 y) internal view returns (uint256, uint256) {\n        uint256 inv = _modInv(addmod(mulmod(y, y, FIELD_MODULUS), mulmod(x, x, FIELD_MODULUS), FIELD_MODULUS), FIELD_MODULUS);\n        return (mulmod(x, inv, FIELD_MODULUS), FIELD_MODULUS - mulmod(y, inv, FIELD_MODULUS));\n    }\n\n    function isOnCurve(\n        uint256 xx,\n        uint256 xy,\n        uint256 yx,\n        uint256 yy\n    ) external pure returns (bool) {\n        return _isOnCurve(xx, xy, yx, yy);\n    }\n\n    function _isOnCurve(\n        uint256 xx,\n        uint256 xy,\n        uint256 yx,\n        uint256 yy\n    ) internal pure returns (bool) {\n        uint256 yyx;\n        uint256 yyy;\n        uint256 xxxx;\n        uint256 xxxy;\n        (yyx, yyy) = _FQ2Mul(yx, yy, yx, yy);\n        (xxxx, xxxy) = _FQ2Mul(xx, xy, xx, xy);\n        (xxxx, xxxy) = _FQ2Mul(xxxx, xxxy, xx, xy);\n        (yyx, yyy) = _FQ2Sub(yyx, yyy, xxxx, xxxy);\n        (yyx, yyy) = _FQ2Sub(yyx, yyy, TWISTBX, TWISTBY);\n        return yyx == 0 && yyy == 0;\n    }\n\n    function _modInv(uint256 a, uint256 n) internal view returns (uint256 result) {\n        bool success;\n        assembly {\n            let freemem := mload(0x40)\n            mstore(freemem, 0x20)\n            mstore(add(freemem, 0x20), 0x20)\n            mstore(add(freemem, 0x40), 0x20)\n            mstore(add(freemem, 0x60), a)\n            mstore(add(freemem, 0x80), sub(n, 2))\n            mstore(add(freemem, 0xA0), n)\n            success := staticcall(sub(gas(), 2000), 5, freemem, 0xC0, freemem, 0x20)\n            result := mload(freemem)\n        }\n        require(success);\n    }\n\n    function _fromJacobian(\n        uint256 pt1xx,\n        uint256 pt1xy,\n        uint256 pt1yx,\n        uint256 pt1yy,\n        uint256 pt1zx,\n        uint256 pt1zy\n    )\n        internal\n        view\n        returns (\n            uint256 pt2xx,\n            uint256 pt2xy,\n            uint256 pt2yx,\n            uint256 pt2yy\n        )\n    {\n        uint256 invzx;\n        uint256 invzy;\n        (invzx, invzy) = _FQ2Inv(pt1zx, pt1zy);\n        (pt2xx, pt2xy) = _FQ2Mul(pt1xx, pt1xy, invzx, invzy);\n        (pt2yx, pt2yy) = _FQ2Mul(pt1yx, pt1yy, invzx, invzy);\n    }\n\n    function _ECTwistAddJacobian(\n        uint256 pt1xx,\n        uint256 pt1xy,\n        uint256 pt1yx,\n        uint256 pt1yy,\n        uint256 pt1zx,\n        uint256 pt1zy,\n        uint256 pt2xx,\n        uint256 pt2xy,\n        uint256 pt2yx,\n        uint256 pt2yy,\n        uint256 pt2zx,\n        uint256 pt2zy\n    ) public pure returns (uint256[6] memory pt3) {\n        if (pt1zx == 0 && pt1zy == 0) {\n            (pt3[PTXX], pt3[PTXY], pt3[PTYX], pt3[PTYY], pt3[PTZX], pt3[PTZY]) = (pt2xx, pt2xy, pt2yx, pt2yy, pt2zx, pt2zy);\n            return pt3;\n        } else if (pt2zx == 0 && pt2zy == 0) {\n            (pt3[PTXX], pt3[PTXY], pt3[PTYX], pt3[PTYY], pt3[PTZX], pt3[PTZY]) = (pt1xx, pt1xy, pt1yx, pt1yy, pt1zx, pt1zy);\n            return pt3;\n        }\n\n        (pt2yx, pt2yy) = _FQ2Mul(pt2yx, pt2yy, pt1zx, pt1zy); // U1 = y2 * z1\n        (pt3[PTYX], pt3[PTYY]) = _FQ2Mul(pt1yx, pt1yy, pt2zx, pt2zy); // U2 = y1 * z2\n        (pt2xx, pt2xy) = _FQ2Mul(pt2xx, pt2xy, pt1zx, pt1zy); // V1 = x2 * z1\n        (pt3[PTZX], pt3[PTZY]) = _FQ2Mul(pt1xx, pt1xy, pt2zx, pt2zy); // V2 = x1 * z2\n\n        if (pt2xx == pt3[PTZX] && pt2xy == pt3[PTZY]) {\n            if (pt2yx == pt3[PTYX] && pt2yy == pt3[PTYY]) {\n                (pt3[PTXX], pt3[PTXY], pt3[PTYX], pt3[PTYY], pt3[PTZX], pt3[PTZY]) = _ECTwistDoubleJacobian(pt1xx, pt1xy, pt1yx, pt1yy, pt1zx, pt1zy);\n                return pt3;\n            }\n            (pt3[PTXX], pt3[PTXY], pt3[PTYX], pt3[PTYY], pt3[PTZX], pt3[PTZY]) = (1, 0, 1, 0, 0, 0);\n            return pt3;\n        }\n\n        (pt2zx, pt2zy) = _FQ2Mul(pt1zx, pt1zy, pt2zx, pt2zy); // W = z1 * z2\n        (pt1xx, pt1xy) = _FQ2Sub(pt2yx, pt2yy, pt3[PTYX], pt3[PTYY]); // U = U1 - U2\n        (pt1yx, pt1yy) = _FQ2Sub(pt2xx, pt2xy, pt3[PTZX], pt3[PTZY]); // V = V1 - V2\n        (pt1zx, pt1zy) = _FQ2Mul(pt1yx, pt1yy, pt1yx, pt1yy); // V_squared = V * V\n        (pt2yx, pt2yy) = _FQ2Mul(pt1zx, pt1zy, pt3[PTZX], pt3[PTZY]); // V_squared_times_V2 = V_squared * V2\n        (pt1zx, pt1zy) = _FQ2Mul(pt1zx, pt1zy, pt1yx, pt1yy); // V_cubed = V * V_squared\n        (pt3[PTZX], pt3[PTZY]) = _FQ2Mul(pt1zx, pt1zy, pt2zx, pt2zy); // newz = V_cubed * W\n        (pt2xx, pt2xy) = _FQ2Mul(pt1xx, pt1xy, pt1xx, pt1xy); // U * U\n        (pt2xx, pt2xy) = _FQ2Mul(pt2xx, pt2xy, pt2zx, pt2zy); // U * U * W\n        (pt2xx, pt2xy) = _FQ2Sub(pt2xx, pt2xy, pt1zx, pt1zy); // U * U * W - V_cubed\n        (pt2zx, pt2zy) = _FQ2Muc(pt2yx, pt2yy, 2); // 2 * V_squared_times_V2\n        (pt2xx, pt2xy) = _FQ2Sub(pt2xx, pt2xy, pt2zx, pt2zy); // A = U * U * W - V_cubed - 2 * V_squared_times_V2\n        (pt3[PTXX], pt3[PTXY]) = _FQ2Mul(pt1yx, pt1yy, pt2xx, pt2xy); // newx = V * A\n        (pt1yx, pt1yy) = _FQ2Sub(pt2yx, pt2yy, pt2xx, pt2xy); // V_squared_times_V2 - A\n        (pt1yx, pt1yy) = _FQ2Mul(pt1xx, pt1xy, pt1yx, pt1yy); // U * (V_squared_times_V2 - A)\n        (pt1xx, pt1xy) = _FQ2Mul(pt1zx, pt1zy, pt3[PTYX], pt3[PTYY]); // V_cubed * U2\n        (pt3[PTYX], pt3[PTYY]) = _FQ2Sub(pt1yx, pt1yy, pt1xx, pt1xy); // newy = U * (V_squared_times_V2 - A) - V_cubed * U2\n    }\n\n    function _ECTwistDoubleJacobian(\n        uint256 pt1xx,\n        uint256 pt1xy,\n        uint256 pt1yx,\n        uint256 pt1yy,\n        uint256 pt1zx,\n        uint256 pt1zy\n    )\n        public\n        pure\n        returns (\n            uint256 pt2xx,\n            uint256 pt2xy,\n            uint256 pt2yx,\n            uint256 pt2yy,\n            uint256 pt2zx,\n            uint256 pt2zy\n        )\n    {\n        (pt2xx, pt2xy) = _FQ2Muc(pt1xx, pt1xy, 3); // 3 * x\n        (pt2xx, pt2xy) = _FQ2Mul(pt2xx, pt2xy, pt1xx, pt1xy); // W = 3 * x * x\n        (pt1zx, pt1zy) = _FQ2Mul(pt1yx, pt1yy, pt1zx, pt1zy); // S = y * z\n        (pt2yx, pt2yy) = _FQ2Mul(pt1xx, pt1xy, pt1yx, pt1yy); // x * y\n        (pt2yx, pt2yy) = _FQ2Mul(pt2yx, pt2yy, pt1zx, pt1zy); // B = x * y * S\n        (pt1xx, pt1xy) = _FQ2Mul(pt2xx, pt2xy, pt2xx, pt2xy); // W * W\n        (pt2zx, pt2zy) = _FQ2Muc(pt2yx, pt2yy, 8); // 8 * B\n        (pt1xx, pt1xy) = _FQ2Sub(pt1xx, pt1xy, pt2zx, pt2zy); // H = W * W - 8 * B\n        (pt2zx, pt2zy) = _FQ2Mul(pt1zx, pt1zy, pt1zx, pt1zy); // S_squared = S * S\n        (pt2yx, pt2yy) = _FQ2Muc(pt2yx, pt2yy, 4); // 4 * B\n        (pt2yx, pt2yy) = _FQ2Sub(pt2yx, pt2yy, pt1xx, pt1xy); // 4 * B - H\n        (pt2yx, pt2yy) = _FQ2Mul(pt2yx, pt2yy, pt2xx, pt2xy); // W * (4 * B - H)\n        (pt2xx, pt2xy) = _FQ2Muc(pt1yx, pt1yy, 8); // 8 * y\n        (pt2xx, pt2xy) = _FQ2Mul(pt2xx, pt2xy, pt1yx, pt1yy); // 8 * y * y\n        (pt2xx, pt2xy) = _FQ2Mul(pt2xx, pt2xy, pt2zx, pt2zy); // 8 * y * y * S_squared\n        (pt2yx, pt2yy) = _FQ2Sub(pt2yx, pt2yy, pt2xx, pt2xy); // newy = W * (4 * B - H) - 8 * y * y * S_squared\n        (pt2xx, pt2xy) = _FQ2Muc(pt1xx, pt1xy, 2); // 2 * H\n        (pt2xx, pt2xy) = _FQ2Mul(pt2xx, pt2xy, pt1zx, pt1zy); // newx = 2 * H * S\n        (pt2zx, pt2zy) = _FQ2Mul(pt1zx, pt1zy, pt2zx, pt2zy); // S * S_squared\n        (pt2zx, pt2zy) = _FQ2Muc(pt2zx, pt2zy, 8); // newz = 8 * S * S_squared\n    }\n\n    function _ECTwistMulJacobian(\n        uint256 d,\n        uint256 pt1xx,\n        uint256 pt1xy,\n        uint256 pt1yx,\n        uint256 pt1yy,\n        uint256 pt1zx,\n        uint256 pt1zy\n    ) public pure returns (uint256[6] memory pt2) {\n        while (d != 0) {\n            if ((d & 1) != 0) {\n                pt2 = _ECTwistAddJacobian(pt2[PTXX], pt2[PTXY], pt2[PTYX], pt2[PTYY], pt2[PTZX], pt2[PTZY], pt1xx, pt1xy, pt1yx, pt1yy, pt1zx, pt1zy);\n            }\n            (pt1xx, pt1xy, pt1yx, pt1yy, pt1zx, pt1zy) = _ECTwistDoubleJacobian(pt1xx, pt1xy, pt1yx, pt1yy, pt1zx, pt1zy);\n\n            d = d / 2;\n        }\n    }\n}\n",
  "sourcePath": "contracts/BN256G2.sol",
  "type": "library"
}