{
  "abi": [
    {
      "inputs": [],
      "stateMutability": "nonpayable",
      "type": "constructor"
    },
    {
      "inputs": [
        {
          "internalType": "address",
          "name": "_shareholder",
          "type": "address"
        },
        {
          "internalType": "uint256",
          "name": "_amount",
          "type": "uint256"
        }
      ],
      "name": "addFirstInvestment",
      "outputs": [],
      "stateMutability": "nonpayable",
      "type": "function"
    },
    {
      "inputs": [
        {
          "internalType": "address",
          "name": "_shareholder",
          "type": "address"
        },
        {
          "internalType": "uint256",
          "name": "_amount",
          "type": "uint256"
        }
      ],
      "name": "addSecondInvestment",
      "outputs": [],
      "stateMutability": "nonpayable",
      "type": "function"
    },
    {
      "inputs": [
        {
          "internalType": "uint256",
          "name": "",
          "type": "uint256"
        }
      ],
      "name": "aggBlsPublicKey",
      "outputs": [
        {
          "internalType": "uint256",
          "name": "",
          "type": "uint256"
        }
      ],
      "stateMutability": "view",
      "type": "function"
    },
    {
      "inputs": [
        {
          "internalType": "address",
          "name": "_shareholder",
          "type": "address"
        }
      ],
      "name": "calculateDividends",
      "outputs": [
        {
          "internalType": "uint256",
          "name": "",
          "type": "uint256"
        }
      ],
      "stateMutability": "view",
      "type": "function"
    },
    {
      "inputs": [],
      "name": "createProposal",
      "outputs": [],
      "stateMutability": "nonpayable",
      "type": "function"
    },
    {
      "inputs": [],
      "name": "getShareholderAddresses",
      "outputs": [
        {
          "internalType": "address[]",
          "name": "",
          "type": "address[]"
        }
      ],
      "stateMutability": "view",
      "type": "function"
    },
    {
      "inputs": [
        {
          "internalType": "uint256",
          "name": "_proposalId",
          "type": "uint256"
        },
        {
          "internalType": "address",
          "name": "_shareholder",
          "type": "address"
        }
      ],
      "name": "getShareholderDividends",
      "outputs": [
        {
          "internalType": "uint256",
          "name": "",
          "type": "uint256"
        }
      ],
      "stateMutability": "view",
      "type": "function"
    },
    {
      "inputs": [],
      "name": "owner",
      "outputs": [
        {
          "internalType": "address",
          "name": "",
          "type": "address"
        }
      ],
      "stateMutability": "view",
      "type": "function"
    },
    {
      "inputs": [],
      "name": "proposalCount",
      "outputs": [
        {
          "internalType": "uint256",
          "name": "",
          "type": "uint256"
        }
      ],
      "stateMutability": "view",
      "type": "function"
    },
    {
      "inputs": [
        {
          "internalType": "uint256",
          "name": "",
          "type": "uint256"
        }
      ],
      "name": "proposals",
      "outputs": [
        {
          "internalType": "uint256",
          "name": "id",
          "type": "uint256"
        },
        {
          "internalType": "bool",
          "name": "hasVerified",
          "type": "bool"
        }
      ],
      "stateMutability": "view",
      "type": "function"
    },
    {
      "inputs": [
        {
          "internalType": "uint256[4]",
          "name": "_bls_public_key",
          "type": "uint256[4]"
        }
      ],
      "name": "setAggBlsPublicKey",
      "outputs": [],
      "stateMutability": "nonpayable",
      "type": "function"
    },
    {
      "inputs": [
        {
          "internalType": "address",
          "name": "_shareholder",
          "type": "address"
        },
        {
          "internalType": "uint256",
          "name": "_income",
          "type": "uint256"
        }
      ],
      "name": "setShareholderIncome",
      "outputs": [],
      "stateMutability": "nonpayable",
      "type": "function"
    },
    {
      "inputs": [
        {
          "internalType": "uint256",
          "name": "",
          "type": "uint256"
        }
      ],
      "name": "shareholderAddresses",
      "outputs": [
        {
          "internalType": "address",
          "name": "",
          "type": "address"
        }
      ],
      "stateMutability": "view",
      "type": "function"
    },
    {
      "inputs": [
        {
          "internalType": "address",
          "name": "",
          "type": "address"
        }
      ],
      "name": "shareholders",
      "outputs": [
        {
          "internalType": "uint256",
          "name": "firstInvestment",
          "type": "uint256"
        },
        {
          "internalType": "uint256",
          "name": "secondInvestment",
          "type": "uint256"
        },
        {
          "internalType": "uint256",
          "name": "income",
          "type": "uint256"
        }
      ],
      "stateMutability": "view",
      "type": "function"
    },
    {
      "inputs": [
        {
          "internalType": "uint256",
          "name": "",
          "type": "uint256"
        }
      ],
      "name": "tempMemHash",
      "outputs": [
        {
          "internalType": "uint256",
          "name": "",
          "type": "uint256"
        }
      ],
      "stateMutability": "view",
      "type": "function"
    },
    {
      "inputs": [],
      "name": "totalFirstInvestment",
      "outputs": [
        {
          "internalType": "uint256",
          "name": "",
          "type": "uint256"
        }
      ],
      "stateMutability": "view",
      "type": "function"
    },
    {
      "inputs": [],
      "name": "totalInvestment",
      "outputs": [
        {
          "internalType": "uint256",
          "name": "",
          "type": "uint256"
        }
      ],
      "stateMutability": "view",
      "type": "function"
    },
    {
      "inputs": [],
      "name": "totalSecondInvestment",
      "outputs": [
        {
          "internalType": "uint256",
          "name": "",
          "type": "uint256"
        }
      ],
      "stateMutability": "view",
      "type": "function"
    },
    {
      "inputs": [
        {
          "internalType": "uint256",
          "name": "_proposalId",
          "type": "uint256"
        },
        {
          "internalType": "uint256[2]",
          "name": "_aggSignature",
          "type": "uint256[2]"
        }
      ],
      "name": "verifyProposal",
      "outputs": [
        {
          "internalType": "bool",
          "name": "",
          "type": "bool"
        }
      ],
      "stateMutability": "nonpayable",
      "type": "function"
    }
  ],
  "bytecode": "608060405234801561001057600080fd5b50600080546001600160a01b03191633178155600d556110b6806100356000396000f3fe608060405234801561001057600080fd5b50600436106101205760003560e01c80638da5cb5b116100ad578063c40c6c5c11610071578063c40c6c5c1461029c578063ce7e03f0146102bf578063da35c664146102d2578063deb1557d146102db578063fb8159eb1461031557600080fd5b80638da5cb5b14610251578063912c155514610264578063a5872c7214610277578063ac30b1ff14610280578063b2b233d21461029357600080fd5b80631c063c41116100f45780631c063c41146101a35780634c06d9e3146101b65780635c2930ad146101c95780635c3184dc1461021357806365efb3cd1461023e57600080fd5b806239b55c14610125578063013cf08b1461014357806310ea13df14610182578063180fd87f14610199575b600080fd5b61012d610328565b60405161013a9190610dcc565b60405180910390f35b61016d610151366004610e19565b600c602052600090815260409020805460019091015460ff1682565b6040805192835290151560208301520161013a565b61018b60015481565b60405190815260200161013a565b6101a161038a565b005b61018b6101b1366004610e19565b6103f5565b6101a16101c4366004610e4e565b61040c565b6101f86101d7366004610e78565b600a6020526000908152604090208054600182015460029092015490919083565b6040805193845260208401929092529082015260600161013a565b610226610221366004610e19565b6104ba565b6040516001600160a01b03909116815260200161013a565b6101a161024c366004610e9a565b6104e4565b600054610226906001600160a01b031681565b61018b610272366004610e78565b61052c565b61018b60035481565b6101a161028e366004610e4e565b610607565b61018b60025481565b6102af6102aa366004610ed2565b6106d2565b604051901515815260200161013a565b61018b6102cd366004610e19565b6107d7565b61018b600d5481565b61018b6102e9366004610f5c565b6000828152600c602090815260408083206001600160a01b038516845260020190915290205492915050565b6101a1610323366004610e4e565b6107e7565b6060600b80548060200260200160405190810160405280929190818152602001828054801561038057602002820191906000526020600020905b81546001600160a01b03168152600190910190602001808311610362575b5050505050905090565b6000546001600160a01b031633146103bd5760405162461bcd60e51b81526004016103b490610f88565b60405180910390fd5b600d546000818152600c60205260409020906103da908290610916565b6001600d60008282546103ed9190610fe0565b909155505050565b6008816002811061040557600080fd5b0154905081565b6000546001600160a01b031633146104365760405162461bcd60e51b81526004016103b490610f88565b6001600160a01b0382166000908152600a602052604090205461049b5760405162461bcd60e51b815260206004820152601e60248201527f466972737420696e766573746d656e74206e6f74206d616465207965742e000060448201526064016103b4565b6001600160a01b039091166000908152600a6020526040902060020155565b600b81815481106104ca57600080fd5b6000918252602090912001546001600160a01b0316905081565b6000546001600160a01b0316331461050e5760405162461bcd60e51b81526004016103b490610f88565b80356004556020810135600555604081013560065560600135600755565b6001600160a01b0381166000908152600a6020908152604080832081516060810183528154815260018201549381019390935260020154908201528161057061099d565b90506000600280548460000151610587919061101f565b610591919061101f565b9050600082156105ae578284604001516105ab919061101f565b90505b600060015485602001516105c2919061101f565b905060006105d160048361101f565b6105dc60028561101f565b6105e760048761101f565b6105f19190610fe0565b6105fb9190610fe0565b98975050505050505050565b6001600160a01b0382166000908152600a602052604090205461066c5760405162461bcd60e51b815260206004820152601e60248201527f466972737420696e766573746d656e74206e6f74206d616465207965742e000060448201526064016103b4565b6001600160a01b0382166000908152600a602052604081206001018054839290610697908490610fe0565b9250508190555080600360008282546106b09190610fe0565b9250508190555080600160008282546106c99190610fe0565b90915550505050565b600080546001600160a01b031633146106fd5760405162461bcd60e51b81526004016103b490610f88565b60006107298460405160200161071591815260200190565b604051602081830303815290604052610a12565b80516008556020810151600955604080516080810191829052919250610771918591600490819081845b81548152602001906001019080831161075357505050505083610a2a565b6107b15760405162461bcd60e51b8152602060048201526011602482015270212629903737ba103b32b934b334b2b21760791b60448201526064016103b4565b50506000828152600c602052604090206001908101805460ff1916821790555b92915050565b6004816004811061040557600080fd5b6000546001600160a01b031633146108115760405162461bcd60e51b81526004016103b490610f88565b6001600160a01b0382166000908152600a6020526040902054156108775760405162461bcd60e51b815260206004820152601e60248201527f466972737420696e766573746d656e7420616c7265616479206d6164652e000060448201526064016103b4565b6001600160a01b0382166000908152600a60205260408120829055600180548392906108a4908490610fe0565b9250508190555080600260008282546108bd9190610fe0565b9091555050600b80546001810182556000919091527f0175b7a638427703f0dbe7bb9bbf987a2551717b34e79f33b5b1008d1fa01db90180546001600160a01b0319166001600160a01b03939093169290921790915550565b80825560018201805460ff1916905560005b600b54811015610998576000600b828154811061094757610947610ff3565b60009182526020822001546001600160a01b031691506109668261052c565b6001600160a01b039092166000908152600286016020526040902091909155508061099081611033565b915050610928565b505050565b600080805b600b54811015610a0c576000600b82815481106109c1576109c1610ff3565b60009182526020808320909101546001600160a01b0316808352600a9091526040909120600201549091506109f69084610fe0565b9250508080610a0490611033565b9150506109a2565b50919050565b610a1a610d90565b6107d18280519060200120610c10565b60008060405180610180016040528086600060028110610a4c57610a4c610ff3565b6020020151815260200186600160028110610a6957610a69610ff3565b602002015181526020017f198e9393920d483a7260bfb731fb5d25f1aa493335a9e71297e485b7aef312c281526020017f1800deef121f1e76426a00665e5c4479674322d4f75edadd46debd5cd992f6ed81526020017f275dc4a288d1afb3cbb1ac09187524c7db36395df7be3b99e673b13a075a65ec81526020017f1d9befcd05a5323e6da4d435f3b617cdb3af83285c2df711ef39c01571827f9d815260200184600060028110610b1e57610b1e610ff3565b6020020151815260200184600160028110610b3b57610b3b610ff3565b6020020151815260200185600160048110610b5857610b58610ff3565b6020020151815260200185600060048110610b7557610b75610ff3565b6020020151815260200185600360048110610b9257610b92610ff3565b6020020151815260200185600260048110610baf57610baf610ff3565b602002015190529050610bc0610dae565b60006020826101808560086107d05a03fa90508080610bdb57fe5b5080610c035760405162461bcd60e51b815260206004820152600060248201526044016103b4565b5051151595945050505050565b610c18610d90565b6000610c326000805160206110618339815191528461104c565b90506000805b60008051602061106183398151915283840991506000805160206110618339815191528383099150600080516020611061833981519152600383089150610c7e82610cba565b90925090508015610c985782845260208401829052610cb2565b600080516020611061833981519152600184089250610c38565b505050919050565b600080600060405160208152602080820152602060408201528460608201527f0c19139cb84c680a6e14116da060561765e05aa45a1c72a34f082305b61f3f52608082015260008051602061106183398151915260a082015260208160c08360056107d05a03fa9051935090506000805160206110618339815191528380098414915080610d8a5760405162461bcd60e51b815260206004820152601c60248201527f424c533a2073717274206d6f646578702063616c6c206661696c65640000000060448201526064016103b4565b50915091565b60405180604001604052806002906020820280368337509192915050565b60405180602001604052806001906020820280368337509192915050565b6020808252825182820181905260009190848201906040850190845b81811015610e0d5783516001600160a01b031683529284019291840191600101610de8565b50909695505050505050565b600060208284031215610e2b57600080fd5b5035919050565b80356001600160a01b0381168114610e4957600080fd5b919050565b60008060408385031215610e6157600080fd5b610e6a83610e32565b946020939093013593505050565b600060208284031215610e8a57600080fd5b610e9382610e32565b9392505050565b600060808284031215610eac57600080fd5b82608083011115610a0c57600080fd5b634e487b7160e01b600052604160045260246000fd5b60008060608385031215610ee557600080fd5b82359150602084603f850112610efa57600080fd5b6040516040810181811067ffffffffffffffff82111715610f1d57610f1d610ebc565b604052806060860187811115610f3257600080fd5b8387015b81811015610f4d5780358352918401918401610f36565b50505080925050509250929050565b60008060408385031215610f6f57600080fd5b82359150610f7f60208401610e32565b90509250929050565b60208082526022908201527f4f6e6c79206f776e65722063616e2063616c6c20746869732066756e6374696f604082015261371760f11b606082015260800190565b634e487b7160e01b600052601160045260246000fd5b808201808211156107d1576107d1610fca565b634e487b7160e01b600052603260045260246000fd5b634e487b7160e01b600052601260045260246000fd5b60008261102e5761102e611009565b500490565b60006001820161104557611045610fca565b5060010190565b60008261105b5761105b611009565b50069056fe30644e72e131a029b85045b68181585d97816a916871ca8d3c208c16d87cfd47a2646970667358221220b08ab969cfae10995e700b4402bb0e8414dacd5a23aaaa4b1ec6836a9dd6f56564736f6c63430008130033",
  "bytecodeSha1": "fe769d7b55ab3435ed1c5b258e57d9c8c99fbf8d",
  "compiler": {
    "evm_version": "istanbul",
    "optimizer": {
      "enabled": true,
      "runs": 200
    },
    "version": "0.8.19+commit.7dd6d404"
  },
  "contractName": "Dividends",
  "language": "Solidity",
  "natspec": {
    "kind": "dev",
    "methods": {},
    "version": 1
  },
  "opcodes": "PUSH1 0x80 PUSH1 0x40 MSTORE CALLVALUE DUP1 ISZERO PUSH2 0x10 JUMPI PUSH1 0x0 DUP1 REVERT JUMPDEST POP PUSH1 0x4 CALLDATASIZE LT PUSH2 0x120 JUMPI PUSH1 0x0 CALLDATALOAD PUSH1 0xE0 SHR DUP1 PUSH4 0x8DA5CB5B GT PUSH2 0xAD JUMPI DUP1 PUSH4 0xC40C6C5C GT PUSH2 0x71 JUMPI DUP1 PUSH4 0xC40C6C5C EQ PUSH2 0x29C JUMPI DUP1 PUSH4 0xCE7E03F0 EQ PUSH2 0x2BF JUMPI DUP1 PUSH4 0xDA35C664 EQ PUSH2 0x2D2 JUMPI DUP1 PUSH4 0xDEB1557D EQ PUSH2 0x2DB JUMPI DUP1 PUSH4 0xFB8159EB EQ PUSH2 0x315 JUMPI PUSH1 0x0 DUP1 REVERT JUMPDEST DUP1 PUSH4 0x8DA5CB5B EQ PUSH2 0x251 JUMPI DUP1 PUSH4 0x912C1555 EQ PUSH2 0x264 JUMPI DUP1 PUSH4 0xA5872C72 EQ PUSH2 0x277 JUMPI DUP1 PUSH4 0xAC30B1FF EQ PUSH2 0x280 JUMPI DUP1 PUSH4 0xB2B233D2 EQ PUSH2 0x293 JUMPI PUSH1 0x0 DUP1 REVERT JUMPDEST DUP1 PUSH4 0x1C063C41 GT PUSH2 0xF4 JUMPI DUP1 PUSH4 0x1C063C41 EQ PUSH2 0x1A3 JUMPI DUP1 PUSH4 0x4C06D9E3 EQ PUSH2 0x1B6 JUMPI DUP1 PUSH4 0x5C2930AD EQ PUSH2 0x1C9 JUMPI DUP1 PUSH4 0x5C3184DC EQ PUSH2 0x213 JUMPI DUP1 PUSH4 0x65EFB3CD EQ PUSH2 0x23E JUMPI PUSH1 0x0 DUP1 REVERT JUMPDEST DUP1 PUSH3 0x39B55C EQ PUSH2 0x125 JUMPI DUP1 PUSH4 0x13CF08B EQ PUSH2 0x143 JUMPI DUP1 PUSH4 0x10EA13DF EQ PUSH2 0x182 JUMPI DUP1 PUSH4 0x180FD87F EQ PUSH2 0x199 JUMPI JUMPDEST PUSH1 0x0 DUP1 REVERT JUMPDEST PUSH2 0x12D PUSH2 0x328 JUMP JUMPDEST PUSH1 0x40 MLOAD PUSH2 0x13A SWAP2 SWAP1 PUSH2 0xDCC JUMP JUMPDEST PUSH1 0x40 MLOAD DUP1 SWAP2 SUB SWAP1 RETURN JUMPDEST PUSH2 0x16D PUSH2 0x151 CALLDATASIZE PUSH1 0x4 PUSH2 0xE19 JUMP JUMPDEST PUSH1 0xC PUSH1 0x20 MSTORE PUSH1 0x0 SWAP1 DUP2 MSTORE PUSH1 0x40 SWAP1 KECCAK256 DUP1 SLOAD PUSH1 0x1 SWAP1 SWAP2 ADD SLOAD PUSH1 0xFF AND DUP3 JUMP JUMPDEST PUSH1 0x40 DUP1 MLOAD SWAP3 DUP4 MSTORE SWAP1 ISZERO ISZERO PUSH1 0x20 DUP4 ADD MSTORE ADD PUSH2 0x13A JUMP JUMPDEST PUSH2 0x18B PUSH1 0x1 SLOAD DUP2 JUMP JUMPDEST PUSH1 0x40 MLOAD SWAP1 DUP2 MSTORE PUSH1 0x20 ADD PUSH2 0x13A JUMP JUMPDEST PUSH2 0x1A1 PUSH2 0x38A JUMP JUMPDEST STOP JUMPDEST PUSH2 0x18B PUSH2 0x1B1 CALLDATASIZE PUSH1 0x4 PUSH2 0xE19 JUMP JUMPDEST PUSH2 0x3F5 JUMP JUMPDEST PUSH2 0x1A1 PUSH2 0x1C4 CALLDATASIZE PUSH1 0x4 PUSH2 0xE4E JUMP JUMPDEST PUSH2 0x40C JUMP JUMPDEST PUSH2 0x1F8 PUSH2 0x1D7 CALLDATASIZE PUSH1 0x4 PUSH2 0xE78 JUMP JUMPDEST PUSH1 0xA PUSH1 0x20 MSTORE PUSH1 0x0 SWAP1 DUP2 MSTORE PUSH1 0x40 SWAP1 KECCAK256 DUP1 SLOAD PUSH1 0x1 DUP3 ADD SLOAD PUSH1 0x2 SWAP1 SWAP3 ADD SLOAD SWAP1 SWAP2 SWAP1 DUP4 JUMP JUMPDEST PUSH1 0x40 DUP1 MLOAD SWAP4 DUP5 MSTORE PUSH1 0x20 DUP5 ADD SWAP3 SWAP1 SWAP3 MSTORE SWAP1 DUP3 ADD MSTORE PUSH1 0x60 ADD PUSH2 0x13A JUMP JUMPDEST PUSH2 0x226 PUSH2 0x221 CALLDATASIZE PUSH1 0x4 PUSH2 0xE19 JUMP JUMPDEST PUSH2 0x4BA JUMP JUMPDEST PUSH1 0x40 MLOAD PUSH1 0x1 PUSH1 0x1 PUSH1 0xA0 SHL SUB SWAP1 SWAP2 AND DUP2 MSTORE PUSH1 0x20 ADD PUSH2 0x13A JUMP JUMPDEST PUSH2 0x1A1 PUSH2 0x24C CALLDATASIZE PUSH1 0x4 PUSH2 0xE9A JUMP JUMPDEST PUSH2 0x4E4 JUMP JUMPDEST PUSH1 0x0 SLOAD PUSH2 0x226 SWAP1 PUSH1 0x1 PUSH1 0x1 PUSH1 0xA0 SHL SUB AND DUP2 JUMP JUMPDEST PUSH2 0x18B PUSH2 0x272 CALLDATASIZE PUSH1 0x4 PUSH2 0xE78 JUMP JUMPDEST PUSH2 0x52C JUMP JUMPDEST PUSH2 0x18B PUSH1 0x3 SLOAD DUP2 JUMP JUMPDEST PUSH2 0x1A1 PUSH2 0x28E CALLDATASIZE PUSH1 0x4 PUSH2 0xE4E JUMP JUMPDEST PUSH2 0x607 JUMP JUMPDEST PUSH2 0x18B PUSH1 0x2 SLOAD DUP2 JUMP JUMPDEST PUSH2 0x2AF PUSH2 0x2AA CALLDATASIZE PUSH1 0x4 PUSH2 0xED2 JUMP JUMPDEST PUSH2 0x6D2 JUMP JUMPDEST PUSH1 0x40 MLOAD SWAP1 ISZERO ISZERO DUP2 MSTORE PUSH1 0x20 ADD PUSH2 0x13A JUMP JUMPDEST PUSH2 0x18B PUSH2 0x2CD CALLDATASIZE PUSH1 0x4 PUSH2 0xE19 JUMP JUMPDEST PUSH2 0x7D7 JUMP JUMPDEST PUSH2 0x18B PUSH1 0xD SLOAD DUP2 JUMP JUMPDEST PUSH2 0x18B PUSH2 0x2E9 CALLDATASIZE PUSH1 0x4 PUSH2 0xF5C JUMP JUMPDEST PUSH1 0x0 DUP3 DUP2 MSTORE PUSH1 0xC PUSH1 0x20 SWAP1 DUP2 MSTORE PUSH1 0x40 DUP1 DUP4 KECCAK256 PUSH1 0x1 PUSH1 0x1 PUSH1 0xA0 SHL SUB DUP6 AND DUP5 MSTORE PUSH1 0x2 ADD SWAP1 SWAP2 MSTORE SWAP1 KECCAK256 SLOAD SWAP3 SWAP2 POP POP JUMP JUMPDEST PUSH2 0x1A1 PUSH2 0x323 CALLDATASIZE PUSH1 0x4 PUSH2 0xE4E JUMP JUMPDEST PUSH2 0x7E7 JUMP JUMPDEST PUSH1 0x60 PUSH1 0xB DUP1 SLOAD DUP1 PUSH1 0x20 MUL PUSH1 0x20 ADD PUSH1 0x40 MLOAD SWAP1 DUP2 ADD PUSH1 0x40 MSTORE DUP1 SWAP3 SWAP2 SWAP1 DUP2 DUP2 MSTORE PUSH1 0x20 ADD DUP3 DUP1 SLOAD DUP1 ISZERO PUSH2 0x380 JUMPI PUSH1 0x20 MUL DUP3 ADD SWAP2 SWAP1 PUSH1 0x0 MSTORE PUSH1 0x20 PUSH1 0x0 KECCAK256 SWAP1 JUMPDEST DUP2 SLOAD PUSH1 0x1 PUSH1 0x1 PUSH1 0xA0 SHL SUB AND DUP2 MSTORE PUSH1 0x1 SWAP1 SWAP2 ADD SWAP1 PUSH1 0x20 ADD DUP1 DUP4 GT PUSH2 0x362 JUMPI JUMPDEST POP POP POP POP POP SWAP1 POP SWAP1 JUMP JUMPDEST PUSH1 0x0 SLOAD PUSH1 0x1 PUSH1 0x1 PUSH1 0xA0 SHL SUB AND CALLER EQ PUSH2 0x3BD JUMPI PUSH1 0x40 MLOAD PUSH3 0x461BCD PUSH1 0xE5 SHL DUP2 MSTORE PUSH1 0x4 ADD PUSH2 0x3B4 SWAP1 PUSH2 0xF88 JUMP JUMPDEST PUSH1 0x40 MLOAD DUP1 SWAP2 SUB SWAP1 REVERT JUMPDEST PUSH1 0xD SLOAD PUSH1 0x0 DUP2 DUP2 MSTORE PUSH1 0xC PUSH1 0x20 MSTORE PUSH1 0x40 SWAP1 KECCAK256 SWAP1 PUSH2 0x3DA SWAP1 DUP3 SWAP1 PUSH2 0x916 JUMP JUMPDEST PUSH1 0x1 PUSH1 0xD PUSH1 0x0 DUP3 DUP3 SLOAD PUSH2 0x3ED SWAP2 SWAP1 PUSH2 0xFE0 JUMP JUMPDEST SWAP1 SWAP2 SSTORE POP POP POP JUMP JUMPDEST PUSH1 0x8 DUP2 PUSH1 0x2 DUP2 LT PUSH2 0x405 JUMPI PUSH1 0x0 DUP1 REVERT JUMPDEST ADD SLOAD SWAP1 POP DUP2 JUMP JUMPDEST PUSH1 0x0 SLOAD PUSH1 0x1 PUSH1 0x1 PUSH1 0xA0 SHL SUB AND CALLER EQ PUSH2 0x436 JUMPI PUSH1 0x40 MLOAD PUSH3 0x461BCD PUSH1 0xE5 SHL DUP2 MSTORE PUSH1 0x4 ADD PUSH2 0x3B4 SWAP1 PUSH2 0xF88 JUMP JUMPDEST PUSH1 0x1 PUSH1 0x1 PUSH1 0xA0 SHL SUB DUP3 AND PUSH1 0x0 SWAP1 DUP2 MSTORE PUSH1 0xA PUSH1 0x20 MSTORE PUSH1 0x40 SWAP1 KECCAK256 SLOAD PUSH2 0x49B JUMPI PUSH1 0x40 MLOAD PUSH3 0x461BCD PUSH1 0xE5 SHL DUP2 MSTORE PUSH1 0x20 PUSH1 0x4 DUP3 ADD MSTORE PUSH1 0x1E PUSH1 0x24 DUP3 ADD MSTORE PUSH32 0x466972737420696E766573746D656E74206E6F74206D616465207965742E0000 PUSH1 0x44 DUP3 ADD MSTORE PUSH1 0x64 ADD PUSH2 0x3B4 JUMP JUMPDEST PUSH1 0x1 PUSH1 0x1 PUSH1 0xA0 SHL SUB SWAP1 SWAP2 AND PUSH1 0x0 SWAP1 DUP2 MSTORE PUSH1 0xA PUSH1 0x20 MSTORE PUSH1 0x40 SWAP1 KECCAK256 PUSH1 0x2 ADD SSTORE JUMP JUMPDEST PUSH1 0xB DUP2 DUP2 SLOAD DUP2 LT PUSH2 0x4CA JUMPI PUSH1 0x0 DUP1 REVERT JUMPDEST PUSH1 0x0 SWAP2 DUP3 MSTORE PUSH1 0x20 SWAP1 SWAP2 KECCAK256 ADD SLOAD PUSH1 0x1 PUSH1 0x1 PUSH1 0xA0 SHL SUB AND SWAP1 POP DUP2 JUMP JUMPDEST PUSH1 0x0 SLOAD PUSH1 0x1 PUSH1 0x1 PUSH1 0xA0 SHL SUB AND CALLER EQ PUSH2 0x50E JUMPI PUSH1 0x40 MLOAD PUSH3 0x461BCD PUSH1 0xE5 SHL DUP2 MSTORE PUSH1 0x4 ADD PUSH2 0x3B4 SWAP1 PUSH2 0xF88 JUMP JUMPDEST DUP1 CALLDATALOAD PUSH1 0x4 SSTORE PUSH1 0x20 DUP2 ADD CALLDATALOAD PUSH1 0x5 SSTORE PUSH1 0x40 DUP2 ADD CALLDATALOAD PUSH1 0x6 SSTORE PUSH1 0x60 ADD CALLDATALOAD PUSH1 0x7 SSTORE JUMP JUMPDEST PUSH1 0x1 PUSH1 0x1 PUSH1 0xA0 SHL SUB DUP2 AND PUSH1 0x0 SWAP1 DUP2 MSTORE PUSH1 0xA PUSH1 0x20 SWAP1 DUP2 MSTORE PUSH1 0x40 DUP1 DUP4 KECCAK256 DUP2 MLOAD PUSH1 0x60 DUP2 ADD DUP4 MSTORE DUP2 SLOAD DUP2 MSTORE PUSH1 0x1 DUP3 ADD SLOAD SWAP4 DUP2 ADD SWAP4 SWAP1 SWAP4 MSTORE PUSH1 0x2 ADD SLOAD SWAP1 DUP3 ADD MSTORE DUP2 PUSH2 0x570 PUSH2 0x99D JUMP JUMPDEST SWAP1 POP PUSH1 0x0 PUSH1 0x2 DUP1 SLOAD DUP5 PUSH1 0x0 ADD MLOAD PUSH2 0x587 SWAP2 SWAP1 PUSH2 0x101F JUMP JUMPDEST PUSH2 0x591 SWAP2 SWAP1 PUSH2 0x101F JUMP JUMPDEST SWAP1 POP PUSH1 0x0 DUP3 ISZERO PUSH2 0x5AE JUMPI DUP3 DUP5 PUSH1 0x40 ADD MLOAD PUSH2 0x5AB SWAP2 SWAP1 PUSH2 0x101F JUMP JUMPDEST SWAP1 POP JUMPDEST PUSH1 0x0 PUSH1 0x1 SLOAD DUP6 PUSH1 0x20 ADD MLOAD PUSH2 0x5C2 SWAP2 SWAP1 PUSH2 0x101F JUMP JUMPDEST SWAP1 POP PUSH1 0x0 PUSH2 0x5D1 PUSH1 0x4 DUP4 PUSH2 0x101F JUMP JUMPDEST PUSH2 0x5DC PUSH1 0x2 DUP6 PUSH2 0x101F JUMP JUMPDEST PUSH2 0x5E7 PUSH1 0x4 DUP8 PUSH2 0x101F JUMP JUMPDEST PUSH2 0x5F1 SWAP2 SWAP1 PUSH2 0xFE0 JUMP JUMPDEST PUSH2 0x5FB SWAP2 SWAP1 PUSH2 0xFE0 JUMP JUMPDEST SWAP9 SWAP8 POP POP POP POP POP POP POP POP JUMP JUMPDEST PUSH1 0x1 PUSH1 0x1 PUSH1 0xA0 SHL SUB DUP3 AND PUSH1 0x0 SWAP1 DUP2 MSTORE PUSH1 0xA PUSH1 0x20 MSTORE PUSH1 0x40 SWAP1 KECCAK256 SLOAD PUSH2 0x66C JUMPI PUSH1 0x40 MLOAD PUSH3 0x461BCD PUSH1 0xE5 SHL DUP2 MSTORE PUSH1 0x20 PUSH1 0x4 DUP3 ADD MSTORE PUSH1 0x1E PUSH1 0x24 DUP3 ADD MSTORE PUSH32 0x466972737420696E766573746D656E74206E6F74206D616465207965742E0000 PUSH1 0x44 DUP3 ADD MSTORE PUSH1 0x64 ADD PUSH2 0x3B4 JUMP JUMPDEST PUSH1 0x1 PUSH1 0x1 PUSH1 0xA0 SHL SUB DUP3 AND PUSH1 0x0 SWAP1 DUP2 MSTORE PUSH1 0xA PUSH1 0x20 MSTORE PUSH1 0x40 DUP2 KECCAK256 PUSH1 0x1 ADD DUP1 SLOAD DUP4 SWAP3 SWAP1 PUSH2 0x697 SWAP1 DUP5 SWAP1 PUSH2 0xFE0 JUMP JUMPDEST SWAP3 POP POP DUP2 SWAP1 SSTORE POP DUP1 PUSH1 0x3 PUSH1 0x0 DUP3 DUP3 SLOAD PUSH2 0x6B0 SWAP2 SWAP1 PUSH2 0xFE0 JUMP JUMPDEST SWAP3 POP POP DUP2 SWAP1 SSTORE POP DUP1 PUSH1 0x1 PUSH1 0x0 DUP3 DUP3 SLOAD PUSH2 0x6C9 SWAP2 SWAP1 PUSH2 0xFE0 JUMP JUMPDEST SWAP1 SWAP2 SSTORE POP POP POP POP JUMP JUMPDEST PUSH1 0x0 DUP1 SLOAD PUSH1 0x1 PUSH1 0x1 PUSH1 0xA0 SHL SUB AND CALLER EQ PUSH2 0x6FD JUMPI PUSH1 0x40 MLOAD PUSH3 0x461BCD PUSH1 0xE5 SHL DUP2 MSTORE PUSH1 0x4 ADD PUSH2 0x3B4 SWAP1 PUSH2 0xF88 JUMP JUMPDEST PUSH1 0x0 PUSH2 0x729 DUP5 PUSH1 0x40 MLOAD PUSH1 0x20 ADD PUSH2 0x715 SWAP2 DUP2 MSTORE PUSH1 0x20 ADD SWAP1 JUMP JUMPDEST PUSH1 0x40 MLOAD PUSH1 0x20 DUP2 DUP4 SUB SUB DUP2 MSTORE SWAP1 PUSH1 0x40 MSTORE PUSH2 0xA12 JUMP JUMPDEST DUP1 MLOAD PUSH1 0x8 SSTORE PUSH1 0x20 DUP2 ADD MLOAD PUSH1 0x9 SSTORE PUSH1 0x40 DUP1 MLOAD PUSH1 0x80 DUP2 ADD SWAP2 DUP3 SWAP1 MSTORE SWAP2 SWAP3 POP PUSH2 0x771 SWAP2 DUP6 SWAP2 PUSH1 0x4 SWAP1 DUP2 SWAP1 DUP2 DUP5 JUMPDEST DUP2 SLOAD DUP2 MSTORE PUSH1 0x20 ADD SWAP1 PUSH1 0x1 ADD SWAP1 DUP1 DUP4 GT PUSH2 0x753 JUMPI POP POP POP POP POP DUP4 PUSH2 0xA2A JUMP JUMPDEST PUSH2 0x7B1 JUMPI PUSH1 0x40 MLOAD PUSH3 0x461BCD PUSH1 0xE5 SHL DUP2 MSTORE PUSH1 0x20 PUSH1 0x4 DUP3 ADD MSTORE PUSH1 0x11 PUSH1 0x24 DUP3 ADD MSTORE PUSH17 0x212629903737BA103B32B934B334B2B217 PUSH1 0x79 SHL PUSH1 0x44 DUP3 ADD MSTORE PUSH1 0x64 ADD PUSH2 0x3B4 JUMP JUMPDEST POP POP PUSH1 0x0 DUP3 DUP2 MSTORE PUSH1 0xC PUSH1 0x20 MSTORE PUSH1 0x40 SWAP1 KECCAK256 PUSH1 0x1 SWAP1 DUP2 ADD DUP1 SLOAD PUSH1 0xFF NOT AND DUP3 OR SWAP1 SSTORE JUMPDEST SWAP3 SWAP2 POP POP JUMP JUMPDEST PUSH1 0x4 DUP2 PUSH1 0x4 DUP2 LT PUSH2 0x405 JUMPI PUSH1 0x0 DUP1 REVERT JUMPDEST PUSH1 0x0 SLOAD PUSH1 0x1 PUSH1 0x1 PUSH1 0xA0 SHL SUB AND CALLER EQ PUSH2 0x811 JUMPI PUSH1 0x40 MLOAD PUSH3 0x461BCD PUSH1 0xE5 SHL DUP2 MSTORE PUSH1 0x4 ADD PUSH2 0x3B4 SWAP1 PUSH2 0xF88 JUMP JUMPDEST PUSH1 0x1 PUSH1 0x1 PUSH1 0xA0 SHL SUB DUP3 AND PUSH1 0x0 SWAP1 DUP2 MSTORE PUSH1 0xA PUSH1 0x20 MSTORE PUSH1 0x40 SWAP1 KECCAK256 SLOAD ISZERO PUSH2 0x877 JUMPI PUSH1 0x40 MLOAD PUSH3 0x461BCD PUSH1 0xE5 SHL DUP2 MSTORE PUSH1 0x20 PUSH1 0x4 DUP3 ADD MSTORE PUSH1 0x1E PUSH1 0x24 DUP3 ADD MSTORE PUSH32 0x466972737420696E766573746D656E7420616C7265616479206D6164652E0000 PUSH1 0x44 DUP3 ADD MSTORE PUSH1 0x64 ADD PUSH2 0x3B4 JUMP JUMPDEST PUSH1 0x1 PUSH1 0x1 PUSH1 0xA0 SHL SUB DUP3 AND PUSH1 0x0 SWAP1 DUP2 MSTORE PUSH1 0xA PUSH1 0x20 MSTORE PUSH1 0x40 DUP2 KECCAK256 DUP3 SWAP1 SSTORE PUSH1 0x1 DUP1 SLOAD DUP4 SWAP3 SWAP1 PUSH2 0x8A4 SWAP1 DUP5 SWAP1 PUSH2 0xFE0 JUMP JUMPDEST SWAP3 POP POP DUP2 SWAP1 SSTORE POP DUP1 PUSH1 0x2 PUSH1 0x0 DUP3 DUP3 SLOAD PUSH2 0x8BD SWAP2 SWAP1 PUSH2 0xFE0 JUMP JUMPDEST SWAP1 SWAP2 SSTORE POP POP PUSH1 0xB DUP1 SLOAD PUSH1 0x1 DUP2 ADD DUP3 SSTORE PUSH1 0x0 SWAP2 SWAP1 SWAP2 MSTORE PUSH32 0x175B7A638427703F0DBE7BB9BBF987A2551717B34E79F33B5B1008D1FA01DB9 ADD DUP1 SLOAD PUSH1 0x1 PUSH1 0x1 PUSH1 0xA0 SHL SUB NOT AND PUSH1 0x1 PUSH1 0x1 PUSH1 0xA0 SHL SUB SWAP4 SWAP1 SWAP4 AND SWAP3 SWAP1 SWAP3 OR SWAP1 SWAP2 SSTORE POP JUMP JUMPDEST DUP1 DUP3 SSTORE PUSH1 0x1 DUP3 ADD DUP1 SLOAD PUSH1 0xFF NOT AND SWAP1 SSTORE PUSH1 0x0 JUMPDEST PUSH1 0xB SLOAD DUP2 LT ISZERO PUSH2 0x998 JUMPI PUSH1 0x0 PUSH1 0xB DUP3 DUP2 SLOAD DUP2 LT PUSH2 0x947 JUMPI PUSH2 0x947 PUSH2 0xFF3 JUMP JUMPDEST PUSH1 0x0 SWAP2 DUP3 MSTORE PUSH1 0x20 DUP3 KECCAK256 ADD SLOAD PUSH1 0x1 PUSH1 0x1 PUSH1 0xA0 SHL SUB AND SWAP2 POP PUSH2 0x966 DUP3 PUSH2 0x52C JUMP JUMPDEST PUSH1 0x1 PUSH1 0x1 PUSH1 0xA0 SHL SUB SWAP1 SWAP3 AND PUSH1 0x0 SWAP1 DUP2 MSTORE PUSH1 0x2 DUP7 ADD PUSH1 0x20 MSTORE PUSH1 0x40 SWAP1 KECCAK256 SWAP2 SWAP1 SWAP2 SSTORE POP DUP1 PUSH2 0x990 DUP2 PUSH2 0x1033 JUMP JUMPDEST SWAP2 POP POP PUSH2 0x928 JUMP JUMPDEST POP POP POP JUMP JUMPDEST PUSH1 0x0 DUP1 DUP1 JUMPDEST PUSH1 0xB SLOAD DUP2 LT ISZERO PUSH2 0xA0C JUMPI PUSH1 0x0 PUSH1 0xB DUP3 DUP2 SLOAD DUP2 LT PUSH2 0x9C1 JUMPI PUSH2 0x9C1 PUSH2 0xFF3 JUMP JUMPDEST PUSH1 0x0 SWAP2 DUP3 MSTORE PUSH1 0x20 DUP1 DUP4 KECCAK256 SWAP1 SWAP2 ADD SLOAD PUSH1 0x1 PUSH1 0x1 PUSH1 0xA0 SHL SUB AND DUP1 DUP4 MSTORE PUSH1 0xA SWAP1 SWAP2 MSTORE PUSH1 0x40 SWAP1 SWAP2 KECCAK256 PUSH1 0x2 ADD SLOAD SWAP1 SWAP2 POP PUSH2 0x9F6 SWAP1 DUP5 PUSH2 0xFE0 JUMP JUMPDEST SWAP3 POP POP DUP1 DUP1 PUSH2 0xA04 SWAP1 PUSH2 0x1033 JUMP JUMPDEST SWAP2 POP POP PUSH2 0x9A2 JUMP JUMPDEST POP SWAP2 SWAP1 POP JUMP JUMPDEST PUSH2 0xA1A PUSH2 0xD90 JUMP JUMPDEST PUSH2 0x7D1 DUP3 DUP1 MLOAD SWAP1 PUSH1 0x20 ADD KECCAK256 PUSH2 0xC10 JUMP JUMPDEST PUSH1 0x0 DUP1 PUSH1 0x40 MLOAD DUP1 PUSH2 0x180 ADD PUSH1 0x40 MSTORE DUP1 DUP7 PUSH1 0x0 PUSH1 0x2 DUP2 LT PUSH2 0xA4C JUMPI PUSH2 0xA4C PUSH2 0xFF3 JUMP JUMPDEST PUSH1 0x20 MUL ADD MLOAD DUP2 MSTORE PUSH1 0x20 ADD DUP7 PUSH1 0x1 PUSH1 0x2 DUP2 LT PUSH2 0xA69 JUMPI PUSH2 0xA69 PUSH2 0xFF3 JUMP JUMPDEST PUSH1 0x20 MUL ADD MLOAD DUP2 MSTORE PUSH1 0x20 ADD PUSH32 0x198E9393920D483A7260BFB731FB5D25F1AA493335A9E71297E485B7AEF312C2 DUP2 MSTORE PUSH1 0x20 ADD PUSH32 0x1800DEEF121F1E76426A00665E5C4479674322D4F75EDADD46DEBD5CD992F6ED DUP2 MSTORE PUSH1 0x20 ADD PUSH32 0x275DC4A288D1AFB3CBB1AC09187524C7DB36395DF7BE3B99E673B13A075A65EC DUP2 MSTORE PUSH1 0x20 ADD PUSH32 0x1D9BEFCD05A5323E6DA4D435F3B617CDB3AF83285C2DF711EF39C01571827F9D DUP2 MSTORE PUSH1 0x20 ADD DUP5 PUSH1 0x0 PUSH1 0x2 DUP2 LT PUSH2 0xB1E JUMPI PUSH2 0xB1E PUSH2 0xFF3 JUMP JUMPDEST PUSH1 0x20 MUL ADD MLOAD DUP2 MSTORE PUSH1 0x20 ADD DUP5 PUSH1 0x1 PUSH1 0x2 DUP2 LT PUSH2 0xB3B JUMPI PUSH2 0xB3B PUSH2 0xFF3 JUMP JUMPDEST PUSH1 0x20 MUL ADD MLOAD DUP2 MSTORE PUSH1 0x20 ADD DUP6 PUSH1 0x1 PUSH1 0x4 DUP2 LT PUSH2 0xB58 JUMPI PUSH2 0xB58 PUSH2 0xFF3 JUMP JUMPDEST PUSH1 0x20 MUL ADD MLOAD DUP2 MSTORE PUSH1 0x20 ADD DUP6 PUSH1 0x0 PUSH1 0x4 DUP2 LT PUSH2 0xB75 JUMPI PUSH2 0xB75 PUSH2 0xFF3 JUMP JUMPDEST PUSH1 0x20 MUL ADD MLOAD DUP2 MSTORE PUSH1 0x20 ADD DUP6 PUSH1 0x3 PUSH1 0x4 DUP2 LT PUSH2 0xB92 JUMPI PUSH2 0xB92 PUSH2 0xFF3 JUMP JUMPDEST PUSH1 0x20 MUL ADD MLOAD DUP2 MSTORE PUSH1 0x20 ADD DUP6 PUSH1 0x2 PUSH1 0x4 DUP2 LT PUSH2 0xBAF JUMPI PUSH2 0xBAF PUSH2 0xFF3 JUMP JUMPDEST PUSH1 0x20 MUL ADD MLOAD SWAP1 MSTORE SWAP1 POP PUSH2 0xBC0 PUSH2 0xDAE JUMP JUMPDEST PUSH1 0x0 PUSH1 0x20 DUP3 PUSH2 0x180 DUP6 PUSH1 0x8 PUSH2 0x7D0 GAS SUB STATICCALL SWAP1 POP DUP1 DUP1 PUSH2 0xBDB JUMPI INVALID JUMPDEST POP DUP1 PUSH2 0xC03 JUMPI PUSH1 0x40 MLOAD PUSH3 0x461BCD PUSH1 0xE5 SHL DUP2 MSTORE PUSH1 0x20 PUSH1 0x4 DUP3 ADD MSTORE PUSH1 0x0 PUSH1 0x24 DUP3 ADD MSTORE PUSH1 0x44 ADD PUSH2 0x3B4 JUMP JUMPDEST POP MLOAD ISZERO ISZERO SWAP6 SWAP5 POP POP POP POP POP JUMP JUMPDEST PUSH2 0xC18 PUSH2 0xD90 JUMP JUMPDEST PUSH1 0x0 PUSH2 0xC32 PUSH1 0x0 DUP1 MLOAD PUSH1 0x20 PUSH2 0x1061 DUP4 CODECOPY DUP2 MLOAD SWAP2 MSTORE DUP5 PUSH2 0x104C JUMP JUMPDEST SWAP1 POP PUSH1 0x0 DUP1 JUMPDEST PUSH1 0x0 DUP1 MLOAD PUSH1 0x20 PUSH2 0x1061 DUP4 CODECOPY DUP2 MLOAD SWAP2 MSTORE DUP4 DUP5 MULMOD SWAP2 POP PUSH1 0x0 DUP1 MLOAD PUSH1 0x20 PUSH2 0x1061 DUP4 CODECOPY DUP2 MLOAD SWAP2 MSTORE DUP4 DUP4 MULMOD SWAP2 POP PUSH1 0x0 DUP1 MLOAD PUSH1 0x20 PUSH2 0x1061 DUP4 CODECOPY DUP2 MLOAD SWAP2 MSTORE PUSH1 0x3 DUP4 ADDMOD SWAP2 POP PUSH2 0xC7E DUP3 PUSH2 0xCBA JUMP JUMPDEST SWAP1 SWAP3 POP SWAP1 POP DUP1 ISZERO PUSH2 0xC98 JUMPI DUP3 DUP5 MSTORE PUSH1 0x20 DUP5 ADD DUP3 SWAP1 MSTORE PUSH2 0xCB2 JUMP JUMPDEST PUSH1 0x0 DUP1 MLOAD PUSH1 0x20 PUSH2 0x1061 DUP4 CODECOPY DUP2 MLOAD SWAP2 MSTORE PUSH1 0x1 DUP5 ADDMOD SWAP3 POP PUSH2 0xC38 JUMP JUMPDEST POP POP POP SWAP2 SWAP1 POP JUMP JUMPDEST PUSH1 0x0 DUP1 PUSH1 0x0 PUSH1 0x40 MLOAD PUSH1 0x20 DUP2 MSTORE PUSH1 0x20 DUP1 DUP3 ADD MSTORE PUSH1 0x20 PUSH1 0x40 DUP3 ADD MSTORE DUP5 PUSH1 0x60 DUP3 ADD MSTORE PUSH32 0xC19139CB84C680A6E14116DA060561765E05AA45A1C72A34F082305B61F3F52 PUSH1 0x80 DUP3 ADD MSTORE PUSH1 0x0 DUP1 MLOAD PUSH1 0x20 PUSH2 0x1061 DUP4 CODECOPY DUP2 MLOAD SWAP2 MSTORE PUSH1 0xA0 DUP3 ADD MSTORE PUSH1 0x20 DUP2 PUSH1 0xC0 DUP4 PUSH1 0x5 PUSH2 0x7D0 GAS SUB STATICCALL SWAP1 MLOAD SWAP4 POP SWAP1 POP PUSH1 0x0 DUP1 MLOAD PUSH1 0x20 PUSH2 0x1061 DUP4 CODECOPY DUP2 MLOAD SWAP2 MSTORE DUP4 DUP1 MULMOD DUP5 EQ SWAP2 POP DUP1 PUSH2 0xD8A JUMPI PUSH1 0x40 MLOAD PUSH3 0x461BCD PUSH1 0xE5 SHL DUP2 MSTORE PUSH1 0x20 PUSH1 0x4 DUP3 ADD MSTORE PUSH1 0x1C PUSH1 0x24 DUP3 ADD MSTORE PUSH32 0x424C533A2073717274206D6F646578702063616C6C206661696C656400000000 PUSH1 0x44 DUP3 ADD MSTORE PUSH1 0x64 ADD PUSH2 0x3B4 JUMP JUMPDEST POP SWAP2 POP SWAP2 JUMP JUMPDEST PUSH1 0x40 MLOAD DUP1 PUSH1 0x40 ADD PUSH1 0x40 MSTORE DUP1 PUSH1 0x2 SWAP1 PUSH1 0x20 DUP3 MUL DUP1 CALLDATASIZE DUP4 CALLDATACOPY POP SWAP2 SWAP3 SWAP2 POP POP JUMP JUMPDEST PUSH1 0x40 MLOAD DUP1 PUSH1 0x20 ADD PUSH1 0x40 MSTORE DUP1 PUSH1 0x1 SWAP1 PUSH1 0x20 DUP3 MUL DUP1 CALLDATASIZE DUP4 CALLDATACOPY POP SWAP2 SWAP3 SWAP2 POP POP JUMP JUMPDEST PUSH1 0x20 DUP1 DUP3 MSTORE DUP3 MLOAD DUP3 DUP3 ADD DUP2 SWAP1 MSTORE PUSH1 0x0 SWAP2 SWAP1 DUP5 DUP3 ADD SWAP1 PUSH1 0x40 DUP6 ADD SWAP1 DUP5 JUMPDEST DUP2 DUP2 LT ISZERO PUSH2 0xE0D JUMPI DUP4 MLOAD PUSH1 0x1 PUSH1 0x1 PUSH1 0xA0 SHL SUB AND DUP4 MSTORE SWAP3 DUP5 ADD SWAP3 SWAP2 DUP5 ADD SWAP2 PUSH1 0x1 ADD PUSH2 0xDE8 JUMP JUMPDEST POP SWAP1 SWAP7 SWAP6 POP POP POP POP POP POP JUMP JUMPDEST PUSH1 0x0 PUSH1 0x20 DUP3 DUP5 SUB SLT ISZERO PUSH2 0xE2B JUMPI PUSH1 0x0 DUP1 REVERT JUMPDEST POP CALLDATALOAD SWAP2 SWAP1 POP JUMP JUMPDEST DUP1 CALLDATALOAD PUSH1 0x1 PUSH1 0x1 PUSH1 0xA0 SHL SUB DUP2 AND DUP2 EQ PUSH2 0xE49 JUMPI PUSH1 0x0 DUP1 REVERT JUMPDEST SWAP2 SWAP1 POP JUMP JUMPDEST PUSH1 0x0 DUP1 PUSH1 0x40 DUP4 DUP6 SUB SLT ISZERO PUSH2 0xE61 JUMPI PUSH1 0x0 DUP1 REVERT JUMPDEST PUSH2 0xE6A DUP4 PUSH2 0xE32 JUMP JUMPDEST SWAP5 PUSH1 0x20 SWAP4 SWAP1 SWAP4 ADD CALLDATALOAD SWAP4 POP POP POP JUMP JUMPDEST PUSH1 0x0 PUSH1 0x20 DUP3 DUP5 SUB SLT ISZERO PUSH2 0xE8A JUMPI PUSH1 0x0 DUP1 REVERT JUMPDEST PUSH2 0xE93 DUP3 PUSH2 0xE32 JUMP JUMPDEST SWAP4 SWAP3 POP POP POP JUMP JUMPDEST PUSH1 0x0 PUSH1 0x80 DUP3 DUP5 SUB SLT ISZERO PUSH2 0xEAC JUMPI PUSH1 0x0 DUP1 REVERT JUMPDEST DUP3 PUSH1 0x80 DUP4 ADD GT ISZERO PUSH2 0xA0C JUMPI PUSH1 0x0 DUP1 REVERT JUMPDEST PUSH4 0x4E487B71 PUSH1 0xE0 SHL PUSH1 0x0 MSTORE PUSH1 0x41 PUSH1 0x4 MSTORE PUSH1 0x24 PUSH1 0x0 REVERT JUMPDEST PUSH1 0x0 DUP1 PUSH1 0x60 DUP4 DUP6 SUB SLT ISZERO PUSH2 0xEE5 JUMPI PUSH1 0x0 DUP1 REVERT JUMPDEST DUP3 CALLDATALOAD SWAP2 POP PUSH1 0x20 DUP5 PUSH1 0x3F DUP6 ADD SLT PUSH2 0xEFA JUMPI PUSH1 0x0 DUP1 REVERT JUMPDEST PUSH1 0x40 MLOAD PUSH1 0x40 DUP2 ADD DUP2 DUP2 LT PUSH8 0xFFFFFFFFFFFFFFFF DUP3 GT OR ISZERO PUSH2 0xF1D JUMPI PUSH2 0xF1D PUSH2 0xEBC JUMP JUMPDEST PUSH1 0x40 MSTORE DUP1 PUSH1 0x60 DUP7 ADD DUP8 DUP2 GT ISZERO PUSH2 0xF32 JUMPI PUSH1 0x0 DUP1 REVERT JUMPDEST DUP4 DUP8 ADD JUMPDEST DUP2 DUP2 LT ISZERO PUSH2 0xF4D JUMPI DUP1 CALLDATALOAD DUP4 MSTORE SWAP2 DUP5 ADD SWAP2 DUP5 ADD PUSH2 0xF36 JUMP JUMPDEST POP POP POP DUP1 SWAP3 POP POP POP SWAP3 POP SWAP3 SWAP1 POP JUMP JUMPDEST PUSH1 0x0 DUP1 PUSH1 0x40 DUP4 DUP6 SUB SLT ISZERO PUSH2 0xF6F JUMPI PUSH1 0x0 DUP1 REVERT JUMPDEST DUP3 CALLDATALOAD SWAP2 POP PUSH2 0xF7F PUSH1 0x20 DUP5 ADD PUSH2 0xE32 JUMP JUMPDEST SWAP1 POP SWAP3 POP SWAP3 SWAP1 POP JUMP JUMPDEST PUSH1 0x20 DUP1 DUP3 MSTORE PUSH1 0x22 SWAP1 DUP3 ADD MSTORE PUSH32 0x4F6E6C79206F776E65722063616E2063616C6C20746869732066756E6374696F PUSH1 0x40 DUP3 ADD MSTORE PUSH2 0x3717 PUSH1 0xF1 SHL PUSH1 0x60 DUP3 ADD MSTORE PUSH1 0x80 ADD SWAP1 JUMP JUMPDEST PUSH4 0x4E487B71 PUSH1 0xE0 SHL PUSH1 0x0 MSTORE PUSH1 0x11 PUSH1 0x4 MSTORE PUSH1 0x24 PUSH1 0x0 REVERT JUMPDEST DUP1 DUP3 ADD DUP1 DUP3 GT ISZERO PUSH2 0x7D1 JUMPI PUSH2 0x7D1 PUSH2 0xFCA JUMP JUMPDEST PUSH4 0x4E487B71 PUSH1 0xE0 SHL PUSH1 0x0 MSTORE PUSH1 0x32 PUSH1 0x4 MSTORE PUSH1 0x24 PUSH1 0x0 REVERT JUMPDEST PUSH4 0x4E487B71 PUSH1 0xE0 SHL PUSH1 0x0 MSTORE PUSH1 0x12 PUSH1 0x4 MSTORE PUSH1 0x24 PUSH1 0x0 REVERT JUMPDEST PUSH1 0x0 DUP3 PUSH2 0x102E JUMPI PUSH2 0x102E PUSH2 0x1009 JUMP JUMPDEST POP DIV SWAP1 JUMP JUMPDEST PUSH1 0x0 PUSH1 0x1 DUP3 ADD PUSH2 0x1045 JUMPI PUSH2 0x1045 PUSH2 0xFCA JUMP JUMPDEST POP PUSH1 0x1 ADD SWAP1 JUMP JUMPDEST PUSH1 0x0 DUP3 PUSH2 0x105B JUMPI PUSH2 0x105B PUSH2 0x1009 JUMP JUMPDEST POP MOD SWAP1 JUMP INVALID ADDRESS PUSH5 0x4E72E131A0 0x29 0xB8 POP GASLIMIT 0xB6 DUP2 DUP2 PC 0x5D SWAP8 DUP2 PUSH11 0x916871CA8D3C208C16D87C REVERT SELFBALANCE LOG2 PUSH5 0x6970667358 0x22 SLT KECCAK256 0xB0 DUP11 0xB9 PUSH10 0xCFAE10995E700B4402BB 0xE DUP5 EQ 0xDA 0xCD GAS 0x23 0xAA 0xAA 0x4B 0x1E 0xC6 DUP4 PUSH11 0x9DD6F56564736F6C634300 ADDMOD SGT STOP CALLER ",
  "sha1": "870ea7daaab0aeacc8d5598243901287803049b5",
  "source": "// SPDX-License-Identifier: GPL-3.0\n\npragma solidity ^0.8.18;\n\nimport {BLS} from \"./BLS.sol\";\n\ncontract Dividends {\n    address public owner;\n    uint256 public totalInvestment;\n    uint256 public totalFirstInvestment;\n    uint256 public totalSecondInvestment;\n    uint256[4] public aggBlsPublicKey;\n    uint256[2] public tempMemHash;\n    \n    struct Shareholder {\n        uint256 firstInvestment;\n        uint256 secondInvestment;\n        uint256 income;\n    }\n\n    struct DividendProposal {\n        uint256 id;\n        bool hasVerified;\n        mapping(address => uint256) shareholderDividends;\n    }\n\n    mapping(address => Shareholder) public shareholders;\n    address[] public shareholderAddresses;\n    mapping(uint256 => DividendProposal) public proposals;\n    uint256 public proposalCount;\n\n    modifier onlyOwner() {\n        require(msg.sender == owner, \"Only owner can call this function.\");\n        _;\n    }\n\n    constructor() {\n        owner = msg.sender;\n        proposalCount = 0;\n    }\n\n    function addFirstInvestment(address _shareholder, uint256 _amount) public onlyOwner {\n        require(shareholders[_shareholder].firstInvestment == 0, \"First investment already made.\");\n        shareholders[_shareholder].firstInvestment = _amount;\n        totalInvestment += _amount;\n        totalFirstInvestment += _amount;\n        shareholderAddresses.push(_shareholder);\n    }\n\n    function addSecondInvestment(address _shareholder, uint256 _amount) public {\n        require(shareholders[_shareholder].firstInvestment > 0, \"First investment not made yet.\");\n        shareholders[_shareholder].secondInvestment += _amount;\n        totalSecondInvestment += _amount;\n        totalInvestment += _amount;\n    }\n\n    function setShareholderIncome(address _shareholder, uint256 _income) public onlyOwner {\n        require(shareholders[_shareholder].firstInvestment > 0, \"First investment not made yet.\");\n        shareholders[_shareholder].income = _income;\n    }\n\n    function setAggBlsPublicKey(uint256[4] calldata _bls_public_key) public onlyOwner {\n        aggBlsPublicKey[0] = _bls_public_key[0];\n        aggBlsPublicKey[1] = _bls_public_key[1];\n        aggBlsPublicKey[2] = _bls_public_key[2];\n        aggBlsPublicKey[3] = _bls_public_key[3];\n    }\n    \n    function calculateTotalIncome() private view returns (uint256) {\n        uint256 totalIncome = 0;\n        for (uint256 i = 0; i < shareholderAddresses.length; i++) {\n            address _shareholder = shareholderAddresses[i];\n            totalIncome += shareholders[_shareholder].income;\n        }\n        return totalIncome;\n    }\n\n    function calculateDividends(address _shareholder) public view returns (uint256) {\n        Shareholder memory s = shareholders[_shareholder];\n        uint256 totalIncome = calculateTotalIncome();\n        uint256 conversionShares = (s.firstInvestment/totalFirstInvestment) / 2;\n        uint256 conversionEarnings = 0;\n        if (totalIncome != 0) {\n            conversionEarnings = s.income / totalIncome;\n        }\n        uint256 secondInvestmentRatio = (s.secondInvestment) / totalInvestment;\n        uint256 actualDividends = (conversionShares / 4) + (conversionEarnings / 2) + (secondInvestmentRatio / 4);\n        return actualDividends;\n    }\n\n    function createProposalStruct (DividendProposal storage proposal, uint256 _id) internal {\n        proposal.id = _id;\n        proposal.hasVerified = false;\n        for (uint256 i = 0; i < shareholderAddresses.length; i++) {\n            address shareholder = shareholderAddresses[i];\n            uint256 dividends = calculateDividends(shareholder);\n            proposal.shareholderDividends[shareholder] = dividends;\n        }\n    }\n\n    function createProposal() public onlyOwner {\n        DividendProposal storage newProposal = proposals[proposalCount];\n        createProposalStruct(newProposal, proposalCount);\n        proposalCount += 1;\n    }\n\n    function verifyProposal(uint256 _proposalId,\n                            uint256[2] memory _aggSignature) public onlyOwner returns (bool) {\n        uint256[2] memory _memHash = BLS.hashToPoint(abi.encodePacked(_proposalId));\n        tempMemHash[0] = _memHash[0];\n        tempMemHash[1] = _memHash[1];\n        require(BLS.verifySingle(_aggSignature, aggBlsPublicKey, _memHash), \"BLS not verified.\");\n        proposals[_proposalId].hasVerified = true;\n        return true;\n    }\n                             \n    function getShareholderAddresses() public view returns (address[] memory) {\n        return shareholderAddresses;\n    }\n\n    function getShareholderDividends(uint256 _proposalId, address _shareholder) public view returns (uint256) {\n        return proposals[_proposalId].shareholderDividends[_shareholder];\n    }\n    \n}\n",
  "sourcePath": "contracts/Dividends.sol",
  "type": "contract"
}