{
  "abi": [
    {
      "inputs": [
        {
          "internalType": "bytes",
          "name": "data",
          "type": "bytes"
        }
      ],
      "name": "hashToPoint",
      "outputs": [
        {
          "internalType": "uint256[2]",
          "name": "p",
          "type": "uint256[2]"
        }
      ],
      "stateMutability": "view",
      "type": "function"
    },
    {
      "inputs": [
        {
          "internalType": "bytes",
          "name": "data",
          "type": "bytes"
        }
      ],
      "name": "hashToPointGasCost",
      "outputs": [
        {
          "internalType": "uint256",
          "name": "p",
          "type": "uint256"
        }
      ],
      "stateMutability": "view",
      "type": "function"
    },
    {
      "inputs": [
        {
          "internalType": "uint256",
          "name": "e",
          "type": "uint256"
        }
      ],
      "name": "isNonResidueFP",
      "outputs": [
        {
          "internalType": "bool",
          "name": "",
          "type": "bool"
        }
      ],
      "stateMutability": "view",
      "type": "function"
    },
    {
      "inputs": [
        {
          "internalType": "uint256[2]",
          "name": "e",
          "type": "uint256[2]"
        }
      ],
      "name": "isNonResidueFP2",
      "outputs": [
        {
          "internalType": "bool",
          "name": "",
          "type": "bool"
        }
      ],
      "stateMutability": "view",
      "type": "function"
    },
    {
      "inputs": [
        {
          "internalType": "uint256[2]",
          "name": "e",
          "type": "uint256[2]"
        }
      ],
      "name": "isNonResidueFP2GasCost",
      "outputs": [
        {
          "internalType": "uint256",
          "name": "",
          "type": "uint256"
        }
      ],
      "stateMutability": "nonpayable",
      "type": "function"
    },
    {
      "inputs": [
        {
          "internalType": "uint256",
          "name": "e",
          "type": "uint256"
        }
      ],
      "name": "isNonResidueFPGasCost",
      "outputs": [
        {
          "internalType": "uint256",
          "name": "",
          "type": "uint256"
        }
      ],
      "stateMutability": "nonpayable",
      "type": "function"
    },
    {
      "inputs": [
        {
          "internalType": "uint256[2]",
          "name": "point",
          "type": "uint256[2]"
        }
      ],
      "name": "isOnCurveG1",
      "outputs": [
        {
          "internalType": "bool",
          "name": "",
          "type": "bool"
        }
      ],
      "stateMutability": "pure",
      "type": "function"
    },
    {
      "inputs": [
        {
          "internalType": "uint256",
          "name": "point",
          "type": "uint256"
        }
      ],
      "name": "isOnCurveG1Compressed",
      "outputs": [
        {
          "internalType": "bool",
          "name": "",
          "type": "bool"
        }
      ],
      "stateMutability": "view",
      "type": "function"
    },
    {
      "inputs": [
        {
          "internalType": "uint256",
          "name": "point",
          "type": "uint256"
        }
      ],
      "name": "isOnCurveG1CompressedGasCost",
      "outputs": [
        {
          "internalType": "uint256",
          "name": "",
          "type": "uint256"
        }
      ],
      "stateMutability": "nonpayable",
      "type": "function"
    },
    {
      "inputs": [
        {
          "internalType": "uint256[2]",
          "name": "point",
          "type": "uint256[2]"
        }
      ],
      "name": "isOnCurveG1GasCost",
      "outputs": [
        {
          "internalType": "uint256",
          "name": "",
          "type": "uint256"
        }
      ],
      "stateMutability": "nonpayable",
      "type": "function"
    },
    {
      "inputs": [
        {
          "internalType": "uint256[4]",
          "name": "point",
          "type": "uint256[4]"
        }
      ],
      "name": "isOnCurveG2",
      "outputs": [
        {
          "internalType": "bool",
          "name": "",
          "type": "bool"
        }
      ],
      "stateMutability": "pure",
      "type": "function"
    },
    {
      "inputs": [
        {
          "internalType": "uint256[2]",
          "name": "point",
          "type": "uint256[2]"
        }
      ],
      "name": "isOnCurveG2Compressed",
      "outputs": [
        {
          "internalType": "bool",
          "name": "",
          "type": "bool"
        }
      ],
      "stateMutability": "view",
      "type": "function"
    },
    {
      "inputs": [
        {
          "internalType": "uint256[2]",
          "name": "point",
          "type": "uint256[2]"
        }
      ],
      "name": "isOnCurveG2CompressedGasCost",
      "outputs": [
        {
          "internalType": "uint256",
          "name": "",
          "type": "uint256"
        }
      ],
      "stateMutability": "view",
      "type": "function"
    },
    {
      "inputs": [
        {
          "internalType": "uint256[4]",
          "name": "point",
          "type": "uint256[4]"
        }
      ],
      "name": "isOnCurveG2GasCost",
      "outputs": [
        {
          "internalType": "uint256",
          "name": "",
          "type": "uint256"
        }
      ],
      "stateMutability": "view",
      "type": "function"
    },
    {
      "inputs": [
        {
          "internalType": "uint256[4]",
          "name": "point",
          "type": "uint256[4]"
        }
      ],
      "name": "isOnSubgroupG2DLZZ",
      "outputs": [
        {
          "internalType": "bool",
          "name": "",
          "type": "bool"
        }
      ],
      "stateMutability": "view",
      "type": "function"
    },
    {
      "inputs": [
        {
          "internalType": "uint256[4]",
          "name": "point",
          "type": "uint256[4]"
        }
      ],
      "name": "isOnSubgroupG2DLZZGasCost",
      "outputs": [
        {
          "internalType": "uint256",
          "name": "",
          "type": "uint256"
        }
      ],
      "stateMutability": "view",
      "type": "function"
    },
    {
      "inputs": [
        {
          "internalType": "uint256[4]",
          "name": "point",
          "type": "uint256[4]"
        }
      ],
      "name": "isOnSubgroupG2Naive",
      "outputs": [
        {
          "internalType": "bool",
          "name": "",
          "type": "bool"
        }
      ],
      "stateMutability": "view",
      "type": "function"
    },
    {
      "inputs": [
        {
          "internalType": "uint256[4]",
          "name": "point",
          "type": "uint256[4]"
        }
      ],
      "name": "isOnSubgroupG2NaiveGasCost",
      "outputs": [
        {
          "internalType": "uint256",
          "name": "",
          "type": "uint256"
        }
      ],
      "stateMutability": "view",
      "type": "function"
    },
    {
      "inputs": [
        {
          "internalType": "uint256[2]",
          "name": "compressed",
          "type": "uint256[2]"
        }
      ],
      "name": "isValidCompressedPublicKey",
      "outputs": [
        {
          "internalType": "bool",
          "name": "",
          "type": "bool"
        }
      ],
      "stateMutability": "view",
      "type": "function"
    },
    {
      "inputs": [
        {
          "internalType": "uint256",
          "name": "compressed",
          "type": "uint256"
        }
      ],
      "name": "isValidCompressedSignature",
      "outputs": [
        {
          "internalType": "bool",
          "name": "",
          "type": "bool"
        }
      ],
      "stateMutability": "view",
      "type": "function"
    },
    {
      "inputs": [
        {
          "internalType": "uint256[2]",
          "name": "compressed",
          "type": "uint256[2]"
        },
        {
          "internalType": "uint256[2]",
          "name": "y",
          "type": "uint256[2]"
        }
      ],
      "name": "pubkeyToUncompresed",
      "outputs": [
        {
          "internalType": "uint256[4]",
          "name": "uncompressed",
          "type": "uint256[4]"
        }
      ],
      "stateMutability": "pure",
      "type": "function"
    },
    {
      "inputs": [
        {
          "internalType": "uint256",
          "name": "compressed",
          "type": "uint256"
        },
        {
          "internalType": "uint256",
          "name": "y",
          "type": "uint256"
        }
      ],
      "name": "signatureToUncompresed",
      "outputs": [
        {
          "internalType": "uint256[2]",
          "name": "uncompressed",
          "type": "uint256[2]"
        }
      ],
      "stateMutability": "pure",
      "type": "function"
    },
    {
      "inputs": [
        {
          "internalType": "uint256[2]",
          "name": "pubKeyG1",
          "type": "uint256[2]"
        },
        {
          "internalType": "uint256[4]",
          "name": "pubkey",
          "type": "uint256[4]"
        }
      ],
      "name": "verifyHelpedAggregationPublicKeys",
      "outputs": [
        {
          "internalType": "bool",
          "name": "",
          "type": "bool"
        }
      ],
      "stateMutability": "view",
      "type": "function"
    },
    {
      "inputs": [
        {
          "internalType": "uint256[2]",
          "name": "pubKeyG1",
          "type": "uint256[2]"
        },
        {
          "internalType": "uint256[4][]",
          "name": "pubkeys",
          "type": "uint256[4][]"
        }
      ],
      "name": "verifyHelpedAggregationPublicKeysMultiple",
      "outputs": [
        {
          "internalType": "bool",
          "name": "",
          "type": "bool"
        }
      ],
      "stateMutability": "view",
      "type": "function"
    },
    {
      "inputs": [
        {
          "internalType": "uint256[2]",
          "name": "aggregated_p1",
          "type": "uint256[2]"
        },
        {
          "internalType": "uint256[4]",
          "name": "aggregated_g2",
          "type": "uint256[4]"
        },
        {
          "internalType": "bytes",
          "name": "data",
          "type": "bytes"
        },
        {
          "internalType": "uint256[2]",
          "name": "signature",
          "type": "uint256[2]"
        }
      ],
      "name": "verifyHelpedAggregationPublicKeysRec",
      "outputs": [
        {
          "internalType": "bool",
          "name": "",
          "type": "bool"
        }
      ],
      "stateMutability": "view",
      "type": "function"
    },
    {
      "inputs": [
        {
          "internalType": "uint256[2]",
          "name": "signature",
          "type": "uint256[2]"
        },
        {
          "internalType": "uint256[4][]",
          "name": "pubkeys",
          "type": "uint256[4][]"
        },
        {
          "internalType": "uint256[2][]",
          "name": "messages",
          "type": "uint256[2][]"
        }
      ],
      "name": "verifyMultiple",
      "outputs": [
        {
          "internalType": "bool",
          "name": "",
          "type": "bool"
        }
      ],
      "stateMutability": "view",
      "type": "function"
    },
    {
      "inputs": [
        {
          "internalType": "uint256[2]",
          "name": "signature",
          "type": "uint256[2]"
        },
        {
          "internalType": "uint256[4][]",
          "name": "pubkeys",
          "type": "uint256[4][]"
        },
        {
          "internalType": "uint256[2][]",
          "name": "messages",
          "type": "uint256[2][]"
        }
      ],
      "name": "verifyMultipleGasCost",
      "outputs": [
        {
          "internalType": "uint256",
          "name": "",
          "type": "uint256"
        }
      ],
      "stateMutability": "view",
      "type": "function"
    },
    {
      "inputs": [
        {
          "internalType": "uint256[2]",
          "name": "signature",
          "type": "uint256[2]"
        },
        {
          "internalType": "uint256[4]",
          "name": "pubkey",
          "type": "uint256[4]"
        },
        {
          "internalType": "uint256[2]",
          "name": "message",
          "type": "uint256[2]"
        }
      ],
      "name": "verifySingle",
      "outputs": [
        {
          "internalType": "bool",
          "name": "",
          "type": "bool"
        }
      ],
      "stateMutability": "view",
      "type": "function"
    },
    {
      "inputs": [
        {
          "internalType": "uint256[2]",
          "name": "signature",
          "type": "uint256[2]"
        },
        {
          "internalType": "uint256[4]",
          "name": "pubkey",
          "type": "uint256[4]"
        },
        {
          "internalType": "uint256[2]",
          "name": "message",
          "type": "uint256[2]"
        }
      ],
      "name": "verifySingleGasCost",
      "outputs": [
        {
          "internalType": "uint256",
          "name": "",
          "type": "uint256"
        }
      ],
      "stateMutability": "view",
      "type": "function"
    }
  ],
  "bytecode": "608060405234801561001057600080fd5b506137f1806100206000396000f3fe608060405234801561001057600080fd5b50600436106101cf5760003560e01c8063700dc39a1161010457806391413763116100a2578063e82a0dfd11610071578063e82a0dfd146103ec578063ebbdac91146103ff578063f682d19f14610412578063fde7214f1461042557600080fd5b806391413763146103a0578063959379b7146103b3578063a198cbfc146103c6578063e242cce9146103d957600080fd5b806380395500116100de57806380395500146103475780638093a8251461035a5780638e8c09301461036d5780638ea05e5b1461038057600080fd5b8063700dc39a1461030e578063760b9d50146103215780637b9ecf3e1461033457600080fd5b806348de698111610171578063584d028e1161014b578063584d028e146102c25780635f93cd65146102d55780636240b88d146102e857806366d90f75146102fb57600080fd5b806348de6981146102895780634b5277831461029c5780634f1ff5ca146102af57600080fd5b80632f06a1e3116101ad5780632f06a1e3146102305780633033cc5114610243578063373ce215146102635780633a6110861461027657600080fd5b80630d1abfdf146101d4578063115000fe146101fa57806322bf7de71461021d575b600080fd5b6101e76101e2366004612ff6565b610438565b6040519081526020015b60405180910390f35b61020d6102083660046130ba565b61056c565b60405190151581526020016101f1565b6101e761022b3660046130d6565b6105a6565b6101e761023e36600461311d565b610650565b610256610251366004613139565b610696565b6040516101f191906131ab565b61020d6102713660046131dc565b6106dd565b61020d6102843660046130ba565b6106e8565b6101e761029736600461311d565b61071c565b61020d6102aa3660046132f5565b61074f565b61020d6102bd3660046133bd565b61075b565b6101e76102d03660046130ba565b610769565b61020d6102e336600461311d565b6107a1565b61020d6102f636600461311d565b6107d0565b61020d6103093660046131dc565b610801565b61020d61031c366004613489565b61080c565b6101e761032f3660046130ba565b610818565b6101e7610342366004613139565b610850565b61020d61035536600461311d565b6108a9565b6101e76103683660046131dc565b6108d8565b61020d61037b3660046130ba565b6108e7565b61039361038e3660046134be565b61091b565b6040516101f191906134ea565b61020d6103ae366004612ff6565b610970565b6102566103c1366004613512565b610a60565b6101e76103d43660046130ba565b610a72565b61020d6103e736600461311d565b610aaa565b6101e76103fa3660046131dc565b610ad9565b61020d61040d3660046130d6565b610ae8565b61020d6104203660046131dc565b610b5e565b6101e761043336600461311d565b610b73565b6000805a6040805180820182529192506105319190899060029083908390808284376000920182905250604080516020808d02820181019092528b815293508b92508a91829185015b828210156104c25760408051608081810190925290808402870190600490839083908082843760009201919091525050508152600190910190602001610481565b50505050508686808060200260200160405190810160405280939291908181526020016000905b8282101561052757604080518082018252908084028701906002908390839080828437600092019190915250505081526001909101906020016104e9565b5050505050610ba6565b6105565760405162461bcd60e51b815260040161054d90613534565b60405180910390fd5b5a6105619082613590565b979650505050505050565b60006105a0826004806020026040519081016040528092919082600460200280828437600092019190915250611093915050565b92915050565b6000805a60408051808201825291925061062091908790600290839083908082843760009201919091525050604080516080818101909252915087906004908390839080828437600092019190915250506040805180820182529150879060029083908390808284376000920191909152506111fa915050565b61063c5760405162461bcd60e51b815260040161054d90613534565b5a6106479082613590565b95945050505050565b6000805a6040805180820182529192506106839190859060029083908390808284376000920191909152506113bc915050565b505a61068f9082613590565b9392505050565b61069e612f0a565b61068f83838080601f01602080910402602001604051908101604052809392919081815260200183838082843760009201919091525061141b92505050565b60006105a082611433565b60006105a08260048060200260405190810160405280929190826004602002808284376000920191909152506114f2915050565b6000805a604080518082018252919250610683919085906002908390839080828437600092019190915250611572915050565b600061068f8383611667565b600061064785858585611aa5565b6000805a90506106838360048060200260405190810160405280929190826004602002808284376000920191909152506114f2915050565b6040805180820182526000916105a0919084906002908390839080828437600092019190915250611bbe915050565b604080518082019091526001600160ff1b038235811680835260208085013590840181905260009361064790611c40565b60006105a082611da9565b600061068f8383611ded565b6000805a9050610683836004806020026040519081016040528092919082600460200280828437600092019190915250611093915050565b6000805a905061089584848080601f01602080910402602001604051908101604052809392919081815260200183838082843760009201919091525061141b92505050565b505a6108a19082613590565b949350505050565b6040805180820182526000916105a0919084906002908390839080828437600092019190915250611572915050565b6000805a905061068383611433565b60006105a0826004806020026040519081016040528092919082600460200280828437600092019190915250611fa1915050565b610923612f28565b60408051808201825261068f918590600290839083908082843760009201919091525050604080518082018252915085906002908390839080828437600092019190915250612174915050565b604080518082018252600091610a569190889060029083908390808284376000920182905250604080516020808c02820181019092528a815293508a92508991829185015b828210156109f657604080516080818101909252908084028701906004908390839080828437600092019190915250505081526001909101906020016109b5565b5050604080516020808b0282018101909252898152935089925088915081906000908501821561052757604080518082018252908084028701906002908390839080828437600092019190915250505081526001909101906020016104e9565b9695505050505050565b610a68612f0a565b61068f83836121df565b6000805a9050610683836004806020026040519081016040528092919082600460200280828437600092019190915250611fa1915050565b6040805180820182526000916105a09190849060029083908390808284376000920191909152506113bc915050565b6000805a90506106838361223f565b6040805180820182526000916108a191908690600290839083908082843760009201919091525050604080516080818101909252915086906004908390839080828437600092019190915250506040805180820182529150869060029083908390808284376000920191909152506111fa915050565b60006001600160ff1b0361068f83821661223f565b6000805a604080518082018252919250610683919085906002908390839080828437600092019190915250611c40915050565b815160009080610bc85760405162461bcd60e51b815260040161054d906135b9565b82518114610c365760405162461bcd60e51b815260206004820152603560248201527f424c533a206e756d626572206f66207075626c6963206b65797320616e64206d604482015274195cdcd859d95cc81b5d5cdd08189948195c5d585b605a1b606482015260840161054d565b6000610c438260016135fa565b610c4e90600661360d565b905060008167ffffffffffffffff811115610c6b57610c6b6131f5565b604051908082528060200260200182016040528015610c94578160200160208202803683370190505b509050866000602002015181600081518110610cb257610cb26135a3565b6020908102919091010152866001602002015181600181518110610cd857610cd86135a3565b60200260200101818152505060008051602061375c83398151915281600281518110610d0657610d066135a3565b60200260200101818152505060008051602061373c83398151915281600381518110610d3457610d346135a3565b6020026020010181815250507f275dc4a288d1afb3cbb1ac09187524c7db36395df7be3b99e673b13a075a65ec81600481518110610d7457610d746135a3565b6020026020010181815250507f1d9befcd05a5323e6da4d435f3b617cdb3af83285c2df711ef39c01571827f9d81600581518110610db457610db46135a3565b60200260200101818152505060005b8381101561103457858181518110610ddd57610ddd6135a3565b6020026020010151600060028110610df757610df76135a3565b602002015182610e0883600661360d565b610e139060066135fa565b81518110610e2357610e236135a3565b602002602001018181525050858181518110610e4157610e416135a3565b6020026020010151600160028110610e5b57610e5b6135a3565b602002015182610e6c83600661360d565b610e779060076135fa565b81518110610e8757610e876135a3565b602002602001018181525050868181518110610ea557610ea56135a3565b6020026020010151600160048110610ebf57610ebf6135a3565b602002015182610ed083600661360d565b610edb9060086135fa565b81518110610eeb57610eeb6135a3565b602002602001018181525050868181518110610f0957610f096135a3565b6020026020010151600060048110610f2357610f236135a3565b602002015182610f3483600661360d565b610f3f9060096135fa565b81518110610f4f57610f4f6135a3565b602002602001018181525050868181518110610f6d57610f6d6135a3565b6020026020010151600360048110610f8757610f876135a3565b602002015182610f9883600661360d565b610fa390600a6135fa565b81518110610fb357610fb36135a3565b602002602001018181525050868181518110610fd157610fd16135a3565b6020026020010151600260048110610feb57610feb6135a3565b602002015182610ffc83600661360d565b61100790600b6135fa565b81518110611017576110176135a3565b60209081029190910101528061102c81613624565b915050610dc3565b5061103d612f46565b6000602082602086026020860160086107d05a03fa9050808061105c57fe5b50806110845760405162461bcd60e51b8152602060048201526000602482015260440161054d565b50511515979650505050505050565b60008151602083015160008051602061377c83398151915282830960008051602061377c833981519152828309818283010160008051602061377c833981519152828384010860008051602061377c833981519152868260008051602061377c8339815191520386010993505060008051602061377c833981519152848360008051602061377c83398151915203830109915060008051602061377c8339815191527f2b149d40ceb8aaae81be18991be06ac3b5b4c5e559dbefa33267e6dc24a138e58408945060008051602061377c8339815191527e9713b03af0fed4cd2cafadeed8fdf4a74fa084e52d1852e4a2bd0685c315d283089350604087015192506060870151915060008051602061377c833981519152808360008051602061377c83398151915203850860008051602061377c83398151915284860809905060008051602061377c833981519152828460011b0994149290931491909116949350505050565b6000806040518061018001604052808660006002811061121c5761121c6135a3565b6020020151815260200186600160028110611239576112396135a3565b6020020151815260200160008051602061375c833981519152815260200160008051602061373c83398151915281526020017f275dc4a288d1afb3cbb1ac09187524c7db36395df7be3b99e673b13a075a65ec81526020017f1d9befcd05a5323e6da4d435f3b617cdb3af83285c2df711ef39c01571827f9d8152602001846000600281106112ca576112ca6135a3565b60200201518152602001846001600281106112e7576112e76135a3565b6020020151815260200185600160048110611304576113046135a3565b6020020151815260200185600060048110611321576113216135a3565b602002015181526020018560036004811061133e5761133e6135a3565b602002015181526020018560026004811061135b5761135b6135a3565b60200201519052905061136c612f46565b60006020826101808560086107d05a03fa9050808061138757fe5b50806113af5760405162461bcd60e51b8152602060048201526000602482015260440161054d565b5051151595945050505050565b60008151602083015160008051602061377c83398151915282830960008051602061377c833981519152838209905060008051602061377c83398151915260038208905060008051602061377c83398151915282830914949350505050565b611423612f0a565b6105a082805190602001206122dd565b600080604051602081526020808201526020604082015283606082015260008051602061379c833981519152608082015260008051602061377c83398151915260a082015260208160c08360056107d05a03fa905160011492509050806114eb5760405162461bcd60e51b815260206004820152602660248201527f424c533a2069734e6f6e526573696475654650206d6f646578702063616c6c2060448201526519985a5b195960d21b606482015260840161054d565b5015919050565b80516020820151604083015160608401516000939291908480808061153a7f30644e72e131a029b85045b68181585d2833e84879b9709143e1f593f000000189898989612387565b9296509094509250905083158015611550575082155b801561155a575081155b8015611564575080155b9a9950505050505050505050565b6020810151600090819060008051602061377c8339815191529081908009845160008051602061377c8339815191529080090890506000604051602081526020808201526020604082015282606082015260008051602061379c833981519152608082015260008051602061377c83398151915260a082015260208160c08360056107d05a03fa9051600114935090508061165f5760405162461bcd60e51b815260206004820152602760248201527f424c533a2069734e6f6e52657369647565465032206d6f646578702063616c6c6044820152660819985a5b195960ca1b606482015260840161054d565b505015919050565b8051600090806116895760405162461bcd60e51b815260040161054d906135b9565b60006116968260016135fa565b6116a190600661360d565b905060008167ffffffffffffffff8111156116be576116be6131f5565b6040519080825280602002602001820160405280156116e7578160200160208202803683370190505b509050856000602002015181600081518110611705576117056135a3565b602090810291909101015285600160200201518160018151811061172b5761172b6135a3565b60200260200101818152505060008051602061375c83398151915281600281518110611759576117596135a3565b60200260200101818152505060008051602061373c83398151915281600381518110611787576117876135a3565b6020026020010181815250507f090689d0585ff075ec9e99ad690c3395bc4b313370b38ef355acdadcd122975b816004815181106117c7576117c76135a3565b6020026020010181815250507f12c85ea5db8c6deb4aab71808dcb408fe3d1e7690c43d37b4ce6cc0166fa7daa81600581518110611807576118076135a3565b60200260200101818152505060005b83811015611a475760018261182c83600661360d565b6118379060066135fa565b81518110611847576118476135a3565b60209081029190910101527f30644e72e131a029b85045b68181585d97816a916871ca8d3c208c16d87cfd458261187f83600661360d565b61188a9060076135fa565b8151811061189a5761189a6135a3565b6020026020010181815250508581815181106118b8576118b86135a3565b60200260200101516001600481106118d2576118d26135a3565b6020020151826118e383600661360d565b6118ee9060086135fa565b815181106118fe576118fe6135a3565b60200260200101818152505085818151811061191c5761191c6135a3565b6020026020010151600060048110611936576119366135a3565b60200201518261194783600661360d565b6119529060096135fa565b81518110611962576119626135a3565b602002602001018181525050858181518110611980576119806135a3565b602002602001015160036004811061199a5761199a6135a3565b6020020151826119ab83600661360d565b6119b690600a6135fa565b815181106119c6576119c66135a3565b6020026020010181815250508581815181106119e4576119e46135a3565b60200260200101516002600481106119fe576119fe6135a3565b602002015182611a0f83600661360d565b611a1a90600b6135fa565b81518110611a2a57611a2a6135a3565b602090810291909101015280611a3f81613624565b915050611816565b50611a50612f46565b6000602082602086026020860160086107d05a03fa90508080611a6f57fe5b5080611a975760405162461bcd60e51b8152602060048201526000602482015260440161054d565b505115159695505050505050565b600080611ab18461141b565b9050611abe8386836111fa565b611b005760405162461bcd60e51b81526020600482015260136024820152721d995c9a599a58d85d1a5bdb8819985a5b1959606a1b604482015260640161054d565b82516020808501518751888301516040808b015160608c01518d518e8801519351600099611b3b998f99919891979196919594939201613653565b6040516020818303038152906040528051906020012060001c90506000611b628883612431565b90506000611b86604051806040016040528060018152602001600281525084612431565b90506000611b94878461247a565b90506000611ba2868461247a565b9050611baf828b836111fa565b9b9a5050505050505050505050565b805160208201516000916001600160ff1b03169060008051602061377c83398151915282101580611bfd575060008051602061377c8339815191528110155b15611c0c575060009392505050565b81158015611c18575080155b15611c27575060009392505050565b6108a16040518060400160405280848152602001838152505b6000806000830151602084015160008051602061377c83398151915282830960008051602061377c833981519152828309818283010160008051602061377c833981519152828384010860008051602061377c833981519152868260008051602061377c8339815191520386010993505060008051602061377c833981519152848360008051602061377c833981519152038301099150507f2b149d40ceb8aaae81be18991be06ac3b5b4c5e559dbefa33267e6dc24a138e5820193507e9713b03af0fed4cd2cafadeed8fdf4a74fa084e52d1852e4a2bd0685c315d281019250505060008051602061377c8339815191528082830960008051602061377c83398151915284850908915050604051602081526020808201526020604082015281606082015260008051602061379c833981519152608082015260008051602061377c83398151915260a082015260208160c08360056107d05a03fa5051600114949350505050565b60006001600160ff1b03821660008051602061377c8339815191528110611dd35750600092915050565b80600003611de45750600092915050565b61068f8161223f565b60008060405180610180016040528085600060028110611e0f57611e0f6135a3565b6020020151815260200185600160028110611e2c57611e2c6135a3565b6020020151815260200160008051602061375c833981519152815260200160008051602061373c83398151915281526020017f090689d0585ff075ec9e99ad690c3395bc4b313370b38ef355acdadcd122975b81526020017f12c85ea5db8c6deb4aab71808dcb408fe3d1e7690c43d37b4ce6cc0166fa7daa8152602001600181526020017f30644e72e131a029b85045b68181585d97816a916871ca8d3c208c16d87cfd45815260200184600160048110611eea57611eea6135a3565b6020020151815260200184600060048110611f0757611f076135a3565b6020020151815260200184600360048110611f2457611f246135a3565b6020020151815260200184600260048110611f4157611f416135a3565b602002015190529050611f52612f46565b60006020826101808560086107d05a03fa90508080611f6d57fe5b5080611f955760405162461bcd60e51b8152602060048201526000602482015260440161054d565b50511515949350505050565b805160208201516040830151606084015160009392919084808080611fd16744e992b44a6909f189898989612387565b929650909450925090506000808080611ff08c8c8c8c8c8c8c8c6124c6565b92965090945092509050612002612f28565b61200e898989896125f9565b6060850152604084015260208301528152612027612f28565b61204b8260005b6020908102919091015190840151604085015160608601516125f9565b60608501526040808501919091526020808501929092529183528351908401519184015161208a928992899289928992918960035b60200201516124c6565b845160208601516040870151959b5093995091975095506120b692899289928992899290886003612080565b929850909650945092506120d08a8a8a8a838383836124c6565b929c50909a50985096506120e68a8a8a8a6125f9565b606086015260408501526020840152825261210282600061202e565b606086015260408501526020840152825261211e82600061202e565b606086015260408501526020840152808352861480156121415750602082015185145b80156121505750604082015184145b801561215f5750606082015183145b9e505050505050505050505050505050919050565b61217c612f28565b8251600160ff1b9081169081148061219957508251600190811614155b6121b55760405162461bcd60e51b815260040161054d906136b2565b5082516001600160ff1b031681526020928301518184015281516040820152910151606082015290565b6121e7612f0a565b600160ff1b83811690811480612201575082600116600114155b61221d5760405162461bcd60e51b815260040161054d906136b2565b5050604080518082019091526001600160ff1b03929092168252602082015290565b6000808260008051602061377c83398151915281820960008051602061377c833981519152828209905060008051602061377c833981519152600382089050604051915060208252602080830152602060408301528060608301525060008051602061379c833981519152608082015260008051602061377c83398151915260a082015260208160c08360056107d05a03fa50516001149392505050565b6122e5612f0a565b60006122ff60008051602061377c833981519152846136fd565b90506000805b60008051602061377c833981519152838409915060008051602061377c833981519152838309915060008051602061377c83398151915260038308915061234b826126de565b90925090508015612365578284526020840182905261237f565b60008051602061377c833981519152600184089250612305565b505050919050565b600080808060018815801561239a575087155b80156123a4575086155b80156123ae575085155b156123c257506001975087955060006123da565b6123ce898989896127b4565b6123da576123da613711565b60006123ec8b8b8b8b8b876000612869565b905061241c8160005b602090810291909101519083015160408401516060850151608086015160a08701516128e1565b929e919d509b50909950975050505050505050565b612439612f0a565b612441612f64565b835181526020808501519082015260408101839052600060608360808460076107d05a03fa90508061247257600080fd5b505092915050565b612482612f0a565b61248a612f28565b8351815260208085015182820152835160408301528301516060808301919091526000908360c08460066107d05a03fa90508061247257600080fd5b60008080808b1580156124d757508a155b80156124e1575089155b80156124eb575088155b1561253c57871580156124fc575086155b8015612506575085155b8015612510575084155b61252c57612520888888886127b4565b61252c5761252c613711565b50869250859150849050836125ea565b87158015612548575086155b8015612552575085155b801561255c575084155b156125895761256d8c8c8c8c6127b4565b61257957612579613711565b508a9250899150889050876125ea565b6125958c8c8c8c6127b4565b6125a1576125a1613711565b6125ad888888886127b4565b6125b9576125b9613711565b60006125d38d8d8d8d600160008f8f8f8f6001600061292b565b90506125e08160006123f5565b9450945094509450505b98509850985098945050505050565b600080808080806126637f2fb347984f7911f74c0bec3cf559b143b78cc310c2c3330c99e39557176f553d7f16c9e55061ebae204ba4cc8bd75a079432ae2a1d0b7c9dce1665d51c640fcba28c61265e8d60008051602061377c833981519152613590565b612bb4565b90925090506000806126c97f063cf305489af5dcdc5ec698b6e2f9b9dbaae0eda9c95998dc54014671a0135a7f07c03cbcac41049a0704b5a7ec796f2b21807dc98fa25bd282d37f632623b0e38c61265e8d60008051602061377c833981519152613590565b949d939c509a50929850909650505050505050565b600080600060405160208152602080820152602060408201528460608201527f0c19139cb84c680a6e14116da060561765e05aa45a1c72a34f082305b61f3f52608082015260008051602061377c83398151915260a082015260208160c08360056107d05a03fa90519350905060008051602061377c83398151915283800984149150806127ae5760405162461bcd60e51b815260206004820152601c60248201527f424c533a2073717274206d6f646578702063616c6c206661696c656400000000604482015260640161054d565b50915091565b60008060008060006127c887878989612bb4565b90945092506127d989898181612bb4565b90925090506127ea82828b8b612bb4565b90925090506127fb84848484612c25565b909450925061284b84847f2b149d40ceb8aaae81be18991be06ac3b5b4c5e559dbefa33267e6dc24a138e57e9713b03af0fed4cd2cafadeed8fdf4a74fa084e52d1852e4a2bd0685c315d2612c25565b90945092508315801561285c575082155b9998505050505050505050565b612871612f82565b87156105615760018816156128b2578051602082015160408301516060840151608085015160a08601516128af9594939291908d8d8d8d8d8d61292b565b90505b6128c0878787878787612c67565b949b509299509097509550935091506128da600289613727565b9750612871565b6000806000806000806128f48888612dd6565b90925090506129058c8c8484612bb4565b90965094506129168a8a8484612bb4565b969d959c509a50949850929650505050505050565b612933612f82565b8815801561293f575087155b15612981578686868686868660005b60a08901929092526080880192909252606087019290925260408601929092526020858101939093529091020152612ba4565b8215801561298d575081155b156129a0578c8c8c8c8c8c86600061294e565b6129ac85858b8b612bb4565b90955093506129bd8b8b8585612bb4565b606083015260408201526129d387878b8b612bb4565b90975095506129e48d8d8585612bb4565b60a08301526080820181905287148015612a01575060a081015186145b15612a4657604081015185148015612a1c5750606081015184145b15612a3757612a2f8d8d8d8d8d8d612c67565b86600061294e565b6001600081818080868161294e565b612a5289898585612bb4565b9093509150612a72858583600260200201518460035b6020020151612c25565b909d509b50612a8c87878360046020020151846005612a68565b909b509950612a9d8b8b8181612bb4565b9099509750612abd898983600460200201518460055b6020020151612bb4565b9095509350612ace89898d8d612bb4565b9099509750612adf89898585612bb4565b60a08301526080820152612af58d8d8181612bb4565b9097509550612b0687878585612bb4565b9097509550612b1787878b8b612c25565b9097509550612b2885856002612e62565b9093509150612b3987878585612c25565b9097509550612b4a8b8b8989612bb4565b60208301528152612b5d85858989612c25565b909b509950612b6e8d8d8d8d612bb4565b909b509950612b8889898360026020020151846003612ab3565b909d509b50612b998b8b8f8f612c25565b606083015260408201525b9c9b505050505050505050505050565b600080612bf260008051602061377c83398151915285880960008051602061377c83398151915285880960008051602061377c833981519152612e95565b60008051602061377c8339815191528086880960008051602061377c833981519152868a09089150915094509492505050565b600080612c41868560008051602061377c833981519152612e95565b612c5a868560008051602061377c833981519152612e95565b9150915094509492505050565b600080600080600080612c7c8c8c6003612e62565b9096509450612c8d86868e8e612bb4565b9096509450612c9e8a8a8a8a612bb4565b9098509650612caf8c8c8c8c612bb4565b9094509250612cc084848a8a612bb4565b9094509250612cd186868181612bb4565b909c509a50612ce284846008612e62565b9092509050612cf38c8c8484612c25565b909c509a50612d0488888181612bb4565b9092509050612d1584846004612e62565b9094509250612d2684848e8e612c25565b9094509250612d3784848888612bb4565b9094509250612d488a8a6008612e62565b9096509450612d5986868c8c612bb4565b9096509450612d6a86868484612bb4565b9096509450612d7b84848888612c25565b9094509250612d8c8c8c6002612e62565b9096509450612d9d86868a8a612bb4565b9096509450612dae88888484612bb4565b9092509050612dbf82826008612e62565b809250819350505096509650965096509650969050565b60008080612e1760008051602061377c8339815191528087880960008051602061377c8339815191528788090860008051602061377c833981519152612eb9565b905060008051602061377c83398151915281860960008051602061377c833981519152828609612e559060008051602061377c833981519152613590565b92509250505b9250929050565b60008060008051602061377c83398151915283860960008051602061377c83398151915284860991509150935093915050565b60008180612ea557612ea561363d565b612eaf8484613590565b8508949350505050565b60008060405160208152602080820152602060408201528460608201526002840360808201528360a082015260208160c08360056107d05a03fa90519250905080612f0357600080fd5b5092915050565b60405180604001604052806002906020820280368337509192915050565b60405180608001604052806004906020820280368337509192915050565b60405180602001604052806001906020820280368337509192915050565b60405180606001604052806003906020820280368337509192915050565b6040518060c001604052806006906020820280368337509192915050565b80604081018310156105a057600080fd5b60008083601f840112612fc357600080fd5b50813567ffffffffffffffff811115612fdb57600080fd5b6020830191508360208260061b8501011115612e5b57600080fd5b60008060008060006080868803121561300e57600080fd5b6130188787612fa0565b9450604086013567ffffffffffffffff8082111561303557600080fd5b818801915088601f83011261304957600080fd5b81358181111561305857600080fd5b8960208260071b850101111561306d57600080fd5b60208301965080955050606088013591508082111561308b57600080fd5b5061309888828901612fb1565b969995985093965092949392505050565b80608081018310156105a057600080fd5b6000608082840312156130cc57600080fd5b61068f83836130a9565b600080600061010084860312156130ec57600080fd5b6130f68585612fa0565b925061310585604086016130a9565b91506131148560c08601612fa0565b90509250925092565b60006040828403121561312f57600080fd5b61068f8383612fa0565b6000806020838503121561314c57600080fd5b823567ffffffffffffffff8082111561316457600080fd5b818501915085601f83011261317857600080fd5b81358181111561318757600080fd5b86602082850101111561319957600080fd5b60209290920196919550909350505050565b60408101818360005b60028110156131d35781518352602092830192909101906001016131b4565b50505092915050565b6000602082840312156131ee57600080fd5b5035919050565b634e487b7160e01b600052604160045260246000fd5b604051601f8201601f1916810167ffffffffffffffff81118282101715613234576132346131f5565b604052919050565b600082601f83011261324d57600080fd5b6040516040810181811067ffffffffffffffff82111715613270576132706131f5565b806040525080604084018581111561328757600080fd5b845b818110156132a1578035835260209283019201613289565b509195945050505050565b600082601f8301126132bd57600080fd5b6040516080810181811067ffffffffffffffff821117156132e0576132e06131f5565b60405280608084018581111561328757600080fd5b6000806060838503121561330857600080fd5b613312848461323c565b9150604083013567ffffffffffffffff8082111561332f57600080fd5b818501915085601f83011261334357600080fd5b8135602082821115613357576133576131f5565b613365818360051b0161320b565b828152818101935060079290921b84018101918883111561338557600080fd5b938101935b828510156133ae5761339c89866132ac565b8452818401935060808501945061338a565b80955050505050509250929050565b60008060008061012085870312156133d457600080fd5b6133de868661323c565b93506133ed86604087016132ac565b925060c085013567ffffffffffffffff8082111561340a57600080fd5b818701915087601f83011261341e57600080fd5b813581811115613430576134306131f5565b613443601f8201601f191660200161320b565b915080825288602082850101111561345a57600080fd5b80602084016020840137600090820160200152925061347e90508660e0870161323c565b905092959194509250565b60008060c0838503121561349c57600080fd5b6134a6848461323c565b91506134b584604085016132ac565b90509250929050565b600080608083850312156134d157600080fd5b6134db8484612fa0565b91506134b58460408501612fa0565b60808101818360005b60048110156131d35781518352602092830192909101906001016134f3565b6000806040838503121561352557600080fd5b50508035926020909101359150565b60208082526026908201527f424c53546573743a206578706563742073756363657366756c2076657269666960408201526531b0ba34b7b760d11b606082015260800190565b634e487b7160e01b600052601160045260246000fd5b818103818111156105a0576105a061357a565b634e487b7160e01b600052603260045260246000fd5b60208082526021908201527f424c533a206e756d626572206f66207075626c6963206b6579206973207a65726040820152606f60f81b606082015260800190565b808201808211156105a0576105a061357a565b80820281158282048414176105a0576105a061357a565b6000600182016136365761363661357a565b5060010190565b634e487b7160e01b600052601260045260246000fd5b60008a5160005b81811015613674576020818e01810151858301520161365a565b509190910198895250602088019690965260408701949094526060860192909252608085015260a084015260c083015260e082015261010001919050565b6020808252602b908201527f424c533a20626164207920636f6f7264696e61746520666f7220756e636f6d7060408201526a72657373696e67206b657960a81b606082015260800190565b60008261370c5761370c61363d565b500690565b634e487b7160e01b600052600160045260246000fd5b6000826137365761373661363d565b50049056fe1800deef121f1e76426a00665e5c4479674322d4f75edadd46debd5cd992f6ed198e9393920d483a7260bfb731fb5d25f1aa493335a9e71297e485b7aef312c230644e72e131a029b85045b68181585d97816a916871ca8d3c208c16d87cfd47183227397098d014dc2822db40c0ac2ecbc0b548b438e5469e10460b6c3e7ea3a2646970667358221220266a9639a94eb161d53c3d17df486b291b63c082ced6a6df2c3d528fa427ea3964736f6c63430008130033",
  "bytecodeSha1": "957a188531d9eb9fd67611752b69294023092c08",
  "compiler": {
    "evm_version": "istanbul",
    "optimizer": {
      "enabled": true,
      "runs": 200
    },
    "version": "0.8.19+commit.7dd6d404"
  },
  "contractName": "TestBLS",
  "language": "Solidity",
  "natspec": {
    "kind": "dev",
    "methods": {},
    "version": 1
  },
  "opcodes": "PUSH1 0x80 PUSH1 0x40 MSTORE CALLVALUE DUP1 ISZERO PUSH2 0x10 JUMPI PUSH1 0x0 DUP1 REVERT JUMPDEST POP PUSH1 0x4 CALLDATASIZE LT PUSH2 0x1CF JUMPI PUSH1 0x0 CALLDATALOAD PUSH1 0xE0 SHR DUP1 PUSH4 0x700DC39A GT PUSH2 0x104 JUMPI DUP1 PUSH4 0x91413763 GT PUSH2 0xA2 JUMPI DUP1 PUSH4 0xE82A0DFD GT PUSH2 0x71 JUMPI DUP1 PUSH4 0xE82A0DFD EQ PUSH2 0x3EC JUMPI DUP1 PUSH4 0xEBBDAC91 EQ PUSH2 0x3FF JUMPI DUP1 PUSH4 0xF682D19F EQ PUSH2 0x412 JUMPI DUP1 PUSH4 0xFDE7214F EQ PUSH2 0x425 JUMPI PUSH1 0x0 DUP1 REVERT JUMPDEST DUP1 PUSH4 0x91413763 EQ PUSH2 0x3A0 JUMPI DUP1 PUSH4 0x959379B7 EQ PUSH2 0x3B3 JUMPI DUP1 PUSH4 0xA198CBFC EQ PUSH2 0x3C6 JUMPI DUP1 PUSH4 0xE242CCE9 EQ PUSH2 0x3D9 JUMPI PUSH1 0x0 DUP1 REVERT JUMPDEST DUP1 PUSH4 0x80395500 GT PUSH2 0xDE JUMPI DUP1 PUSH4 0x80395500 EQ PUSH2 0x347 JUMPI DUP1 PUSH4 0x8093A825 EQ PUSH2 0x35A JUMPI DUP1 PUSH4 0x8E8C0930 EQ PUSH2 0x36D JUMPI DUP1 PUSH4 0x8EA05E5B EQ PUSH2 0x380 JUMPI PUSH1 0x0 DUP1 REVERT JUMPDEST DUP1 PUSH4 0x700DC39A EQ PUSH2 0x30E JUMPI DUP1 PUSH4 0x760B9D50 EQ PUSH2 0x321 JUMPI DUP1 PUSH4 0x7B9ECF3E EQ PUSH2 0x334 JUMPI PUSH1 0x0 DUP1 REVERT JUMPDEST DUP1 PUSH4 0x48DE6981 GT PUSH2 0x171 JUMPI DUP1 PUSH4 0x584D028E GT PUSH2 0x14B JUMPI DUP1 PUSH4 0x584D028E EQ PUSH2 0x2C2 JUMPI DUP1 PUSH4 0x5F93CD65 EQ PUSH2 0x2D5 JUMPI DUP1 PUSH4 0x6240B88D EQ PUSH2 0x2E8 JUMPI DUP1 PUSH4 0x66D90F75 EQ PUSH2 0x2FB JUMPI PUSH1 0x0 DUP1 REVERT JUMPDEST DUP1 PUSH4 0x48DE6981 EQ PUSH2 0x289 JUMPI DUP1 PUSH4 0x4B527783 EQ PUSH2 0x29C JUMPI DUP1 PUSH4 0x4F1FF5CA EQ PUSH2 0x2AF JUMPI PUSH1 0x0 DUP1 REVERT JUMPDEST DUP1 PUSH4 0x2F06A1E3 GT PUSH2 0x1AD JUMPI DUP1 PUSH4 0x2F06A1E3 EQ PUSH2 0x230 JUMPI DUP1 PUSH4 0x3033CC51 EQ PUSH2 0x243 JUMPI DUP1 PUSH4 0x373CE215 EQ PUSH2 0x263 JUMPI DUP1 PUSH4 0x3A611086 EQ PUSH2 0x276 JUMPI PUSH1 0x0 DUP1 REVERT JUMPDEST DUP1 PUSH4 0xD1ABFDF EQ PUSH2 0x1D4 JUMPI DUP1 PUSH4 0x115000FE EQ PUSH2 0x1FA JUMPI DUP1 PUSH4 0x22BF7DE7 EQ PUSH2 0x21D JUMPI JUMPDEST PUSH1 0x0 DUP1 REVERT JUMPDEST PUSH2 0x1E7 PUSH2 0x1E2 CALLDATASIZE PUSH1 0x4 PUSH2 0x2FF6 JUMP JUMPDEST PUSH2 0x438 JUMP JUMPDEST PUSH1 0x40 MLOAD SWAP1 DUP2 MSTORE PUSH1 0x20 ADD JUMPDEST PUSH1 0x40 MLOAD DUP1 SWAP2 SUB SWAP1 RETURN JUMPDEST PUSH2 0x20D PUSH2 0x208 CALLDATASIZE PUSH1 0x4 PUSH2 0x30BA JUMP JUMPDEST PUSH2 0x56C JUMP JUMPDEST PUSH1 0x40 MLOAD SWAP1 ISZERO ISZERO DUP2 MSTORE PUSH1 0x20 ADD PUSH2 0x1F1 JUMP JUMPDEST PUSH2 0x1E7 PUSH2 0x22B CALLDATASIZE PUSH1 0x4 PUSH2 0x30D6 JUMP JUMPDEST PUSH2 0x5A6 JUMP JUMPDEST PUSH2 0x1E7 PUSH2 0x23E CALLDATASIZE PUSH1 0x4 PUSH2 0x311D JUMP JUMPDEST PUSH2 0x650 JUMP JUMPDEST PUSH2 0x256 PUSH2 0x251 CALLDATASIZE PUSH1 0x4 PUSH2 0x3139 JUMP JUMPDEST PUSH2 0x696 JUMP JUMPDEST PUSH1 0x40 MLOAD PUSH2 0x1F1 SWAP2 SWAP1 PUSH2 0x31AB JUMP JUMPDEST PUSH2 0x20D PUSH2 0x271 CALLDATASIZE PUSH1 0x4 PUSH2 0x31DC JUMP JUMPDEST PUSH2 0x6DD JUMP JUMPDEST PUSH2 0x20D PUSH2 0x284 CALLDATASIZE PUSH1 0x4 PUSH2 0x30BA JUMP JUMPDEST PUSH2 0x6E8 JUMP JUMPDEST PUSH2 0x1E7 PUSH2 0x297 CALLDATASIZE PUSH1 0x4 PUSH2 0x311D JUMP JUMPDEST PUSH2 0x71C JUMP JUMPDEST PUSH2 0x20D PUSH2 0x2AA CALLDATASIZE PUSH1 0x4 PUSH2 0x32F5 JUMP JUMPDEST PUSH2 0x74F JUMP JUMPDEST PUSH2 0x20D PUSH2 0x2BD CALLDATASIZE PUSH1 0x4 PUSH2 0x33BD JUMP JUMPDEST PUSH2 0x75B JUMP JUMPDEST PUSH2 0x1E7 PUSH2 0x2D0 CALLDATASIZE PUSH1 0x4 PUSH2 0x30BA JUMP JUMPDEST PUSH2 0x769 JUMP JUMPDEST PUSH2 0x20D PUSH2 0x2E3 CALLDATASIZE PUSH1 0x4 PUSH2 0x311D JUMP JUMPDEST PUSH2 0x7A1 JUMP JUMPDEST PUSH2 0x20D PUSH2 0x2F6 CALLDATASIZE PUSH1 0x4 PUSH2 0x311D JUMP JUMPDEST PUSH2 0x7D0 JUMP JUMPDEST PUSH2 0x20D PUSH2 0x309 CALLDATASIZE PUSH1 0x4 PUSH2 0x31DC JUMP JUMPDEST PUSH2 0x801 JUMP JUMPDEST PUSH2 0x20D PUSH2 0x31C CALLDATASIZE PUSH1 0x4 PUSH2 0x3489 JUMP JUMPDEST PUSH2 0x80C JUMP JUMPDEST PUSH2 0x1E7 PUSH2 0x32F CALLDATASIZE PUSH1 0x4 PUSH2 0x30BA JUMP JUMPDEST PUSH2 0x818 JUMP JUMPDEST PUSH2 0x1E7 PUSH2 0x342 CALLDATASIZE PUSH1 0x4 PUSH2 0x3139 JUMP JUMPDEST PUSH2 0x850 JUMP JUMPDEST PUSH2 0x20D PUSH2 0x355 CALLDATASIZE PUSH1 0x4 PUSH2 0x311D JUMP JUMPDEST PUSH2 0x8A9 JUMP JUMPDEST PUSH2 0x1E7 PUSH2 0x368 CALLDATASIZE PUSH1 0x4 PUSH2 0x31DC JUMP JUMPDEST PUSH2 0x8D8 JUMP JUMPDEST PUSH2 0x20D PUSH2 0x37B CALLDATASIZE PUSH1 0x4 PUSH2 0x30BA JUMP JUMPDEST PUSH2 0x8E7 JUMP JUMPDEST PUSH2 0x393 PUSH2 0x38E CALLDATASIZE PUSH1 0x4 PUSH2 0x34BE JUMP JUMPDEST PUSH2 0x91B JUMP JUMPDEST PUSH1 0x40 MLOAD PUSH2 0x1F1 SWAP2 SWAP1 PUSH2 0x34EA JUMP JUMPDEST PUSH2 0x20D PUSH2 0x3AE CALLDATASIZE PUSH1 0x4 PUSH2 0x2FF6 JUMP JUMPDEST PUSH2 0x970 JUMP JUMPDEST PUSH2 0x256 PUSH2 0x3C1 CALLDATASIZE PUSH1 0x4 PUSH2 0x3512 JUMP JUMPDEST PUSH2 0xA60 JUMP JUMPDEST PUSH2 0x1E7 PUSH2 0x3D4 CALLDATASIZE PUSH1 0x4 PUSH2 0x30BA JUMP JUMPDEST PUSH2 0xA72 JUMP JUMPDEST PUSH2 0x20D PUSH2 0x3E7 CALLDATASIZE PUSH1 0x4 PUSH2 0x311D JUMP JUMPDEST PUSH2 0xAAA JUMP JUMPDEST PUSH2 0x1E7 PUSH2 0x3FA CALLDATASIZE PUSH1 0x4 PUSH2 0x31DC JUMP JUMPDEST PUSH2 0xAD9 JUMP JUMPDEST PUSH2 0x20D PUSH2 0x40D CALLDATASIZE PUSH1 0x4 PUSH2 0x30D6 JUMP JUMPDEST PUSH2 0xAE8 JUMP JUMPDEST PUSH2 0x20D PUSH2 0x420 CALLDATASIZE PUSH1 0x4 PUSH2 0x31DC JUMP JUMPDEST PUSH2 0xB5E JUMP JUMPDEST PUSH2 0x1E7 PUSH2 0x433 CALLDATASIZE PUSH1 0x4 PUSH2 0x311D JUMP JUMPDEST PUSH2 0xB73 JUMP JUMPDEST PUSH1 0x0 DUP1 GAS PUSH1 0x40 DUP1 MLOAD DUP1 DUP3 ADD DUP3 MSTORE SWAP2 SWAP3 POP PUSH2 0x531 SWAP2 SWAP1 DUP10 SWAP1 PUSH1 0x2 SWAP1 DUP4 SWAP1 DUP4 SWAP1 DUP1 DUP3 DUP5 CALLDATACOPY PUSH1 0x0 SWAP3 ADD DUP3 SWAP1 MSTORE POP PUSH1 0x40 DUP1 MLOAD PUSH1 0x20 DUP1 DUP14 MUL DUP3 ADD DUP2 ADD SWAP1 SWAP3 MSTORE DUP12 DUP2 MSTORE SWAP4 POP DUP12 SWAP3 POP DUP11 SWAP2 DUP3 SWAP2 DUP6 ADD JUMPDEST DUP3 DUP3 LT ISZERO PUSH2 0x4C2 JUMPI PUSH1 0x40 DUP1 MLOAD PUSH1 0x80 DUP2 DUP2 ADD SWAP1 SWAP3 MSTORE SWAP1 DUP1 DUP5 MUL DUP8 ADD SWAP1 PUSH1 0x4 SWAP1 DUP4 SWAP1 DUP4 SWAP1 DUP1 DUP3 DUP5 CALLDATACOPY PUSH1 0x0 SWAP3 ADD SWAP2 SWAP1 SWAP2 MSTORE POP POP POP DUP2 MSTORE PUSH1 0x1 SWAP1 SWAP2 ADD SWAP1 PUSH1 0x20 ADD PUSH2 0x481 JUMP JUMPDEST POP POP POP POP POP DUP7 DUP7 DUP1 DUP1 PUSH1 0x20 MUL PUSH1 0x20 ADD PUSH1 0x40 MLOAD SWAP1 DUP2 ADD PUSH1 0x40 MSTORE DUP1 SWAP4 SWAP3 SWAP2 SWAP1 DUP2 DUP2 MSTORE PUSH1 0x20 ADD PUSH1 0x0 SWAP1 JUMPDEST DUP3 DUP3 LT ISZERO PUSH2 0x527 JUMPI PUSH1 0x40 DUP1 MLOAD DUP1 DUP3 ADD DUP3 MSTORE SWAP1 DUP1 DUP5 MUL DUP8 ADD SWAP1 PUSH1 0x2 SWAP1 DUP4 SWAP1 DUP4 SWAP1 DUP1 DUP3 DUP5 CALLDATACOPY PUSH1 0x0 SWAP3 ADD SWAP2 SWAP1 SWAP2 MSTORE POP POP POP DUP2 MSTORE PUSH1 0x1 SWAP1 SWAP2 ADD SWAP1 PUSH1 0x20 ADD PUSH2 0x4E9 JUMP JUMPDEST POP POP POP POP POP PUSH2 0xBA6 JUMP JUMPDEST PUSH2 0x556 JUMPI PUSH1 0x40 MLOAD PUSH3 0x461BCD PUSH1 0xE5 SHL DUP2 MSTORE PUSH1 0x4 ADD PUSH2 0x54D SWAP1 PUSH2 0x3534 JUMP JUMPDEST PUSH1 0x40 MLOAD DUP1 SWAP2 SUB SWAP1 REVERT JUMPDEST GAS PUSH2 0x561 SWAP1 DUP3 PUSH2 0x3590 JUMP JUMPDEST SWAP8 SWAP7 POP POP POP POP POP POP POP JUMP JUMPDEST PUSH1 0x0 PUSH2 0x5A0 DUP3 PUSH1 0x4 DUP1 PUSH1 0x20 MUL PUSH1 0x40 MLOAD SWAP1 DUP2 ADD PUSH1 0x40 MSTORE DUP1 SWAP3 SWAP2 SWAP1 DUP3 PUSH1 0x4 PUSH1 0x20 MUL DUP1 DUP3 DUP5 CALLDATACOPY PUSH1 0x0 SWAP3 ADD SWAP2 SWAP1 SWAP2 MSTORE POP PUSH2 0x1093 SWAP2 POP POP JUMP JUMPDEST SWAP3 SWAP2 POP POP JUMP JUMPDEST PUSH1 0x0 DUP1 GAS PUSH1 0x40 DUP1 MLOAD DUP1 DUP3 ADD DUP3 MSTORE SWAP2 SWAP3 POP PUSH2 0x620 SWAP2 SWAP1 DUP8 SWAP1 PUSH1 0x2 SWAP1 DUP4 SWAP1 DUP4 SWAP1 DUP1 DUP3 DUP5 CALLDATACOPY PUSH1 0x0 SWAP3 ADD SWAP2 SWAP1 SWAP2 MSTORE POP POP PUSH1 0x40 DUP1 MLOAD PUSH1 0x80 DUP2 DUP2 ADD SWAP1 SWAP3 MSTORE SWAP2 POP DUP8 SWAP1 PUSH1 0x4 SWAP1 DUP4 SWAP1 DUP4 SWAP1 DUP1 DUP3 DUP5 CALLDATACOPY PUSH1 0x0 SWAP3 ADD SWAP2 SWAP1 SWAP2 MSTORE POP POP PUSH1 0x40 DUP1 MLOAD DUP1 DUP3 ADD DUP3 MSTORE SWAP2 POP DUP8 SWAP1 PUSH1 0x2 SWAP1 DUP4 SWAP1 DUP4 SWAP1 DUP1 DUP3 DUP5 CALLDATACOPY PUSH1 0x0 SWAP3 ADD SWAP2 SWAP1 SWAP2 MSTORE POP PUSH2 0x11FA SWAP2 POP POP JUMP JUMPDEST PUSH2 0x63C JUMPI PUSH1 0x40 MLOAD PUSH3 0x461BCD PUSH1 0xE5 SHL DUP2 MSTORE PUSH1 0x4 ADD PUSH2 0x54D SWAP1 PUSH2 0x3534 JUMP JUMPDEST GAS PUSH2 0x647 SWAP1 DUP3 PUSH2 0x3590 JUMP JUMPDEST SWAP6 SWAP5 POP POP POP POP POP JUMP JUMPDEST PUSH1 0x0 DUP1 GAS PUSH1 0x40 DUP1 MLOAD DUP1 DUP3 ADD DUP3 MSTORE SWAP2 SWAP3 POP PUSH2 0x683 SWAP2 SWAP1 DUP6 SWAP1 PUSH1 0x2 SWAP1 DUP4 SWAP1 DUP4 SWAP1 DUP1 DUP3 DUP5 CALLDATACOPY PUSH1 0x0 SWAP3 ADD SWAP2 SWAP1 SWAP2 MSTORE POP PUSH2 0x13BC SWAP2 POP POP JUMP JUMPDEST POP GAS PUSH2 0x68F SWAP1 DUP3 PUSH2 0x3590 JUMP JUMPDEST SWAP4 SWAP3 POP POP POP JUMP JUMPDEST PUSH2 0x69E PUSH2 0x2F0A JUMP JUMPDEST PUSH2 0x68F DUP4 DUP4 DUP1 DUP1 PUSH1 0x1F ADD PUSH1 0x20 DUP1 SWAP2 DIV MUL PUSH1 0x20 ADD PUSH1 0x40 MLOAD SWAP1 DUP2 ADD PUSH1 0x40 MSTORE DUP1 SWAP4 SWAP3 SWAP2 SWAP1 DUP2 DUP2 MSTORE PUSH1 0x20 ADD DUP4 DUP4 DUP1 DUP3 DUP5 CALLDATACOPY PUSH1 0x0 SWAP3 ADD SWAP2 SWAP1 SWAP2 MSTORE POP PUSH2 0x141B SWAP3 POP POP POP JUMP JUMPDEST PUSH1 0x0 PUSH2 0x5A0 DUP3 PUSH2 0x1433 JUMP JUMPDEST PUSH1 0x0 PUSH2 0x5A0 DUP3 PUSH1 0x4 DUP1 PUSH1 0x20 MUL PUSH1 0x40 MLOAD SWAP1 DUP2 ADD PUSH1 0x40 MSTORE DUP1 SWAP3 SWAP2 SWAP1 DUP3 PUSH1 0x4 PUSH1 0x20 MUL DUP1 DUP3 DUP5 CALLDATACOPY PUSH1 0x0 SWAP3 ADD SWAP2 SWAP1 SWAP2 MSTORE POP PUSH2 0x14F2 SWAP2 POP POP JUMP JUMPDEST PUSH1 0x0 DUP1 GAS PUSH1 0x40 DUP1 MLOAD DUP1 DUP3 ADD DUP3 MSTORE SWAP2 SWAP3 POP PUSH2 0x683 SWAP2 SWAP1 DUP6 SWAP1 PUSH1 0x2 SWAP1 DUP4 SWAP1 DUP4 SWAP1 DUP1 DUP3 DUP5 CALLDATACOPY PUSH1 0x0 SWAP3 ADD SWAP2 SWAP1 SWAP2 MSTORE POP PUSH2 0x1572 SWAP2 POP POP JUMP JUMPDEST PUSH1 0x0 PUSH2 0x68F DUP4 DUP4 PUSH2 0x1667 JUMP JUMPDEST PUSH1 0x0 PUSH2 0x647 DUP6 DUP6 DUP6 DUP6 PUSH2 0x1AA5 JUMP JUMPDEST PUSH1 0x0 DUP1 GAS SWAP1 POP PUSH2 0x683 DUP4 PUSH1 0x4 DUP1 PUSH1 0x20 MUL PUSH1 0x40 MLOAD SWAP1 DUP2 ADD PUSH1 0x40 MSTORE DUP1 SWAP3 SWAP2 SWAP1 DUP3 PUSH1 0x4 PUSH1 0x20 MUL DUP1 DUP3 DUP5 CALLDATACOPY PUSH1 0x0 SWAP3 ADD SWAP2 SWAP1 SWAP2 MSTORE POP PUSH2 0x14F2 SWAP2 POP POP JUMP JUMPDEST PUSH1 0x40 DUP1 MLOAD DUP1 DUP3 ADD DUP3 MSTORE PUSH1 0x0 SWAP2 PUSH2 0x5A0 SWAP2 SWAP1 DUP5 SWAP1 PUSH1 0x2 SWAP1 DUP4 SWAP1 DUP4 SWAP1 DUP1 DUP3 DUP5 CALLDATACOPY PUSH1 0x0 SWAP3 ADD SWAP2 SWAP1 SWAP2 MSTORE POP PUSH2 0x1BBE SWAP2 POP POP JUMP JUMPDEST PUSH1 0x40 DUP1 MLOAD DUP1 DUP3 ADD SWAP1 SWAP2 MSTORE PUSH1 0x1 PUSH1 0x1 PUSH1 0xFF SHL SUB DUP3 CALLDATALOAD DUP2 AND DUP1 DUP4 MSTORE PUSH1 0x20 DUP1 DUP6 ADD CALLDATALOAD SWAP1 DUP5 ADD DUP2 SWAP1 MSTORE PUSH1 0x0 SWAP4 PUSH2 0x647 SWAP1 PUSH2 0x1C40 JUMP JUMPDEST PUSH1 0x0 PUSH2 0x5A0 DUP3 PUSH2 0x1DA9 JUMP JUMPDEST PUSH1 0x0 PUSH2 0x68F DUP4 DUP4 PUSH2 0x1DED JUMP JUMPDEST PUSH1 0x0 DUP1 GAS SWAP1 POP PUSH2 0x683 DUP4 PUSH1 0x4 DUP1 PUSH1 0x20 MUL PUSH1 0x40 MLOAD SWAP1 DUP2 ADD PUSH1 0x40 MSTORE DUP1 SWAP3 SWAP2 SWAP1 DUP3 PUSH1 0x4 PUSH1 0x20 MUL DUP1 DUP3 DUP5 CALLDATACOPY PUSH1 0x0 SWAP3 ADD SWAP2 SWAP1 SWAP2 MSTORE POP PUSH2 0x1093 SWAP2 POP POP JUMP JUMPDEST PUSH1 0x0 DUP1 GAS SWAP1 POP PUSH2 0x895 DUP5 DUP5 DUP1 DUP1 PUSH1 0x1F ADD PUSH1 0x20 DUP1 SWAP2 DIV MUL PUSH1 0x20 ADD PUSH1 0x40 MLOAD SWAP1 DUP2 ADD PUSH1 0x40 MSTORE DUP1 SWAP4 SWAP3 SWAP2 SWAP1 DUP2 DUP2 MSTORE PUSH1 0x20 ADD DUP4 DUP4 DUP1 DUP3 DUP5 CALLDATACOPY PUSH1 0x0 SWAP3 ADD SWAP2 SWAP1 SWAP2 MSTORE POP PUSH2 0x141B SWAP3 POP POP POP JUMP JUMPDEST POP GAS PUSH2 0x8A1 SWAP1 DUP3 PUSH2 0x3590 JUMP JUMPDEST SWAP5 SWAP4 POP POP POP POP JUMP JUMPDEST PUSH1 0x40 DUP1 MLOAD DUP1 DUP3 ADD DUP3 MSTORE PUSH1 0x0 SWAP2 PUSH2 0x5A0 SWAP2 SWAP1 DUP5 SWAP1 PUSH1 0x2 SWAP1 DUP4 SWAP1 DUP4 SWAP1 DUP1 DUP3 DUP5 CALLDATACOPY PUSH1 0x0 SWAP3 ADD SWAP2 SWAP1 SWAP2 MSTORE POP PUSH2 0x1572 SWAP2 POP POP JUMP JUMPDEST PUSH1 0x0 DUP1 GAS SWAP1 POP PUSH2 0x683 DUP4 PUSH2 0x1433 JUMP JUMPDEST PUSH1 0x0 PUSH2 0x5A0 DUP3 PUSH1 0x4 DUP1 PUSH1 0x20 MUL PUSH1 0x40 MLOAD SWAP1 DUP2 ADD PUSH1 0x40 MSTORE DUP1 SWAP3 SWAP2 SWAP1 DUP3 PUSH1 0x4 PUSH1 0x20 MUL DUP1 DUP3 DUP5 CALLDATACOPY PUSH1 0x0 SWAP3 ADD SWAP2 SWAP1 SWAP2 MSTORE POP PUSH2 0x1FA1 SWAP2 POP POP JUMP JUMPDEST PUSH2 0x923 PUSH2 0x2F28 JUMP JUMPDEST PUSH1 0x40 DUP1 MLOAD DUP1 DUP3 ADD DUP3 MSTORE PUSH2 0x68F SWAP2 DUP6 SWAP1 PUSH1 0x2 SWAP1 DUP4 SWAP1 DUP4 SWAP1 DUP1 DUP3 DUP5 CALLDATACOPY PUSH1 0x0 SWAP3 ADD SWAP2 SWAP1 SWAP2 MSTORE POP POP PUSH1 0x40 DUP1 MLOAD DUP1 DUP3 ADD DUP3 MSTORE SWAP2 POP DUP6 SWAP1 PUSH1 0x2 SWAP1 DUP4 SWAP1 DUP4 SWAP1 DUP1 DUP3 DUP5 CALLDATACOPY PUSH1 0x0 SWAP3 ADD SWAP2 SWAP1 SWAP2 MSTORE POP PUSH2 0x2174 SWAP2 POP POP JUMP JUMPDEST PUSH1 0x40 DUP1 MLOAD DUP1 DUP3 ADD DUP3 MSTORE PUSH1 0x0 SWAP2 PUSH2 0xA56 SWAP2 SWAP1 DUP9 SWAP1 PUSH1 0x2 SWAP1 DUP4 SWAP1 DUP4 SWAP1 DUP1 DUP3 DUP5 CALLDATACOPY PUSH1 0x0 SWAP3 ADD DUP3 SWAP1 MSTORE POP PUSH1 0x40 DUP1 MLOAD PUSH1 0x20 DUP1 DUP13 MUL DUP3 ADD DUP2 ADD SWAP1 SWAP3 MSTORE DUP11 DUP2 MSTORE SWAP4 POP DUP11 SWAP3 POP DUP10 SWAP2 DUP3 SWAP2 DUP6 ADD JUMPDEST DUP3 DUP3 LT ISZERO PUSH2 0x9F6 JUMPI PUSH1 0x40 DUP1 MLOAD PUSH1 0x80 DUP2 DUP2 ADD SWAP1 SWAP3 MSTORE SWAP1 DUP1 DUP5 MUL DUP8 ADD SWAP1 PUSH1 0x4 SWAP1 DUP4 SWAP1 DUP4 SWAP1 DUP1 DUP3 DUP5 CALLDATACOPY PUSH1 0x0 SWAP3 ADD SWAP2 SWAP1 SWAP2 MSTORE POP POP POP DUP2 MSTORE PUSH1 0x1 SWAP1 SWAP2 ADD SWAP1 PUSH1 0x20 ADD PUSH2 0x9B5 JUMP JUMPDEST POP POP PUSH1 0x40 DUP1 MLOAD PUSH1 0x20 DUP1 DUP12 MUL DUP3 ADD DUP2 ADD SWAP1 SWAP3 MSTORE DUP10 DUP2 MSTORE SWAP4 POP DUP10 SWAP3 POP DUP9 SWAP2 POP DUP2 SWAP1 PUSH1 0x0 SWAP1 DUP6 ADD DUP3 ISZERO PUSH2 0x527 JUMPI PUSH1 0x40 DUP1 MLOAD DUP1 DUP3 ADD DUP3 MSTORE SWAP1 DUP1 DUP5 MUL DUP8 ADD SWAP1 PUSH1 0x2 SWAP1 DUP4 SWAP1 DUP4 SWAP1 DUP1 DUP3 DUP5 CALLDATACOPY PUSH1 0x0 SWAP3 ADD SWAP2 SWAP1 SWAP2 MSTORE POP POP POP DUP2 MSTORE PUSH1 0x1 SWAP1 SWAP2 ADD SWAP1 PUSH1 0x20 ADD PUSH2 0x4E9 JUMP JUMPDEST SWAP7 SWAP6 POP POP POP POP POP POP JUMP JUMPDEST PUSH2 0xA68 PUSH2 0x2F0A JUMP JUMPDEST PUSH2 0x68F DUP4 DUP4 PUSH2 0x21DF JUMP JUMPDEST PUSH1 0x0 DUP1 GAS SWAP1 POP PUSH2 0x683 DUP4 PUSH1 0x4 DUP1 PUSH1 0x20 MUL PUSH1 0x40 MLOAD SWAP1 DUP2 ADD PUSH1 0x40 MSTORE DUP1 SWAP3 SWAP2 SWAP1 DUP3 PUSH1 0x4 PUSH1 0x20 MUL DUP1 DUP3 DUP5 CALLDATACOPY PUSH1 0x0 SWAP3 ADD SWAP2 SWAP1 SWAP2 MSTORE POP PUSH2 0x1FA1 SWAP2 POP POP JUMP JUMPDEST PUSH1 0x40 DUP1 MLOAD DUP1 DUP3 ADD DUP3 MSTORE PUSH1 0x0 SWAP2 PUSH2 0x5A0 SWAP2 SWAP1 DUP5 SWAP1 PUSH1 0x2 SWAP1 DUP4 SWAP1 DUP4 SWAP1 DUP1 DUP3 DUP5 CALLDATACOPY PUSH1 0x0 SWAP3 ADD SWAP2 SWAP1 SWAP2 MSTORE POP PUSH2 0x13BC SWAP2 POP POP JUMP JUMPDEST PUSH1 0x0 DUP1 GAS SWAP1 POP PUSH2 0x683 DUP4 PUSH2 0x223F JUMP JUMPDEST PUSH1 0x40 DUP1 MLOAD DUP1 DUP3 ADD DUP3 MSTORE PUSH1 0x0 SWAP2 PUSH2 0x8A1 SWAP2 SWAP1 DUP7 SWAP1 PUSH1 0x2 SWAP1 DUP4 SWAP1 DUP4 SWAP1 DUP1 DUP3 DUP5 CALLDATACOPY PUSH1 0x0 SWAP3 ADD SWAP2 SWAP1 SWAP2 MSTORE POP POP PUSH1 0x40 DUP1 MLOAD PUSH1 0x80 DUP2 DUP2 ADD SWAP1 SWAP3 MSTORE SWAP2 POP DUP7 SWAP1 PUSH1 0x4 SWAP1 DUP4 SWAP1 DUP4 SWAP1 DUP1 DUP3 DUP5 CALLDATACOPY PUSH1 0x0 SWAP3 ADD SWAP2 SWAP1 SWAP2 MSTORE POP POP PUSH1 0x40 DUP1 MLOAD DUP1 DUP3 ADD DUP3 MSTORE SWAP2 POP DUP7 SWAP1 PUSH1 0x2 SWAP1 DUP4 SWAP1 DUP4 SWAP1 DUP1 DUP3 DUP5 CALLDATACOPY PUSH1 0x0 SWAP3 ADD SWAP2 SWAP1 SWAP2 MSTORE POP PUSH2 0x11FA SWAP2 POP POP JUMP JUMPDEST PUSH1 0x0 PUSH1 0x1 PUSH1 0x1 PUSH1 0xFF SHL SUB PUSH2 0x68F DUP4 DUP3 AND PUSH2 0x223F JUMP JUMPDEST PUSH1 0x0 DUP1 GAS PUSH1 0x40 DUP1 MLOAD DUP1 DUP3 ADD DUP3 MSTORE SWAP2 SWAP3 POP PUSH2 0x683 SWAP2 SWAP1 DUP6 SWAP1 PUSH1 0x2 SWAP1 DUP4 SWAP1 DUP4 SWAP1 DUP1 DUP3 DUP5 CALLDATACOPY PUSH1 0x0 SWAP3 ADD SWAP2 SWAP1 SWAP2 MSTORE POP PUSH2 0x1C40 SWAP2 POP POP JUMP JUMPDEST DUP2 MLOAD PUSH1 0x0 SWAP1 DUP1 PUSH2 0xBC8 JUMPI PUSH1 0x40 MLOAD PUSH3 0x461BCD PUSH1 0xE5 SHL DUP2 MSTORE PUSH1 0x4 ADD PUSH2 0x54D SWAP1 PUSH2 0x35B9 JUMP JUMPDEST DUP3 MLOAD DUP2 EQ PUSH2 0xC36 JUMPI PUSH1 0x40 MLOAD PUSH3 0x461BCD PUSH1 0xE5 SHL DUP2 MSTORE PUSH1 0x20 PUSH1 0x4 DUP3 ADD MSTORE PUSH1 0x35 PUSH1 0x24 DUP3 ADD MSTORE PUSH32 0x424C533A206E756D626572206F66207075626C6963206B65797320616E64206D PUSH1 0x44 DUP3 ADD MSTORE PUSH21 0x195CDCD859D95CC81B5D5CDD08189948195C5D585B PUSH1 0x5A SHL PUSH1 0x64 DUP3 ADD MSTORE PUSH1 0x84 ADD PUSH2 0x54D JUMP JUMPDEST PUSH1 0x0 PUSH2 0xC43 DUP3 PUSH1 0x1 PUSH2 0x35FA JUMP JUMPDEST PUSH2 0xC4E SWAP1 PUSH1 0x6 PUSH2 0x360D JUMP JUMPDEST SWAP1 POP PUSH1 0x0 DUP2 PUSH8 0xFFFFFFFFFFFFFFFF DUP2 GT ISZERO PUSH2 0xC6B JUMPI PUSH2 0xC6B PUSH2 0x31F5 JUMP JUMPDEST PUSH1 0x40 MLOAD SWAP1 DUP1 DUP3 MSTORE DUP1 PUSH1 0x20 MUL PUSH1 0x20 ADD DUP3 ADD PUSH1 0x40 MSTORE DUP1 ISZERO PUSH2 0xC94 JUMPI DUP2 PUSH1 0x20 ADD PUSH1 0x20 DUP3 MUL DUP1 CALLDATASIZE DUP4 CALLDATACOPY ADD SWAP1 POP JUMPDEST POP SWAP1 POP DUP7 PUSH1 0x0 PUSH1 0x20 MUL ADD MLOAD DUP2 PUSH1 0x0 DUP2 MLOAD DUP2 LT PUSH2 0xCB2 JUMPI PUSH2 0xCB2 PUSH2 0x35A3 JUMP JUMPDEST PUSH1 0x20 SWAP1 DUP2 MUL SWAP2 SWAP1 SWAP2 ADD ADD MSTORE DUP7 PUSH1 0x1 PUSH1 0x20 MUL ADD MLOAD DUP2 PUSH1 0x1 DUP2 MLOAD DUP2 LT PUSH2 0xCD8 JUMPI PUSH2 0xCD8 PUSH2 0x35A3 JUMP JUMPDEST PUSH1 0x20 MUL PUSH1 0x20 ADD ADD DUP2 DUP2 MSTORE POP POP PUSH1 0x0 DUP1 MLOAD PUSH1 0x20 PUSH2 0x375C DUP4 CODECOPY DUP2 MLOAD SWAP2 MSTORE DUP2 PUSH1 0x2 DUP2 MLOAD DUP2 LT PUSH2 0xD06 JUMPI PUSH2 0xD06 PUSH2 0x35A3 JUMP JUMPDEST PUSH1 0x20 MUL PUSH1 0x20 ADD ADD DUP2 DUP2 MSTORE POP POP PUSH1 0x0 DUP1 MLOAD PUSH1 0x20 PUSH2 0x373C DUP4 CODECOPY DUP2 MLOAD SWAP2 MSTORE DUP2 PUSH1 0x3 DUP2 MLOAD DUP2 LT PUSH2 0xD34 JUMPI PUSH2 0xD34 PUSH2 0x35A3 JUMP JUMPDEST PUSH1 0x20 MUL PUSH1 0x20 ADD ADD DUP2 DUP2 MSTORE POP POP PUSH32 0x275DC4A288D1AFB3CBB1AC09187524C7DB36395DF7BE3B99E673B13A075A65EC DUP2 PUSH1 0x4 DUP2 MLOAD DUP2 LT PUSH2 0xD74 JUMPI PUSH2 0xD74 PUSH2 0x35A3 JUMP JUMPDEST PUSH1 0x20 MUL PUSH1 0x20 ADD ADD DUP2 DUP2 MSTORE POP POP PUSH32 0x1D9BEFCD05A5323E6DA4D435F3B617CDB3AF83285C2DF711EF39C01571827F9D DUP2 PUSH1 0x5 DUP2 MLOAD DUP2 LT PUSH2 0xDB4 JUMPI PUSH2 0xDB4 PUSH2 0x35A3 JUMP JUMPDEST PUSH1 0x20 MUL PUSH1 0x20 ADD ADD DUP2 DUP2 MSTORE POP POP PUSH1 0x0 JUMPDEST DUP4 DUP2 LT ISZERO PUSH2 0x1034 JUMPI DUP6 DUP2 DUP2 MLOAD DUP2 LT PUSH2 0xDDD JUMPI PUSH2 0xDDD PUSH2 0x35A3 JUMP JUMPDEST PUSH1 0x20 MUL PUSH1 0x20 ADD ADD MLOAD PUSH1 0x0 PUSH1 0x2 DUP2 LT PUSH2 0xDF7 JUMPI PUSH2 0xDF7 PUSH2 0x35A3 JUMP JUMPDEST PUSH1 0x20 MUL ADD MLOAD DUP3 PUSH2 0xE08 DUP4 PUSH1 0x6 PUSH2 0x360D JUMP JUMPDEST PUSH2 0xE13 SWAP1 PUSH1 0x6 PUSH2 0x35FA JUMP JUMPDEST DUP2 MLOAD DUP2 LT PUSH2 0xE23 JUMPI PUSH2 0xE23 PUSH2 0x35A3 JUMP JUMPDEST PUSH1 0x20 MUL PUSH1 0x20 ADD ADD DUP2 DUP2 MSTORE POP POP DUP6 DUP2 DUP2 MLOAD DUP2 LT PUSH2 0xE41 JUMPI PUSH2 0xE41 PUSH2 0x35A3 JUMP JUMPDEST PUSH1 0x20 MUL PUSH1 0x20 ADD ADD MLOAD PUSH1 0x1 PUSH1 0x2 DUP2 LT PUSH2 0xE5B JUMPI PUSH2 0xE5B PUSH2 0x35A3 JUMP JUMPDEST PUSH1 0x20 MUL ADD MLOAD DUP3 PUSH2 0xE6C DUP4 PUSH1 0x6 PUSH2 0x360D JUMP JUMPDEST PUSH2 0xE77 SWAP1 PUSH1 0x7 PUSH2 0x35FA JUMP JUMPDEST DUP2 MLOAD DUP2 LT PUSH2 0xE87 JUMPI PUSH2 0xE87 PUSH2 0x35A3 JUMP JUMPDEST PUSH1 0x20 MUL PUSH1 0x20 ADD ADD DUP2 DUP2 MSTORE POP POP DUP7 DUP2 DUP2 MLOAD DUP2 LT PUSH2 0xEA5 JUMPI PUSH2 0xEA5 PUSH2 0x35A3 JUMP JUMPDEST PUSH1 0x20 MUL PUSH1 0x20 ADD ADD MLOAD PUSH1 0x1 PUSH1 0x4 DUP2 LT PUSH2 0xEBF JUMPI PUSH2 0xEBF PUSH2 0x35A3 JUMP JUMPDEST PUSH1 0x20 MUL ADD MLOAD DUP3 PUSH2 0xED0 DUP4 PUSH1 0x6 PUSH2 0x360D JUMP JUMPDEST PUSH2 0xEDB SWAP1 PUSH1 0x8 PUSH2 0x35FA JUMP JUMPDEST DUP2 MLOAD DUP2 LT PUSH2 0xEEB JUMPI PUSH2 0xEEB PUSH2 0x35A3 JUMP JUMPDEST PUSH1 0x20 MUL PUSH1 0x20 ADD ADD DUP2 DUP2 MSTORE POP POP DUP7 DUP2 DUP2 MLOAD DUP2 LT PUSH2 0xF09 JUMPI PUSH2 0xF09 PUSH2 0x35A3 JUMP JUMPDEST PUSH1 0x20 MUL PUSH1 0x20 ADD ADD MLOAD PUSH1 0x0 PUSH1 0x4 DUP2 LT PUSH2 0xF23 JUMPI PUSH2 0xF23 PUSH2 0x35A3 JUMP JUMPDEST PUSH1 0x20 MUL ADD MLOAD DUP3 PUSH2 0xF34 DUP4 PUSH1 0x6 PUSH2 0x360D JUMP JUMPDEST PUSH2 0xF3F SWAP1 PUSH1 0x9 PUSH2 0x35FA JUMP JUMPDEST DUP2 MLOAD DUP2 LT PUSH2 0xF4F JUMPI PUSH2 0xF4F PUSH2 0x35A3 JUMP JUMPDEST PUSH1 0x20 MUL PUSH1 0x20 ADD ADD DUP2 DUP2 MSTORE POP POP DUP7 DUP2 DUP2 MLOAD DUP2 LT PUSH2 0xF6D JUMPI PUSH2 0xF6D PUSH2 0x35A3 JUMP JUMPDEST PUSH1 0x20 MUL PUSH1 0x20 ADD ADD MLOAD PUSH1 0x3 PUSH1 0x4 DUP2 LT PUSH2 0xF87 JUMPI PUSH2 0xF87 PUSH2 0x35A3 JUMP JUMPDEST PUSH1 0x20 MUL ADD MLOAD DUP3 PUSH2 0xF98 DUP4 PUSH1 0x6 PUSH2 0x360D JUMP JUMPDEST PUSH2 0xFA3 SWAP1 PUSH1 0xA PUSH2 0x35FA JUMP JUMPDEST DUP2 MLOAD DUP2 LT PUSH2 0xFB3 JUMPI PUSH2 0xFB3 PUSH2 0x35A3 JUMP JUMPDEST PUSH1 0x20 MUL PUSH1 0x20 ADD ADD DUP2 DUP2 MSTORE POP POP DUP7 DUP2 DUP2 MLOAD DUP2 LT PUSH2 0xFD1 JUMPI PUSH2 0xFD1 PUSH2 0x35A3 JUMP JUMPDEST PUSH1 0x20 MUL PUSH1 0x20 ADD ADD MLOAD PUSH1 0x2 PUSH1 0x4 DUP2 LT PUSH2 0xFEB JUMPI PUSH2 0xFEB PUSH2 0x35A3 JUMP JUMPDEST PUSH1 0x20 MUL ADD MLOAD DUP3 PUSH2 0xFFC DUP4 PUSH1 0x6 PUSH2 0x360D JUMP JUMPDEST PUSH2 0x1007 SWAP1 PUSH1 0xB PUSH2 0x35FA JUMP JUMPDEST DUP2 MLOAD DUP2 LT PUSH2 0x1017 JUMPI PUSH2 0x1017 PUSH2 0x35A3 JUMP JUMPDEST PUSH1 0x20 SWAP1 DUP2 MUL SWAP2 SWAP1 SWAP2 ADD ADD MSTORE DUP1 PUSH2 0x102C DUP2 PUSH2 0x3624 JUMP JUMPDEST SWAP2 POP POP PUSH2 0xDC3 JUMP JUMPDEST POP PUSH2 0x103D PUSH2 0x2F46 JUMP JUMPDEST PUSH1 0x0 PUSH1 0x20 DUP3 PUSH1 0x20 DUP7 MUL PUSH1 0x20 DUP7 ADD PUSH1 0x8 PUSH2 0x7D0 GAS SUB STATICCALL SWAP1 POP DUP1 DUP1 PUSH2 0x105C JUMPI INVALID JUMPDEST POP DUP1 PUSH2 0x1084 JUMPI PUSH1 0x40 MLOAD PUSH3 0x461BCD PUSH1 0xE5 SHL DUP2 MSTORE PUSH1 0x20 PUSH1 0x4 DUP3 ADD MSTORE PUSH1 0x0 PUSH1 0x24 DUP3 ADD MSTORE PUSH1 0x44 ADD PUSH2 0x54D JUMP JUMPDEST POP MLOAD ISZERO ISZERO SWAP8 SWAP7 POP POP POP POP POP POP POP JUMP JUMPDEST PUSH1 0x0 DUP2 MLOAD PUSH1 0x20 DUP4 ADD MLOAD PUSH1 0x0 DUP1 MLOAD PUSH1 0x20 PUSH2 0x377C DUP4 CODECOPY DUP2 MLOAD SWAP2 MSTORE DUP3 DUP4 MULMOD PUSH1 0x0 DUP1 MLOAD PUSH1 0x20 PUSH2 0x377C DUP4 CODECOPY DUP2 MLOAD SWAP2 MSTORE DUP3 DUP4 MULMOD DUP2 DUP3 DUP4 ADD ADD PUSH1 0x0 DUP1 MLOAD PUSH1 0x20 PUSH2 0x377C DUP4 CODECOPY DUP2 MLOAD SWAP2 MSTORE DUP3 DUP4 DUP5 ADD ADDMOD PUSH1 0x0 DUP1 MLOAD PUSH1 0x20 PUSH2 0x377C DUP4 CODECOPY DUP2 MLOAD SWAP2 MSTORE DUP7 DUP3 PUSH1 0x0 DUP1 MLOAD PUSH1 0x20 PUSH2 0x377C DUP4 CODECOPY DUP2 MLOAD SWAP2 MSTORE SUB DUP7 ADD MULMOD SWAP4 POP POP PUSH1 0x0 DUP1 MLOAD PUSH1 0x20 PUSH2 0x377C DUP4 CODECOPY DUP2 MLOAD SWAP2 MSTORE DUP5 DUP4 PUSH1 0x0 DUP1 MLOAD PUSH1 0x20 PUSH2 0x377C DUP4 CODECOPY DUP2 MLOAD SWAP2 MSTORE SUB DUP4 ADD MULMOD SWAP2 POP PUSH1 0x0 DUP1 MLOAD PUSH1 0x20 PUSH2 0x377C DUP4 CODECOPY DUP2 MLOAD SWAP2 MSTORE PUSH32 0x2B149D40CEB8AAAE81BE18991BE06AC3B5B4C5E559DBEFA33267E6DC24A138E5 DUP5 ADDMOD SWAP5 POP PUSH1 0x0 DUP1 MLOAD PUSH1 0x20 PUSH2 0x377C DUP4 CODECOPY DUP2 MLOAD SWAP2 MSTORE PUSH31 0x9713B03AF0FED4CD2CAFADEED8FDF4A74FA084E52D1852E4A2BD0685C315D2 DUP4 ADDMOD SWAP4 POP PUSH1 0x40 DUP8 ADD MLOAD SWAP3 POP PUSH1 0x60 DUP8 ADD MLOAD SWAP2 POP PUSH1 0x0 DUP1 MLOAD PUSH1 0x20 PUSH2 0x377C DUP4 CODECOPY DUP2 MLOAD SWAP2 MSTORE DUP1 DUP4 PUSH1 0x0 DUP1 MLOAD PUSH1 0x20 PUSH2 0x377C DUP4 CODECOPY DUP2 MLOAD SWAP2 MSTORE SUB DUP6 ADDMOD PUSH1 0x0 DUP1 MLOAD PUSH1 0x20 PUSH2 0x377C DUP4 CODECOPY DUP2 MLOAD SWAP2 MSTORE DUP5 DUP7 ADDMOD MULMOD SWAP1 POP PUSH1 0x0 DUP1 MLOAD PUSH1 0x20 PUSH2 0x377C DUP4 CODECOPY DUP2 MLOAD SWAP2 MSTORE DUP3 DUP5 PUSH1 0x1 SHL MULMOD SWAP5 EQ SWAP3 SWAP1 SWAP4 EQ SWAP2 SWAP1 SWAP2 AND SWAP5 SWAP4 POP POP POP POP JUMP JUMPDEST PUSH1 0x0 DUP1 PUSH1 0x40 MLOAD DUP1 PUSH2 0x180 ADD PUSH1 0x40 MSTORE DUP1 DUP7 PUSH1 0x0 PUSH1 0x2 DUP2 LT PUSH2 0x121C JUMPI PUSH2 0x121C PUSH2 0x35A3 JUMP JUMPDEST PUSH1 0x20 MUL ADD MLOAD DUP2 MSTORE PUSH1 0x20 ADD DUP7 PUSH1 0x1 PUSH1 0x2 DUP2 LT PUSH2 0x1239 JUMPI PUSH2 0x1239 PUSH2 0x35A3 JUMP JUMPDEST PUSH1 0x20 MUL ADD MLOAD DUP2 MSTORE PUSH1 0x20 ADD PUSH1 0x0 DUP1 MLOAD PUSH1 0x20 PUSH2 0x375C DUP4 CODECOPY DUP2 MLOAD SWAP2 MSTORE DUP2 MSTORE PUSH1 0x20 ADD PUSH1 0x0 DUP1 MLOAD PUSH1 0x20 PUSH2 0x373C DUP4 CODECOPY DUP2 MLOAD SWAP2 MSTORE DUP2 MSTORE PUSH1 0x20 ADD PUSH32 0x275DC4A288D1AFB3CBB1AC09187524C7DB36395DF7BE3B99E673B13A075A65EC DUP2 MSTORE PUSH1 0x20 ADD PUSH32 0x1D9BEFCD05A5323E6DA4D435F3B617CDB3AF83285C2DF711EF39C01571827F9D DUP2 MSTORE PUSH1 0x20 ADD DUP5 PUSH1 0x0 PUSH1 0x2 DUP2 LT PUSH2 0x12CA JUMPI PUSH2 0x12CA PUSH2 0x35A3 JUMP JUMPDEST PUSH1 0x20 MUL ADD MLOAD DUP2 MSTORE PUSH1 0x20 ADD DUP5 PUSH1 0x1 PUSH1 0x2 DUP2 LT PUSH2 0x12E7 JUMPI PUSH2 0x12E7 PUSH2 0x35A3 JUMP JUMPDEST PUSH1 0x20 MUL ADD MLOAD DUP2 MSTORE PUSH1 0x20 ADD DUP6 PUSH1 0x1 PUSH1 0x4 DUP2 LT PUSH2 0x1304 JUMPI PUSH2 0x1304 PUSH2 0x35A3 JUMP JUMPDEST PUSH1 0x20 MUL ADD MLOAD DUP2 MSTORE PUSH1 0x20 ADD DUP6 PUSH1 0x0 PUSH1 0x4 DUP2 LT PUSH2 0x1321 JUMPI PUSH2 0x1321 PUSH2 0x35A3 JUMP JUMPDEST PUSH1 0x20 MUL ADD MLOAD DUP2 MSTORE PUSH1 0x20 ADD DUP6 PUSH1 0x3 PUSH1 0x4 DUP2 LT PUSH2 0x133E JUMPI PUSH2 0x133E PUSH2 0x35A3 JUMP JUMPDEST PUSH1 0x20 MUL ADD MLOAD DUP2 MSTORE PUSH1 0x20 ADD DUP6 PUSH1 0x2 PUSH1 0x4 DUP2 LT PUSH2 0x135B JUMPI PUSH2 0x135B PUSH2 0x35A3 JUMP JUMPDEST PUSH1 0x20 MUL ADD MLOAD SWAP1 MSTORE SWAP1 POP PUSH2 0x136C PUSH2 0x2F46 JUMP JUMPDEST PUSH1 0x0 PUSH1 0x20 DUP3 PUSH2 0x180 DUP6 PUSH1 0x8 PUSH2 0x7D0 GAS SUB STATICCALL SWAP1 POP DUP1 DUP1 PUSH2 0x1387 JUMPI INVALID JUMPDEST POP DUP1 PUSH2 0x13AF JUMPI PUSH1 0x40 MLOAD PUSH3 0x461BCD PUSH1 0xE5 SHL DUP2 MSTORE PUSH1 0x20 PUSH1 0x4 DUP3 ADD MSTORE PUSH1 0x0 PUSH1 0x24 DUP3 ADD MSTORE PUSH1 0x44 ADD PUSH2 0x54D JUMP JUMPDEST POP MLOAD ISZERO ISZERO SWAP6 SWAP5 POP POP POP POP POP JUMP JUMPDEST PUSH1 0x0 DUP2 MLOAD PUSH1 0x20 DUP4 ADD MLOAD PUSH1 0x0 DUP1 MLOAD PUSH1 0x20 PUSH2 0x377C DUP4 CODECOPY DUP2 MLOAD SWAP2 MSTORE DUP3 DUP4 MULMOD PUSH1 0x0 DUP1 MLOAD PUSH1 0x20 PUSH2 0x377C DUP4 CODECOPY DUP2 MLOAD SWAP2 MSTORE DUP4 DUP3 MULMOD SWAP1 POP PUSH1 0x0 DUP1 MLOAD PUSH1 0x20 PUSH2 0x377C DUP4 CODECOPY DUP2 MLOAD SWAP2 MSTORE PUSH1 0x3 DUP3 ADDMOD SWAP1 POP PUSH1 0x0 DUP1 MLOAD PUSH1 0x20 PUSH2 0x377C DUP4 CODECOPY DUP2 MLOAD SWAP2 MSTORE DUP3 DUP4 MULMOD EQ SWAP5 SWAP4 POP POP POP POP JUMP JUMPDEST PUSH2 0x1423 PUSH2 0x2F0A JUMP JUMPDEST PUSH2 0x5A0 DUP3 DUP1 MLOAD SWAP1 PUSH1 0x20 ADD KECCAK256 PUSH2 0x22DD JUMP JUMPDEST PUSH1 0x0 DUP1 PUSH1 0x40 MLOAD PUSH1 0x20 DUP2 MSTORE PUSH1 0x20 DUP1 DUP3 ADD MSTORE PUSH1 0x20 PUSH1 0x40 DUP3 ADD MSTORE DUP4 PUSH1 0x60 DUP3 ADD MSTORE PUSH1 0x0 DUP1 MLOAD PUSH1 0x20 PUSH2 0x379C DUP4 CODECOPY DUP2 MLOAD SWAP2 MSTORE PUSH1 0x80 DUP3 ADD MSTORE PUSH1 0x0 DUP1 MLOAD PUSH1 0x20 PUSH2 0x377C DUP4 CODECOPY DUP2 MLOAD SWAP2 MSTORE PUSH1 0xA0 DUP3 ADD MSTORE PUSH1 0x20 DUP2 PUSH1 0xC0 DUP4 PUSH1 0x5 PUSH2 0x7D0 GAS SUB STATICCALL SWAP1 MLOAD PUSH1 0x1 EQ SWAP3 POP SWAP1 POP DUP1 PUSH2 0x14EB JUMPI PUSH1 0x40 MLOAD PUSH3 0x461BCD PUSH1 0xE5 SHL DUP2 MSTORE PUSH1 0x20 PUSH1 0x4 DUP3 ADD MSTORE PUSH1 0x26 PUSH1 0x24 DUP3 ADD MSTORE PUSH32 0x424C533A2069734E6F6E526573696475654650206D6F646578702063616C6C20 PUSH1 0x44 DUP3 ADD MSTORE PUSH6 0x19985A5B1959 PUSH1 0xD2 SHL PUSH1 0x64 DUP3 ADD MSTORE PUSH1 0x84 ADD PUSH2 0x54D JUMP JUMPDEST POP ISZERO SWAP2 SWAP1 POP JUMP JUMPDEST DUP1 MLOAD PUSH1 0x20 DUP3 ADD MLOAD PUSH1 0x40 DUP4 ADD MLOAD PUSH1 0x60 DUP5 ADD MLOAD PUSH1 0x0 SWAP4 SWAP3 SWAP2 SWAP1 DUP5 DUP1 DUP1 DUP1 PUSH2 0x153A PUSH32 0x30644E72E131A029B85045B68181585D2833E84879B9709143E1F593F0000001 DUP10 DUP10 DUP10 DUP10 PUSH2 0x2387 JUMP JUMPDEST SWAP3 SWAP7 POP SWAP1 SWAP5 POP SWAP3 POP SWAP1 POP DUP4 ISZERO DUP1 ISZERO PUSH2 0x1550 JUMPI POP DUP3 ISZERO JUMPDEST DUP1 ISZERO PUSH2 0x155A JUMPI POP DUP2 ISZERO JUMPDEST DUP1 ISZERO PUSH2 0x1564 JUMPI POP DUP1 ISZERO JUMPDEST SWAP11 SWAP10 POP POP POP POP POP POP POP POP POP POP JUMP JUMPDEST PUSH1 0x20 DUP2 ADD MLOAD PUSH1 0x0 SWAP1 DUP2 SWAP1 PUSH1 0x0 DUP1 MLOAD PUSH1 0x20 PUSH2 0x377C DUP4 CODECOPY DUP2 MLOAD SWAP2 MSTORE SWAP1 DUP2 SWAP1 DUP1 MULMOD DUP5 MLOAD PUSH1 0x0 DUP1 MLOAD PUSH1 0x20 PUSH2 0x377C DUP4 CODECOPY DUP2 MLOAD SWAP2 MSTORE SWAP1 DUP1 MULMOD ADDMOD SWAP1 POP PUSH1 0x0 PUSH1 0x40 MLOAD PUSH1 0x20 DUP2 MSTORE PUSH1 0x20 DUP1 DUP3 ADD MSTORE PUSH1 0x20 PUSH1 0x40 DUP3 ADD MSTORE DUP3 PUSH1 0x60 DUP3 ADD MSTORE PUSH1 0x0 DUP1 MLOAD PUSH1 0x20 PUSH2 0x379C DUP4 CODECOPY DUP2 MLOAD SWAP2 MSTORE PUSH1 0x80 DUP3 ADD MSTORE PUSH1 0x0 DUP1 MLOAD PUSH1 0x20 PUSH2 0x377C DUP4 CODECOPY DUP2 MLOAD SWAP2 MSTORE PUSH1 0xA0 DUP3 ADD MSTORE PUSH1 0x20 DUP2 PUSH1 0xC0 DUP4 PUSH1 0x5 PUSH2 0x7D0 GAS SUB STATICCALL SWAP1 MLOAD PUSH1 0x1 EQ SWAP4 POP SWAP1 POP DUP1 PUSH2 0x165F JUMPI PUSH1 0x40 MLOAD PUSH3 0x461BCD PUSH1 0xE5 SHL DUP2 MSTORE PUSH1 0x20 PUSH1 0x4 DUP3 ADD MSTORE PUSH1 0x27 PUSH1 0x24 DUP3 ADD MSTORE PUSH32 0x424C533A2069734E6F6E52657369647565465032206D6F646578702063616C6C PUSH1 0x44 DUP3 ADD MSTORE PUSH7 0x819985A5B1959 PUSH1 0xCA SHL PUSH1 0x64 DUP3 ADD MSTORE PUSH1 0x84 ADD PUSH2 0x54D JUMP JUMPDEST POP POP ISZERO SWAP2 SWAP1 POP JUMP JUMPDEST DUP1 MLOAD PUSH1 0x0 SWAP1 DUP1 PUSH2 0x1689 JUMPI PUSH1 0x40 MLOAD PUSH3 0x461BCD PUSH1 0xE5 SHL DUP2 MSTORE PUSH1 0x4 ADD PUSH2 0x54D SWAP1 PUSH2 0x35B9 JUMP JUMPDEST PUSH1 0x0 PUSH2 0x1696 DUP3 PUSH1 0x1 PUSH2 0x35FA JUMP JUMPDEST PUSH2 0x16A1 SWAP1 PUSH1 0x6 PUSH2 0x360D JUMP JUMPDEST SWAP1 POP PUSH1 0x0 DUP2 PUSH8 0xFFFFFFFFFFFFFFFF DUP2 GT ISZERO PUSH2 0x16BE JUMPI PUSH2 0x16BE PUSH2 0x31F5 JUMP JUMPDEST PUSH1 0x40 MLOAD SWAP1 DUP1 DUP3 MSTORE DUP1 PUSH1 0x20 MUL PUSH1 0x20 ADD DUP3 ADD PUSH1 0x40 MSTORE DUP1 ISZERO PUSH2 0x16E7 JUMPI DUP2 PUSH1 0x20 ADD PUSH1 0x20 DUP3 MUL DUP1 CALLDATASIZE DUP4 CALLDATACOPY ADD SWAP1 POP JUMPDEST POP SWAP1 POP DUP6 PUSH1 0x0 PUSH1 0x20 MUL ADD MLOAD DUP2 PUSH1 0x0 DUP2 MLOAD DUP2 LT PUSH2 0x1705 JUMPI PUSH2 0x1705 PUSH2 0x35A3 JUMP JUMPDEST PUSH1 0x20 SWAP1 DUP2 MUL SWAP2 SWAP1 SWAP2 ADD ADD MSTORE DUP6 PUSH1 0x1 PUSH1 0x20 MUL ADD MLOAD DUP2 PUSH1 0x1 DUP2 MLOAD DUP2 LT PUSH2 0x172B JUMPI PUSH2 0x172B PUSH2 0x35A3 JUMP JUMPDEST PUSH1 0x20 MUL PUSH1 0x20 ADD ADD DUP2 DUP2 MSTORE POP POP PUSH1 0x0 DUP1 MLOAD PUSH1 0x20 PUSH2 0x375C DUP4 CODECOPY DUP2 MLOAD SWAP2 MSTORE DUP2 PUSH1 0x2 DUP2 MLOAD DUP2 LT PUSH2 0x1759 JUMPI PUSH2 0x1759 PUSH2 0x35A3 JUMP JUMPDEST PUSH1 0x20 MUL PUSH1 0x20 ADD ADD DUP2 DUP2 MSTORE POP POP PUSH1 0x0 DUP1 MLOAD PUSH1 0x20 PUSH2 0x373C DUP4 CODECOPY DUP2 MLOAD SWAP2 MSTORE DUP2 PUSH1 0x3 DUP2 MLOAD DUP2 LT PUSH2 0x1787 JUMPI PUSH2 0x1787 PUSH2 0x35A3 JUMP JUMPDEST PUSH1 0x20 MUL PUSH1 0x20 ADD ADD DUP2 DUP2 MSTORE POP POP PUSH32 0x90689D0585FF075EC9E99AD690C3395BC4B313370B38EF355ACDADCD122975B DUP2 PUSH1 0x4 DUP2 MLOAD DUP2 LT PUSH2 0x17C7 JUMPI PUSH2 0x17C7 PUSH2 0x35A3 JUMP JUMPDEST PUSH1 0x20 MUL PUSH1 0x20 ADD ADD DUP2 DUP2 MSTORE POP POP PUSH32 0x12C85EA5DB8C6DEB4AAB71808DCB408FE3D1E7690C43D37B4CE6CC0166FA7DAA DUP2 PUSH1 0x5 DUP2 MLOAD DUP2 LT PUSH2 0x1807 JUMPI PUSH2 0x1807 PUSH2 0x35A3 JUMP JUMPDEST PUSH1 0x20 MUL PUSH1 0x20 ADD ADD DUP2 DUP2 MSTORE POP POP PUSH1 0x0 JUMPDEST DUP4 DUP2 LT ISZERO PUSH2 0x1A47 JUMPI PUSH1 0x1 DUP3 PUSH2 0x182C DUP4 PUSH1 0x6 PUSH2 0x360D JUMP JUMPDEST PUSH2 0x1837 SWAP1 PUSH1 0x6 PUSH2 0x35FA JUMP JUMPDEST DUP2 MLOAD DUP2 LT PUSH2 0x1847 JUMPI PUSH2 0x1847 PUSH2 0x35A3 JUMP JUMPDEST PUSH1 0x20 SWAP1 DUP2 MUL SWAP2 SWAP1 SWAP2 ADD ADD MSTORE PUSH32 0x30644E72E131A029B85045B68181585D97816A916871CA8D3C208C16D87CFD45 DUP3 PUSH2 0x187F DUP4 PUSH1 0x6 PUSH2 0x360D JUMP JUMPDEST PUSH2 0x188A SWAP1 PUSH1 0x7 PUSH2 0x35FA JUMP JUMPDEST DUP2 MLOAD DUP2 LT PUSH2 0x189A JUMPI PUSH2 0x189A PUSH2 0x35A3 JUMP JUMPDEST PUSH1 0x20 MUL PUSH1 0x20 ADD ADD DUP2 DUP2 MSTORE POP POP DUP6 DUP2 DUP2 MLOAD DUP2 LT PUSH2 0x18B8 JUMPI PUSH2 0x18B8 PUSH2 0x35A3 JUMP JUMPDEST PUSH1 0x20 MUL PUSH1 0x20 ADD ADD MLOAD PUSH1 0x1 PUSH1 0x4 DUP2 LT PUSH2 0x18D2 JUMPI PUSH2 0x18D2 PUSH2 0x35A3 JUMP JUMPDEST PUSH1 0x20 MUL ADD MLOAD DUP3 PUSH2 0x18E3 DUP4 PUSH1 0x6 PUSH2 0x360D JUMP JUMPDEST PUSH2 0x18EE SWAP1 PUSH1 0x8 PUSH2 0x35FA JUMP JUMPDEST DUP2 MLOAD DUP2 LT PUSH2 0x18FE JUMPI PUSH2 0x18FE PUSH2 0x35A3 JUMP JUMPDEST PUSH1 0x20 MUL PUSH1 0x20 ADD ADD DUP2 DUP2 MSTORE POP POP DUP6 DUP2 DUP2 MLOAD DUP2 LT PUSH2 0x191C JUMPI PUSH2 0x191C PUSH2 0x35A3 JUMP JUMPDEST PUSH1 0x20 MUL PUSH1 0x20 ADD ADD MLOAD PUSH1 0x0 PUSH1 0x4 DUP2 LT PUSH2 0x1936 JUMPI PUSH2 0x1936 PUSH2 0x35A3 JUMP JUMPDEST PUSH1 0x20 MUL ADD MLOAD DUP3 PUSH2 0x1947 DUP4 PUSH1 0x6 PUSH2 0x360D JUMP JUMPDEST PUSH2 0x1952 SWAP1 PUSH1 0x9 PUSH2 0x35FA JUMP JUMPDEST DUP2 MLOAD DUP2 LT PUSH2 0x1962 JUMPI PUSH2 0x1962 PUSH2 0x35A3 JUMP JUMPDEST PUSH1 0x20 MUL PUSH1 0x20 ADD ADD DUP2 DUP2 MSTORE POP POP DUP6 DUP2 DUP2 MLOAD DUP2 LT PUSH2 0x1980 JUMPI PUSH2 0x1980 PUSH2 0x35A3 JUMP JUMPDEST PUSH1 0x20 MUL PUSH1 0x20 ADD ADD MLOAD PUSH1 0x3 PUSH1 0x4 DUP2 LT PUSH2 0x199A JUMPI PUSH2 0x199A PUSH2 0x35A3 JUMP JUMPDEST PUSH1 0x20 MUL ADD MLOAD DUP3 PUSH2 0x19AB DUP4 PUSH1 0x6 PUSH2 0x360D JUMP JUMPDEST PUSH2 0x19B6 SWAP1 PUSH1 0xA PUSH2 0x35FA JUMP JUMPDEST DUP2 MLOAD DUP2 LT PUSH2 0x19C6 JUMPI PUSH2 0x19C6 PUSH2 0x35A3 JUMP JUMPDEST PUSH1 0x20 MUL PUSH1 0x20 ADD ADD DUP2 DUP2 MSTORE POP POP DUP6 DUP2 DUP2 MLOAD DUP2 LT PUSH2 0x19E4 JUMPI PUSH2 0x19E4 PUSH2 0x35A3 JUMP JUMPDEST PUSH1 0x20 MUL PUSH1 0x20 ADD ADD MLOAD PUSH1 0x2 PUSH1 0x4 DUP2 LT PUSH2 0x19FE JUMPI PUSH2 0x19FE PUSH2 0x35A3 JUMP JUMPDEST PUSH1 0x20 MUL ADD MLOAD DUP3 PUSH2 0x1A0F DUP4 PUSH1 0x6 PUSH2 0x360D JUMP JUMPDEST PUSH2 0x1A1A SWAP1 PUSH1 0xB PUSH2 0x35FA JUMP JUMPDEST DUP2 MLOAD DUP2 LT PUSH2 0x1A2A JUMPI PUSH2 0x1A2A PUSH2 0x35A3 JUMP JUMPDEST PUSH1 0x20 SWAP1 DUP2 MUL SWAP2 SWAP1 SWAP2 ADD ADD MSTORE DUP1 PUSH2 0x1A3F DUP2 PUSH2 0x3624 JUMP JUMPDEST SWAP2 POP POP PUSH2 0x1816 JUMP JUMPDEST POP PUSH2 0x1A50 PUSH2 0x2F46 JUMP JUMPDEST PUSH1 0x0 PUSH1 0x20 DUP3 PUSH1 0x20 DUP7 MUL PUSH1 0x20 DUP7 ADD PUSH1 0x8 PUSH2 0x7D0 GAS SUB STATICCALL SWAP1 POP DUP1 DUP1 PUSH2 0x1A6F JUMPI INVALID JUMPDEST POP DUP1 PUSH2 0x1A97 JUMPI PUSH1 0x40 MLOAD PUSH3 0x461BCD PUSH1 0xE5 SHL DUP2 MSTORE PUSH1 0x20 PUSH1 0x4 DUP3 ADD MSTORE PUSH1 0x0 PUSH1 0x24 DUP3 ADD MSTORE PUSH1 0x44 ADD PUSH2 0x54D JUMP JUMPDEST POP MLOAD ISZERO ISZERO SWAP7 SWAP6 POP POP POP POP POP POP JUMP JUMPDEST PUSH1 0x0 DUP1 PUSH2 0x1AB1 DUP5 PUSH2 0x141B JUMP JUMPDEST SWAP1 POP PUSH2 0x1ABE DUP4 DUP7 DUP4 PUSH2 0x11FA JUMP JUMPDEST PUSH2 0x1B00 JUMPI PUSH1 0x40 MLOAD PUSH3 0x461BCD PUSH1 0xE5 SHL DUP2 MSTORE PUSH1 0x20 PUSH1 0x4 DUP3 ADD MSTORE PUSH1 0x13 PUSH1 0x24 DUP3 ADD MSTORE PUSH19 0x1D995C9A599A58D85D1A5BDB8819985A5B1959 PUSH1 0x6A SHL PUSH1 0x44 DUP3 ADD MSTORE PUSH1 0x64 ADD PUSH2 0x54D JUMP JUMPDEST DUP3 MLOAD PUSH1 0x20 DUP1 DUP6 ADD MLOAD DUP8 MLOAD DUP9 DUP4 ADD MLOAD PUSH1 0x40 DUP1 DUP12 ADD MLOAD PUSH1 0x60 DUP13 ADD MLOAD DUP14 MLOAD DUP15 DUP9 ADD MLOAD SWAP4 MLOAD PUSH1 0x0 SWAP10 PUSH2 0x1B3B SWAP10 DUP16 SWAP10 SWAP2 SWAP9 SWAP2 SWAP8 SWAP2 SWAP7 SWAP2 SWAP6 SWAP5 SWAP4 SWAP3 ADD PUSH2 0x3653 JUMP JUMPDEST PUSH1 0x40 MLOAD PUSH1 0x20 DUP2 DUP4 SUB SUB DUP2 MSTORE SWAP1 PUSH1 0x40 MSTORE DUP1 MLOAD SWAP1 PUSH1 0x20 ADD KECCAK256 PUSH1 0x0 SHR SWAP1 POP PUSH1 0x0 PUSH2 0x1B62 DUP9 DUP4 PUSH2 0x2431 JUMP JUMPDEST SWAP1 POP PUSH1 0x0 PUSH2 0x1B86 PUSH1 0x40 MLOAD DUP1 PUSH1 0x40 ADD PUSH1 0x40 MSTORE DUP1 PUSH1 0x1 DUP2 MSTORE PUSH1 0x20 ADD PUSH1 0x2 DUP2 MSTORE POP DUP5 PUSH2 0x2431 JUMP JUMPDEST SWAP1 POP PUSH1 0x0 PUSH2 0x1B94 DUP8 DUP5 PUSH2 0x247A JUMP JUMPDEST SWAP1 POP PUSH1 0x0 PUSH2 0x1BA2 DUP7 DUP5 PUSH2 0x247A JUMP JUMPDEST SWAP1 POP PUSH2 0x1BAF DUP3 DUP12 DUP4 PUSH2 0x11FA JUMP JUMPDEST SWAP12 SWAP11 POP POP POP POP POP POP POP POP POP POP POP JUMP JUMPDEST DUP1 MLOAD PUSH1 0x20 DUP3 ADD MLOAD PUSH1 0x0 SWAP2 PUSH1 0x1 PUSH1 0x1 PUSH1 0xFF SHL SUB AND SWAP1 PUSH1 0x0 DUP1 MLOAD PUSH1 0x20 PUSH2 0x377C DUP4 CODECOPY DUP2 MLOAD SWAP2 MSTORE DUP3 LT ISZERO DUP1 PUSH2 0x1BFD JUMPI POP PUSH1 0x0 DUP1 MLOAD PUSH1 0x20 PUSH2 0x377C DUP4 CODECOPY DUP2 MLOAD SWAP2 MSTORE DUP2 LT ISZERO JUMPDEST ISZERO PUSH2 0x1C0C JUMPI POP PUSH1 0x0 SWAP4 SWAP3 POP POP POP JUMP JUMPDEST DUP2 ISZERO DUP1 ISZERO PUSH2 0x1C18 JUMPI POP DUP1 ISZERO JUMPDEST ISZERO PUSH2 0x1C27 JUMPI POP PUSH1 0x0 SWAP4 SWAP3 POP POP POP JUMP JUMPDEST PUSH2 0x8A1 PUSH1 0x40 MLOAD DUP1 PUSH1 0x40 ADD PUSH1 0x40 MSTORE DUP1 DUP5 DUP2 MSTORE PUSH1 0x20 ADD DUP4 DUP2 MSTORE POP JUMPDEST PUSH1 0x0 DUP1 PUSH1 0x0 DUP4 ADD MLOAD PUSH1 0x20 DUP5 ADD MLOAD PUSH1 0x0 DUP1 MLOAD PUSH1 0x20 PUSH2 0x377C DUP4 CODECOPY DUP2 MLOAD SWAP2 MSTORE DUP3 DUP4 MULMOD PUSH1 0x0 DUP1 MLOAD PUSH1 0x20 PUSH2 0x377C DUP4 CODECOPY DUP2 MLOAD SWAP2 MSTORE DUP3 DUP4 MULMOD DUP2 DUP3 DUP4 ADD ADD PUSH1 0x0 DUP1 MLOAD PUSH1 0x20 PUSH2 0x377C DUP4 CODECOPY DUP2 MLOAD SWAP2 MSTORE DUP3 DUP4 DUP5 ADD ADDMOD PUSH1 0x0 DUP1 MLOAD PUSH1 0x20 PUSH2 0x377C DUP4 CODECOPY DUP2 MLOAD SWAP2 MSTORE DUP7 DUP3 PUSH1 0x0 DUP1 MLOAD PUSH1 0x20 PUSH2 0x377C DUP4 CODECOPY DUP2 MLOAD SWAP2 MSTORE SUB DUP7 ADD MULMOD SWAP4 POP POP PUSH1 0x0 DUP1 MLOAD PUSH1 0x20 PUSH2 0x377C DUP4 CODECOPY DUP2 MLOAD SWAP2 MSTORE DUP5 DUP4 PUSH1 0x0 DUP1 MLOAD PUSH1 0x20 PUSH2 0x377C DUP4 CODECOPY DUP2 MLOAD SWAP2 MSTORE SUB DUP4 ADD MULMOD SWAP2 POP POP PUSH32 0x2B149D40CEB8AAAE81BE18991BE06AC3B5B4C5E559DBEFA33267E6DC24A138E5 DUP3 ADD SWAP4 POP PUSH31 0x9713B03AF0FED4CD2CAFADEED8FDF4A74FA084E52D1852E4A2BD0685C315D2 DUP2 ADD SWAP3 POP POP POP PUSH1 0x0 DUP1 MLOAD PUSH1 0x20 PUSH2 0x377C DUP4 CODECOPY DUP2 MLOAD SWAP2 MSTORE DUP1 DUP3 DUP4 MULMOD PUSH1 0x0 DUP1 MLOAD PUSH1 0x20 PUSH2 0x377C DUP4 CODECOPY DUP2 MLOAD SWAP2 MSTORE DUP5 DUP6 MULMOD ADDMOD SWAP2 POP POP PUSH1 0x40 MLOAD PUSH1 0x20 DUP2 MSTORE PUSH1 0x20 DUP1 DUP3 ADD MSTORE PUSH1 0x20 PUSH1 0x40 DUP3 ADD MSTORE DUP2 PUSH1 0x60 DUP3 ADD MSTORE PUSH1 0x0 DUP1 MLOAD PUSH1 0x20 PUSH2 0x379C DUP4 CODECOPY DUP2 MLOAD SWAP2 MSTORE PUSH1 0x80 DUP3 ADD MSTORE PUSH1 0x0 DUP1 MLOAD PUSH1 0x20 PUSH2 0x377C DUP4 CODECOPY DUP2 MLOAD SWAP2 MSTORE PUSH1 0xA0 DUP3 ADD MSTORE PUSH1 0x20 DUP2 PUSH1 0xC0 DUP4 PUSH1 0x5 PUSH2 0x7D0 GAS SUB STATICCALL POP MLOAD PUSH1 0x1 EQ SWAP5 SWAP4 POP POP POP POP JUMP JUMPDEST PUSH1 0x0 PUSH1 0x1 PUSH1 0x1 PUSH1 0xFF SHL SUB DUP3 AND PUSH1 0x0 DUP1 MLOAD PUSH1 0x20 PUSH2 0x377C DUP4 CODECOPY DUP2 MLOAD SWAP2 MSTORE DUP2 LT PUSH2 0x1DD3 JUMPI POP PUSH1 0x0 SWAP3 SWAP2 POP POP JUMP JUMPDEST DUP1 PUSH1 0x0 SUB PUSH2 0x1DE4 JUMPI POP PUSH1 0x0 SWAP3 SWAP2 POP POP JUMP JUMPDEST PUSH2 0x68F DUP2 PUSH2 0x223F JUMP JUMPDEST PUSH1 0x0 DUP1 PUSH1 0x40 MLOAD DUP1 PUSH2 0x180 ADD PUSH1 0x40 MSTORE DUP1 DUP6 PUSH1 0x0 PUSH1 0x2 DUP2 LT PUSH2 0x1E0F JUMPI PUSH2 0x1E0F PUSH2 0x35A3 JUMP JUMPDEST PUSH1 0x20 MUL ADD MLOAD DUP2 MSTORE PUSH1 0x20 ADD DUP6 PUSH1 0x1 PUSH1 0x2 DUP2 LT PUSH2 0x1E2C JUMPI PUSH2 0x1E2C PUSH2 0x35A3 JUMP JUMPDEST PUSH1 0x20 MUL ADD MLOAD DUP2 MSTORE PUSH1 0x20 ADD PUSH1 0x0 DUP1 MLOAD PUSH1 0x20 PUSH2 0x375C DUP4 CODECOPY DUP2 MLOAD SWAP2 MSTORE DUP2 MSTORE PUSH1 0x20 ADD PUSH1 0x0 DUP1 MLOAD PUSH1 0x20 PUSH2 0x373C DUP4 CODECOPY DUP2 MLOAD SWAP2 MSTORE DUP2 MSTORE PUSH1 0x20 ADD PUSH32 0x90689D0585FF075EC9E99AD690C3395BC4B313370B38EF355ACDADCD122975B DUP2 MSTORE PUSH1 0x20 ADD PUSH32 0x12C85EA5DB8C6DEB4AAB71808DCB408FE3D1E7690C43D37B4CE6CC0166FA7DAA DUP2 MSTORE PUSH1 0x20 ADD PUSH1 0x1 DUP2 MSTORE PUSH1 0x20 ADD PUSH32 0x30644E72E131A029B85045B68181585D97816A916871CA8D3C208C16D87CFD45 DUP2 MSTORE PUSH1 0x20 ADD DUP5 PUSH1 0x1 PUSH1 0x4 DUP2 LT PUSH2 0x1EEA JUMPI PUSH2 0x1EEA PUSH2 0x35A3 JUMP JUMPDEST PUSH1 0x20 MUL ADD MLOAD DUP2 MSTORE PUSH1 0x20 ADD DUP5 PUSH1 0x0 PUSH1 0x4 DUP2 LT PUSH2 0x1F07 JUMPI PUSH2 0x1F07 PUSH2 0x35A3 JUMP JUMPDEST PUSH1 0x20 MUL ADD MLOAD DUP2 MSTORE PUSH1 0x20 ADD DUP5 PUSH1 0x3 PUSH1 0x4 DUP2 LT PUSH2 0x1F24 JUMPI PUSH2 0x1F24 PUSH2 0x35A3 JUMP JUMPDEST PUSH1 0x20 MUL ADD MLOAD DUP2 MSTORE PUSH1 0x20 ADD DUP5 PUSH1 0x2 PUSH1 0x4 DUP2 LT PUSH2 0x1F41 JUMPI PUSH2 0x1F41 PUSH2 0x35A3 JUMP JUMPDEST PUSH1 0x20 MUL ADD MLOAD SWAP1 MSTORE SWAP1 POP PUSH2 0x1F52 PUSH2 0x2F46 JUMP JUMPDEST PUSH1 0x0 PUSH1 0x20 DUP3 PUSH2 0x180 DUP6 PUSH1 0x8 PUSH2 0x7D0 GAS SUB STATICCALL SWAP1 POP DUP1 DUP1 PUSH2 0x1F6D JUMPI INVALID JUMPDEST POP DUP1 PUSH2 0x1F95 JUMPI PUSH1 0x40 MLOAD PUSH3 0x461BCD PUSH1 0xE5 SHL DUP2 MSTORE PUSH1 0x20 PUSH1 0x4 DUP3 ADD MSTORE PUSH1 0x0 PUSH1 0x24 DUP3 ADD MSTORE PUSH1 0x44 ADD PUSH2 0x54D JUMP JUMPDEST POP MLOAD ISZERO ISZERO SWAP5 SWAP4 POP POP POP POP JUMP JUMPDEST DUP1 MLOAD PUSH1 0x20 DUP3 ADD MLOAD PUSH1 0x40 DUP4 ADD MLOAD PUSH1 0x60 DUP5 ADD MLOAD PUSH1 0x0 SWAP4 SWAP3 SWAP2 SWAP1 DUP5 DUP1 DUP1 DUP1 PUSH2 0x1FD1 PUSH8 0x44E992B44A6909F1 DUP10 DUP10 DUP10 DUP10 PUSH2 0x2387 JUMP JUMPDEST SWAP3 SWAP7 POP SWAP1 SWAP5 POP SWAP3 POP SWAP1 POP PUSH1 0x0 DUP1 DUP1 DUP1 PUSH2 0x1FF0 DUP13 DUP13 DUP13 DUP13 DUP13 DUP13 DUP13 DUP13 PUSH2 0x24C6 JUMP JUMPDEST SWAP3 SWAP7 POP SWAP1 SWAP5 POP SWAP3 POP SWAP1 POP PUSH2 0x2002 PUSH2 0x2F28 JUMP JUMPDEST PUSH2 0x200E DUP10 DUP10 DUP10 DUP10 PUSH2 0x25F9 JUMP JUMPDEST PUSH1 0x60 DUP6 ADD MSTORE PUSH1 0x40 DUP5 ADD MSTORE PUSH1 0x20 DUP4 ADD MSTORE DUP2 MSTORE PUSH2 0x2027 PUSH2 0x2F28 JUMP JUMPDEST PUSH2 0x204B DUP3 PUSH1 0x0 JUMPDEST PUSH1 0x20 SWAP1 DUP2 MUL SWAP2 SWAP1 SWAP2 ADD MLOAD SWAP1 DUP5 ADD MLOAD PUSH1 0x40 DUP6 ADD MLOAD PUSH1 0x60 DUP7 ADD MLOAD PUSH2 0x25F9 JUMP JUMPDEST PUSH1 0x60 DUP6 ADD MSTORE PUSH1 0x40 DUP1 DUP6 ADD SWAP2 SWAP1 SWAP2 MSTORE PUSH1 0x20 DUP1 DUP6 ADD SWAP3 SWAP1 SWAP3 MSTORE SWAP2 DUP4 MSTORE DUP4 MLOAD SWAP1 DUP5 ADD MLOAD SWAP2 DUP5 ADD MLOAD PUSH2 0x208A SWAP3 DUP10 SWAP3 DUP10 SWAP3 DUP10 SWAP3 DUP10 SWAP3 SWAP2 DUP10 PUSH1 0x3 JUMPDEST PUSH1 0x20 MUL ADD MLOAD PUSH2 0x24C6 JUMP JUMPDEST DUP5 MLOAD PUSH1 0x20 DUP7 ADD MLOAD PUSH1 0x40 DUP8 ADD MLOAD SWAP6 SWAP12 POP SWAP4 SWAP10 POP SWAP2 SWAP8 POP SWAP6 POP PUSH2 0x20B6 SWAP3 DUP10 SWAP3 DUP10 SWAP3 DUP10 SWAP3 DUP10 SWAP3 SWAP1 DUP9 PUSH1 0x3 PUSH2 0x2080 JUMP JUMPDEST SWAP3 SWAP9 POP SWAP1 SWAP7 POP SWAP5 POP SWAP3 POP PUSH2 0x20D0 DUP11 DUP11 DUP11 DUP11 DUP4 DUP4 DUP4 DUP4 PUSH2 0x24C6 JUMP JUMPDEST SWAP3 SWAP13 POP SWAP1 SWAP11 POP SWAP9 POP SWAP7 POP PUSH2 0x20E6 DUP11 DUP11 DUP11 DUP11 PUSH2 0x25F9 JUMP JUMPDEST PUSH1 0x60 DUP7 ADD MSTORE PUSH1 0x40 DUP6 ADD MSTORE PUSH1 0x20 DUP5 ADD MSTORE DUP3 MSTORE PUSH2 0x2102 DUP3 PUSH1 0x0 PUSH2 0x202E JUMP JUMPDEST PUSH1 0x60 DUP7 ADD MSTORE PUSH1 0x40 DUP6 ADD MSTORE PUSH1 0x20 DUP5 ADD MSTORE DUP3 MSTORE PUSH2 0x211E DUP3 PUSH1 0x0 PUSH2 0x202E JUMP JUMPDEST PUSH1 0x60 DUP7 ADD MSTORE PUSH1 0x40 DUP6 ADD MSTORE PUSH1 0x20 DUP5 ADD MSTORE DUP1 DUP4 MSTORE DUP7 EQ DUP1 ISZERO PUSH2 0x2141 JUMPI POP PUSH1 0x20 DUP3 ADD MLOAD DUP6 EQ JUMPDEST DUP1 ISZERO PUSH2 0x2150 JUMPI POP PUSH1 0x40 DUP3 ADD MLOAD DUP5 EQ JUMPDEST DUP1 ISZERO PUSH2 0x215F JUMPI POP PUSH1 0x60 DUP3 ADD MLOAD DUP4 EQ JUMPDEST SWAP15 POP POP POP POP POP POP POP POP POP POP POP POP POP POP POP SWAP2 SWAP1 POP JUMP JUMPDEST PUSH2 0x217C PUSH2 0x2F28 JUMP JUMPDEST DUP3 MLOAD PUSH1 0x1 PUSH1 0xFF SHL SWAP1 DUP2 AND SWAP1 DUP2 EQ DUP1 PUSH2 0x2199 JUMPI POP DUP3 MLOAD PUSH1 0x1 SWAP1 DUP2 AND EQ ISZERO JUMPDEST PUSH2 0x21B5 JUMPI PUSH1 0x40 MLOAD PUSH3 0x461BCD PUSH1 0xE5 SHL DUP2 MSTORE PUSH1 0x4 ADD PUSH2 0x54D SWAP1 PUSH2 0x36B2 JUMP JUMPDEST POP DUP3 MLOAD PUSH1 0x1 PUSH1 0x1 PUSH1 0xFF SHL SUB AND DUP2 MSTORE PUSH1 0x20 SWAP3 DUP4 ADD MLOAD DUP2 DUP5 ADD MSTORE DUP2 MLOAD PUSH1 0x40 DUP3 ADD MSTORE SWAP2 ADD MLOAD PUSH1 0x60 DUP3 ADD MSTORE SWAP1 JUMP JUMPDEST PUSH2 0x21E7 PUSH2 0x2F0A JUMP JUMPDEST PUSH1 0x1 PUSH1 0xFF SHL DUP4 DUP2 AND SWAP1 DUP2 EQ DUP1 PUSH2 0x2201 JUMPI POP DUP3 PUSH1 0x1 AND PUSH1 0x1 EQ ISZERO JUMPDEST PUSH2 0x221D JUMPI PUSH1 0x40 MLOAD PUSH3 0x461BCD PUSH1 0xE5 SHL DUP2 MSTORE PUSH1 0x4 ADD PUSH2 0x54D SWAP1 PUSH2 0x36B2 JUMP JUMPDEST POP POP PUSH1 0x40 DUP1 MLOAD DUP1 DUP3 ADD SWAP1 SWAP2 MSTORE PUSH1 0x1 PUSH1 0x1 PUSH1 0xFF SHL SUB SWAP3 SWAP1 SWAP3 AND DUP3 MSTORE PUSH1 0x20 DUP3 ADD MSTORE SWAP1 JUMP JUMPDEST PUSH1 0x0 DUP1 DUP3 PUSH1 0x0 DUP1 MLOAD PUSH1 0x20 PUSH2 0x377C DUP4 CODECOPY DUP2 MLOAD SWAP2 MSTORE DUP2 DUP3 MULMOD PUSH1 0x0 DUP1 MLOAD PUSH1 0x20 PUSH2 0x377C DUP4 CODECOPY DUP2 MLOAD SWAP2 MSTORE DUP3 DUP3 MULMOD SWAP1 POP PUSH1 0x0 DUP1 MLOAD PUSH1 0x20 PUSH2 0x377C DUP4 CODECOPY DUP2 MLOAD SWAP2 MSTORE PUSH1 0x3 DUP3 ADDMOD SWAP1 POP PUSH1 0x40 MLOAD SWAP2 POP PUSH1 0x20 DUP3 MSTORE PUSH1 0x20 DUP1 DUP4 ADD MSTORE PUSH1 0x20 PUSH1 0x40 DUP4 ADD MSTORE DUP1 PUSH1 0x60 DUP4 ADD MSTORE POP PUSH1 0x0 DUP1 MLOAD PUSH1 0x20 PUSH2 0x379C DUP4 CODECOPY DUP2 MLOAD SWAP2 MSTORE PUSH1 0x80 DUP3 ADD MSTORE PUSH1 0x0 DUP1 MLOAD PUSH1 0x20 PUSH2 0x377C DUP4 CODECOPY DUP2 MLOAD SWAP2 MSTORE PUSH1 0xA0 DUP3 ADD MSTORE PUSH1 0x20 DUP2 PUSH1 0xC0 DUP4 PUSH1 0x5 PUSH2 0x7D0 GAS SUB STATICCALL POP MLOAD PUSH1 0x1 EQ SWAP4 SWAP3 POP POP POP JUMP JUMPDEST PUSH2 0x22E5 PUSH2 0x2F0A JUMP JUMPDEST PUSH1 0x0 PUSH2 0x22FF PUSH1 0x0 DUP1 MLOAD PUSH1 0x20 PUSH2 0x377C DUP4 CODECOPY DUP2 MLOAD SWAP2 MSTORE DUP5 PUSH2 0x36FD JUMP JUMPDEST SWAP1 POP PUSH1 0x0 DUP1 JUMPDEST PUSH1 0x0 DUP1 MLOAD PUSH1 0x20 PUSH2 0x377C DUP4 CODECOPY DUP2 MLOAD SWAP2 MSTORE DUP4 DUP5 MULMOD SWAP2 POP PUSH1 0x0 DUP1 MLOAD PUSH1 0x20 PUSH2 0x377C DUP4 CODECOPY DUP2 MLOAD SWAP2 MSTORE DUP4 DUP4 MULMOD SWAP2 POP PUSH1 0x0 DUP1 MLOAD PUSH1 0x20 PUSH2 0x377C DUP4 CODECOPY DUP2 MLOAD SWAP2 MSTORE PUSH1 0x3 DUP4 ADDMOD SWAP2 POP PUSH2 0x234B DUP3 PUSH2 0x26DE JUMP JUMPDEST SWAP1 SWAP3 POP SWAP1 POP DUP1 ISZERO PUSH2 0x2365 JUMPI DUP3 DUP5 MSTORE PUSH1 0x20 DUP5 ADD DUP3 SWAP1 MSTORE PUSH2 0x237F JUMP JUMPDEST PUSH1 0x0 DUP1 MLOAD PUSH1 0x20 PUSH2 0x377C DUP4 CODECOPY DUP2 MLOAD SWAP2 MSTORE PUSH1 0x1 DUP5 ADDMOD SWAP3 POP PUSH2 0x2305 JUMP JUMPDEST POP POP POP SWAP2 SWAP1 POP JUMP JUMPDEST PUSH1 0x0 DUP1 DUP1 DUP1 PUSH1 0x1 DUP9 ISZERO DUP1 ISZERO PUSH2 0x239A JUMPI POP DUP8 ISZERO JUMPDEST DUP1 ISZERO PUSH2 0x23A4 JUMPI POP DUP7 ISZERO JUMPDEST DUP1 ISZERO PUSH2 0x23AE JUMPI POP DUP6 ISZERO JUMPDEST ISZERO PUSH2 0x23C2 JUMPI POP PUSH1 0x1 SWAP8 POP DUP8 SWAP6 POP PUSH1 0x0 PUSH2 0x23DA JUMP JUMPDEST PUSH2 0x23CE DUP10 DUP10 DUP10 DUP10 PUSH2 0x27B4 JUMP JUMPDEST PUSH2 0x23DA JUMPI PUSH2 0x23DA PUSH2 0x3711 JUMP JUMPDEST PUSH1 0x0 PUSH2 0x23EC DUP12 DUP12 DUP12 DUP12 DUP12 DUP8 PUSH1 0x0 PUSH2 0x2869 JUMP JUMPDEST SWAP1 POP PUSH2 0x241C DUP2 PUSH1 0x0 JUMPDEST PUSH1 0x20 SWAP1 DUP2 MUL SWAP2 SWAP1 SWAP2 ADD MLOAD SWAP1 DUP4 ADD MLOAD PUSH1 0x40 DUP5 ADD MLOAD PUSH1 0x60 DUP6 ADD MLOAD PUSH1 0x80 DUP7 ADD MLOAD PUSH1 0xA0 DUP8 ADD MLOAD PUSH2 0x28E1 JUMP JUMPDEST SWAP3 SWAP15 SWAP2 SWAP14 POP SWAP12 POP SWAP1 SWAP10 POP SWAP8 POP POP POP POP POP POP POP POP JUMP JUMPDEST PUSH2 0x2439 PUSH2 0x2F0A JUMP JUMPDEST PUSH2 0x2441 PUSH2 0x2F64 JUMP JUMPDEST DUP4 MLOAD DUP2 MSTORE PUSH1 0x20 DUP1 DUP6 ADD MLOAD SWAP1 DUP3 ADD MSTORE PUSH1 0x40 DUP2 ADD DUP4 SWAP1 MSTORE PUSH1 0x0 PUSH1 0x60 DUP4 PUSH1 0x80 DUP5 PUSH1 0x7 PUSH2 0x7D0 GAS SUB STATICCALL SWAP1 POP DUP1 PUSH2 0x2472 JUMPI PUSH1 0x0 DUP1 REVERT JUMPDEST POP POP SWAP3 SWAP2 POP POP JUMP JUMPDEST PUSH2 0x2482 PUSH2 0x2F0A JUMP JUMPDEST PUSH2 0x248A PUSH2 0x2F28 JUMP JUMPDEST DUP4 MLOAD DUP2 MSTORE PUSH1 0x20 DUP1 DUP6 ADD MLOAD DUP3 DUP3 ADD MSTORE DUP4 MLOAD PUSH1 0x40 DUP4 ADD MSTORE DUP4 ADD MLOAD PUSH1 0x60 DUP1 DUP4 ADD SWAP2 SWAP1 SWAP2 MSTORE PUSH1 0x0 SWAP1 DUP4 PUSH1 0xC0 DUP5 PUSH1 0x6 PUSH2 0x7D0 GAS SUB STATICCALL SWAP1 POP DUP1 PUSH2 0x2472 JUMPI PUSH1 0x0 DUP1 REVERT JUMPDEST PUSH1 0x0 DUP1 DUP1 DUP1 DUP12 ISZERO DUP1 ISZERO PUSH2 0x24D7 JUMPI POP DUP11 ISZERO JUMPDEST DUP1 ISZERO PUSH2 0x24E1 JUMPI POP DUP10 ISZERO JUMPDEST DUP1 ISZERO PUSH2 0x24EB JUMPI POP DUP9 ISZERO JUMPDEST ISZERO PUSH2 0x253C JUMPI DUP8 ISZERO DUP1 ISZERO PUSH2 0x24FC JUMPI POP DUP7 ISZERO JUMPDEST DUP1 ISZERO PUSH2 0x2506 JUMPI POP DUP6 ISZERO JUMPDEST DUP1 ISZERO PUSH2 0x2510 JUMPI POP DUP5 ISZERO JUMPDEST PUSH2 0x252C JUMPI PUSH2 0x2520 DUP9 DUP9 DUP9 DUP9 PUSH2 0x27B4 JUMP JUMPDEST PUSH2 0x252C JUMPI PUSH2 0x252C PUSH2 0x3711 JUMP JUMPDEST POP DUP7 SWAP3 POP DUP6 SWAP2 POP DUP5 SWAP1 POP DUP4 PUSH2 0x25EA JUMP JUMPDEST DUP8 ISZERO DUP1 ISZERO PUSH2 0x2548 JUMPI POP DUP7 ISZERO JUMPDEST DUP1 ISZERO PUSH2 0x2552 JUMPI POP DUP6 ISZERO JUMPDEST DUP1 ISZERO PUSH2 0x255C JUMPI POP DUP5 ISZERO JUMPDEST ISZERO PUSH2 0x2589 JUMPI PUSH2 0x256D DUP13 DUP13 DUP13 DUP13 PUSH2 0x27B4 JUMP JUMPDEST PUSH2 0x2579 JUMPI PUSH2 0x2579 PUSH2 0x3711 JUMP JUMPDEST POP DUP11 SWAP3 POP DUP10 SWAP2 POP DUP9 SWAP1 POP DUP8 PUSH2 0x25EA JUMP JUMPDEST PUSH2 0x2595 DUP13 DUP13 DUP13 DUP13 PUSH2 0x27B4 JUMP JUMPDEST PUSH2 0x25A1 JUMPI PUSH2 0x25A1 PUSH2 0x3711 JUMP JUMPDEST PUSH2 0x25AD DUP9 DUP9 DUP9 DUP9 PUSH2 0x27B4 JUMP JUMPDEST PUSH2 0x25B9 JUMPI PUSH2 0x25B9 PUSH2 0x3711 JUMP JUMPDEST PUSH1 0x0 PUSH2 0x25D3 DUP14 DUP14 DUP14 DUP14 PUSH1 0x1 PUSH1 0x0 DUP16 DUP16 DUP16 DUP16 PUSH1 0x1 PUSH1 0x0 PUSH2 0x292B JUMP JUMPDEST SWAP1 POP PUSH2 0x25E0 DUP2 PUSH1 0x0 PUSH2 0x23F5 JUMP JUMPDEST SWAP5 POP SWAP5 POP SWAP5 POP SWAP5 POP POP JUMPDEST SWAP9 POP SWAP9 POP SWAP9 POP SWAP9 SWAP5 POP POP POP POP POP JUMP JUMPDEST PUSH1 0x0 DUP1 DUP1 DUP1 DUP1 DUP1 PUSH2 0x2663 PUSH32 0x2FB347984F7911F74C0BEC3CF559B143B78CC310C2C3330C99E39557176F553D PUSH32 0x16C9E55061EBAE204BA4CC8BD75A079432AE2A1D0B7C9DCE1665D51C640FCBA2 DUP13 PUSH2 0x265E DUP14 PUSH1 0x0 DUP1 MLOAD PUSH1 0x20 PUSH2 0x377C DUP4 CODECOPY DUP2 MLOAD SWAP2 MSTORE PUSH2 0x3590 JUMP JUMPDEST PUSH2 0x2BB4 JUMP JUMPDEST SWAP1 SWAP3 POP SWAP1 POP PUSH1 0x0 DUP1 PUSH2 0x26C9 PUSH32 0x63CF305489AF5DCDC5EC698B6E2F9B9DBAAE0EDA9C95998DC54014671A0135A PUSH32 0x7C03CBCAC41049A0704B5A7EC796F2B21807DC98FA25BD282D37F632623B0E3 DUP13 PUSH2 0x265E DUP14 PUSH1 0x0 DUP1 MLOAD PUSH1 0x20 PUSH2 0x377C DUP4 CODECOPY DUP2 MLOAD SWAP2 MSTORE PUSH2 0x3590 JUMP JUMPDEST SWAP5 SWAP14 SWAP4 SWAP13 POP SWAP11 POP SWAP3 SWAP9 POP SWAP1 SWAP7 POP POP POP POP POP POP POP JUMP JUMPDEST PUSH1 0x0 DUP1 PUSH1 0x0 PUSH1 0x40 MLOAD PUSH1 0x20 DUP2 MSTORE PUSH1 0x20 DUP1 DUP3 ADD MSTORE PUSH1 0x20 PUSH1 0x40 DUP3 ADD MSTORE DUP5 PUSH1 0x60 DUP3 ADD MSTORE PUSH32 0xC19139CB84C680A6E14116DA060561765E05AA45A1C72A34F082305B61F3F52 PUSH1 0x80 DUP3 ADD MSTORE PUSH1 0x0 DUP1 MLOAD PUSH1 0x20 PUSH2 0x377C DUP4 CODECOPY DUP2 MLOAD SWAP2 MSTORE PUSH1 0xA0 DUP3 ADD MSTORE PUSH1 0x20 DUP2 PUSH1 0xC0 DUP4 PUSH1 0x5 PUSH2 0x7D0 GAS SUB STATICCALL SWAP1 MLOAD SWAP4 POP SWAP1 POP PUSH1 0x0 DUP1 MLOAD PUSH1 0x20 PUSH2 0x377C DUP4 CODECOPY DUP2 MLOAD SWAP2 MSTORE DUP4 DUP1 MULMOD DUP5 EQ SWAP2 POP DUP1 PUSH2 0x27AE JUMPI PUSH1 0x40 MLOAD PUSH3 0x461BCD PUSH1 0xE5 SHL DUP2 MSTORE PUSH1 0x20 PUSH1 0x4 DUP3 ADD MSTORE PUSH1 0x1C PUSH1 0x24 DUP3 ADD MSTORE PUSH32 0x424C533A2073717274206D6F646578702063616C6C206661696C656400000000 PUSH1 0x44 DUP3 ADD MSTORE PUSH1 0x64 ADD PUSH2 0x54D JUMP JUMPDEST POP SWAP2 POP SWAP2 JUMP JUMPDEST PUSH1 0x0 DUP1 PUSH1 0x0 DUP1 PUSH1 0x0 PUSH2 0x27C8 DUP8 DUP8 DUP10 DUP10 PUSH2 0x2BB4 JUMP JUMPDEST SWAP1 SWAP5 POP SWAP3 POP PUSH2 0x27D9 DUP10 DUP10 DUP2 DUP2 PUSH2 0x2BB4 JUMP JUMPDEST SWAP1 SWAP3 POP SWAP1 POP PUSH2 0x27EA DUP3 DUP3 DUP12 DUP12 PUSH2 0x2BB4 JUMP JUMPDEST SWAP1 SWAP3 POP SWAP1 POP PUSH2 0x27FB DUP5 DUP5 DUP5 DUP5 PUSH2 0x2C25 JUMP JUMPDEST SWAP1 SWAP5 POP SWAP3 POP PUSH2 0x284B DUP5 DUP5 PUSH32 0x2B149D40CEB8AAAE81BE18991BE06AC3B5B4C5E559DBEFA33267E6DC24A138E5 PUSH31 0x9713B03AF0FED4CD2CAFADEED8FDF4A74FA084E52D1852E4A2BD0685C315D2 PUSH2 0x2C25 JUMP JUMPDEST SWAP1 SWAP5 POP SWAP3 POP DUP4 ISZERO DUP1 ISZERO PUSH2 0x285C JUMPI POP DUP3 ISZERO JUMPDEST SWAP10 SWAP9 POP POP POP POP POP POP POP POP POP JUMP JUMPDEST PUSH2 0x2871 PUSH2 0x2F82 JUMP JUMPDEST DUP8 ISZERO PUSH2 0x561 JUMPI PUSH1 0x1 DUP9 AND ISZERO PUSH2 0x28B2 JUMPI DUP1 MLOAD PUSH1 0x20 DUP3 ADD MLOAD PUSH1 0x40 DUP4 ADD MLOAD PUSH1 0x60 DUP5 ADD MLOAD PUSH1 0x80 DUP6 ADD MLOAD PUSH1 0xA0 DUP7 ADD MLOAD PUSH2 0x28AF SWAP6 SWAP5 SWAP4 SWAP3 SWAP2 SWAP1 DUP14 DUP14 DUP14 DUP14 DUP14 DUP14 PUSH2 0x292B JUMP JUMPDEST SWAP1 POP JUMPDEST PUSH2 0x28C0 DUP8 DUP8 DUP8 DUP8 DUP8 DUP8 PUSH2 0x2C67 JUMP JUMPDEST SWAP5 SWAP12 POP SWAP3 SWAP10 POP SWAP1 SWAP8 POP SWAP6 POP SWAP4 POP SWAP2 POP PUSH2 0x28DA PUSH1 0x2 DUP10 PUSH2 0x3727 JUMP JUMPDEST SWAP8 POP PUSH2 0x2871 JUMP JUMPDEST PUSH1 0x0 DUP1 PUSH1 0x0 DUP1 PUSH1 0x0 DUP1 PUSH2 0x28F4 DUP9 DUP9 PUSH2 0x2DD6 JUMP JUMPDEST SWAP1 SWAP3 POP SWAP1 POP PUSH2 0x2905 DUP13 DUP13 DUP5 DUP5 PUSH2 0x2BB4 JUMP JUMPDEST SWAP1 SWAP7 POP SWAP5 POP PUSH2 0x2916 DUP11 DUP11 DUP5 DUP5 PUSH2 0x2BB4 JUMP JUMPDEST SWAP7 SWAP14 SWAP6 SWAP13 POP SWAP11 POP SWAP5 SWAP9 POP SWAP3 SWAP7 POP POP POP POP POP POP POP JUMP JUMPDEST PUSH2 0x2933 PUSH2 0x2F82 JUMP JUMPDEST DUP9 ISZERO DUP1 ISZERO PUSH2 0x293F JUMPI POP DUP8 ISZERO JUMPDEST ISZERO PUSH2 0x2981 JUMPI DUP7 DUP7 DUP7 DUP7 DUP7 DUP7 DUP7 PUSH1 0x0 JUMPDEST PUSH1 0xA0 DUP10 ADD SWAP3 SWAP1 SWAP3 MSTORE PUSH1 0x80 DUP9 ADD SWAP3 SWAP1 SWAP3 MSTORE PUSH1 0x60 DUP8 ADD SWAP3 SWAP1 SWAP3 MSTORE PUSH1 0x40 DUP7 ADD SWAP3 SWAP1 SWAP3 MSTORE PUSH1 0x20 DUP6 DUP2 ADD SWAP4 SWAP1 SWAP4 MSTORE SWAP1 SWAP2 MUL ADD MSTORE PUSH2 0x2BA4 JUMP JUMPDEST DUP3 ISZERO DUP1 ISZERO PUSH2 0x298D JUMPI POP DUP2 ISZERO JUMPDEST ISZERO PUSH2 0x29A0 JUMPI DUP13 DUP13 DUP13 DUP13 DUP13 DUP13 DUP7 PUSH1 0x0 PUSH2 0x294E JUMP JUMPDEST PUSH2 0x29AC DUP6 DUP6 DUP12 DUP12 PUSH2 0x2BB4 JUMP JUMPDEST SWAP1 SWAP6 POP SWAP4 POP PUSH2 0x29BD DUP12 DUP12 DUP6 DUP6 PUSH2 0x2BB4 JUMP JUMPDEST PUSH1 0x60 DUP4 ADD MSTORE PUSH1 0x40 DUP3 ADD MSTORE PUSH2 0x29D3 DUP8 DUP8 DUP12 DUP12 PUSH2 0x2BB4 JUMP JUMPDEST SWAP1 SWAP8 POP SWAP6 POP PUSH2 0x29E4 DUP14 DUP14 DUP6 DUP6 PUSH2 0x2BB4 JUMP JUMPDEST PUSH1 0xA0 DUP4 ADD MSTORE PUSH1 0x80 DUP3 ADD DUP2 SWAP1 MSTORE DUP8 EQ DUP1 ISZERO PUSH2 0x2A01 JUMPI POP PUSH1 0xA0 DUP2 ADD MLOAD DUP7 EQ JUMPDEST ISZERO PUSH2 0x2A46 JUMPI PUSH1 0x40 DUP2 ADD MLOAD DUP6 EQ DUP1 ISZERO PUSH2 0x2A1C JUMPI POP PUSH1 0x60 DUP2 ADD MLOAD DUP5 EQ JUMPDEST ISZERO PUSH2 0x2A37 JUMPI PUSH2 0x2A2F DUP14 DUP14 DUP14 DUP14 DUP14 DUP14 PUSH2 0x2C67 JUMP JUMPDEST DUP7 PUSH1 0x0 PUSH2 0x294E JUMP JUMPDEST PUSH1 0x1 PUSH1 0x0 DUP2 DUP2 DUP1 DUP1 DUP7 DUP2 PUSH2 0x294E JUMP JUMPDEST PUSH2 0x2A52 DUP10 DUP10 DUP6 DUP6 PUSH2 0x2BB4 JUMP JUMPDEST SWAP1 SWAP4 POP SWAP2 POP PUSH2 0x2A72 DUP6 DUP6 DUP4 PUSH1 0x2 PUSH1 0x20 MUL ADD MLOAD DUP5 PUSH1 0x3 JUMPDEST PUSH1 0x20 MUL ADD MLOAD PUSH2 0x2C25 JUMP JUMPDEST SWAP1 SWAP14 POP SWAP12 POP PUSH2 0x2A8C DUP8 DUP8 DUP4 PUSH1 0x4 PUSH1 0x20 MUL ADD MLOAD DUP5 PUSH1 0x5 PUSH2 0x2A68 JUMP JUMPDEST SWAP1 SWAP12 POP SWAP10 POP PUSH2 0x2A9D DUP12 DUP12 DUP2 DUP2 PUSH2 0x2BB4 JUMP JUMPDEST SWAP1 SWAP10 POP SWAP8 POP PUSH2 0x2ABD DUP10 DUP10 DUP4 PUSH1 0x4 PUSH1 0x20 MUL ADD MLOAD DUP5 PUSH1 0x5 JUMPDEST PUSH1 0x20 MUL ADD MLOAD PUSH2 0x2BB4 JUMP JUMPDEST SWAP1 SWAP6 POP SWAP4 POP PUSH2 0x2ACE DUP10 DUP10 DUP14 DUP14 PUSH2 0x2BB4 JUMP JUMPDEST SWAP1 SWAP10 POP SWAP8 POP PUSH2 0x2ADF DUP10 DUP10 DUP6 DUP6 PUSH2 0x2BB4 JUMP JUMPDEST PUSH1 0xA0 DUP4 ADD MSTORE PUSH1 0x80 DUP3 ADD MSTORE PUSH2 0x2AF5 DUP14 DUP14 DUP2 DUP2 PUSH2 0x2BB4 JUMP JUMPDEST SWAP1 SWAP8 POP SWAP6 POP PUSH2 0x2B06 DUP8 DUP8 DUP6 DUP6 PUSH2 0x2BB4 JUMP JUMPDEST SWAP1 SWAP8 POP SWAP6 POP PUSH2 0x2B17 DUP8 DUP8 DUP12 DUP12 PUSH2 0x2C25 JUMP JUMPDEST SWAP1 SWAP8 POP SWAP6 POP PUSH2 0x2B28 DUP6 DUP6 PUSH1 0x2 PUSH2 0x2E62 JUMP JUMPDEST SWAP1 SWAP4 POP SWAP2 POP PUSH2 0x2B39 DUP8 DUP8 DUP6 DUP6 PUSH2 0x2C25 JUMP JUMPDEST SWAP1 SWAP8 POP SWAP6 POP PUSH2 0x2B4A DUP12 DUP12 DUP10 DUP10 PUSH2 0x2BB4 JUMP JUMPDEST PUSH1 0x20 DUP4 ADD MSTORE DUP2 MSTORE PUSH2 0x2B5D DUP6 DUP6 DUP10 DUP10 PUSH2 0x2C25 JUMP JUMPDEST SWAP1 SWAP12 POP SWAP10 POP PUSH2 0x2B6E DUP14 DUP14 DUP14 DUP14 PUSH2 0x2BB4 JUMP JUMPDEST SWAP1 SWAP12 POP SWAP10 POP PUSH2 0x2B88 DUP10 DUP10 DUP4 PUSH1 0x2 PUSH1 0x20 MUL ADD MLOAD DUP5 PUSH1 0x3 PUSH2 0x2AB3 JUMP JUMPDEST SWAP1 SWAP14 POP SWAP12 POP PUSH2 0x2B99 DUP12 DUP12 DUP16 DUP16 PUSH2 0x2C25 JUMP JUMPDEST PUSH1 0x60 DUP4 ADD MSTORE PUSH1 0x40 DUP3 ADD MSTORE JUMPDEST SWAP13 SWAP12 POP POP POP POP POP POP POP POP POP POP POP POP JUMP JUMPDEST PUSH1 0x0 DUP1 PUSH2 0x2BF2 PUSH1 0x0 DUP1 MLOAD PUSH1 0x20 PUSH2 0x377C DUP4 CODECOPY DUP2 MLOAD SWAP2 MSTORE DUP6 DUP9 MULMOD PUSH1 0x0 DUP1 MLOAD PUSH1 0x20 PUSH2 0x377C DUP4 CODECOPY DUP2 MLOAD SWAP2 MSTORE DUP6 DUP9 MULMOD PUSH1 0x0 DUP1 MLOAD PUSH1 0x20 PUSH2 0x377C DUP4 CODECOPY DUP2 MLOAD SWAP2 MSTORE PUSH2 0x2E95 JUMP JUMPDEST PUSH1 0x0 DUP1 MLOAD PUSH1 0x20 PUSH2 0x377C DUP4 CODECOPY DUP2 MLOAD SWAP2 MSTORE DUP1 DUP7 DUP9 MULMOD PUSH1 0x0 DUP1 MLOAD PUSH1 0x20 PUSH2 0x377C DUP4 CODECOPY DUP2 MLOAD SWAP2 MSTORE DUP7 DUP11 MULMOD ADDMOD SWAP2 POP SWAP2 POP SWAP5 POP SWAP5 SWAP3 POP POP POP JUMP JUMPDEST PUSH1 0x0 DUP1 PUSH2 0x2C41 DUP7 DUP6 PUSH1 0x0 DUP1 MLOAD PUSH1 0x20 PUSH2 0x377C DUP4 CODECOPY DUP2 MLOAD SWAP2 MSTORE PUSH2 0x2E95 JUMP JUMPDEST PUSH2 0x2C5A DUP7 DUP6 PUSH1 0x0 DUP1 MLOAD PUSH1 0x20 PUSH2 0x377C DUP4 CODECOPY DUP2 MLOAD SWAP2 MSTORE PUSH2 0x2E95 JUMP JUMPDEST SWAP2 POP SWAP2 POP SWAP5 POP SWAP5 SWAP3 POP POP POP JUMP JUMPDEST PUSH1 0x0 DUP1 PUSH1 0x0 DUP1 PUSH1 0x0 DUP1 PUSH2 0x2C7C DUP13 DUP13 PUSH1 0x3 PUSH2 0x2E62 JUMP JUMPDEST SWAP1 SWAP7 POP SWAP5 POP PUSH2 0x2C8D DUP7 DUP7 DUP15 DUP15 PUSH2 0x2BB4 JUMP JUMPDEST SWAP1 SWAP7 POP SWAP5 POP PUSH2 0x2C9E DUP11 DUP11 DUP11 DUP11 PUSH2 0x2BB4 JUMP JUMPDEST SWAP1 SWAP9 POP SWAP7 POP PUSH2 0x2CAF DUP13 DUP13 DUP13 DUP13 PUSH2 0x2BB4 JUMP JUMPDEST SWAP1 SWAP5 POP SWAP3 POP PUSH2 0x2CC0 DUP5 DUP5 DUP11 DUP11 PUSH2 0x2BB4 JUMP JUMPDEST SWAP1 SWAP5 POP SWAP3 POP PUSH2 0x2CD1 DUP7 DUP7 DUP2 DUP2 PUSH2 0x2BB4 JUMP JUMPDEST SWAP1 SWAP13 POP SWAP11 POP PUSH2 0x2CE2 DUP5 DUP5 PUSH1 0x8 PUSH2 0x2E62 JUMP JUMPDEST SWAP1 SWAP3 POP SWAP1 POP PUSH2 0x2CF3 DUP13 DUP13 DUP5 DUP5 PUSH2 0x2C25 JUMP JUMPDEST SWAP1 SWAP13 POP SWAP11 POP PUSH2 0x2D04 DUP9 DUP9 DUP2 DUP2 PUSH2 0x2BB4 JUMP JUMPDEST SWAP1 SWAP3 POP SWAP1 POP PUSH2 0x2D15 DUP5 DUP5 PUSH1 0x4 PUSH2 0x2E62 JUMP JUMPDEST SWAP1 SWAP5 POP SWAP3 POP PUSH2 0x2D26 DUP5 DUP5 DUP15 DUP15 PUSH2 0x2C25 JUMP JUMPDEST SWAP1 SWAP5 POP SWAP3 POP PUSH2 0x2D37 DUP5 DUP5 DUP9 DUP9 PUSH2 0x2BB4 JUMP JUMPDEST SWAP1 SWAP5 POP SWAP3 POP PUSH2 0x2D48 DUP11 DUP11 PUSH1 0x8 PUSH2 0x2E62 JUMP JUMPDEST SWAP1 SWAP7 POP SWAP5 POP PUSH2 0x2D59 DUP7 DUP7 DUP13 DUP13 PUSH2 0x2BB4 JUMP JUMPDEST SWAP1 SWAP7 POP SWAP5 POP PUSH2 0x2D6A DUP7 DUP7 DUP5 DUP5 PUSH2 0x2BB4 JUMP JUMPDEST SWAP1 SWAP7 POP SWAP5 POP PUSH2 0x2D7B DUP5 DUP5 DUP9 DUP9 PUSH2 0x2C25 JUMP JUMPDEST SWAP1 SWAP5 POP SWAP3 POP PUSH2 0x2D8C DUP13 DUP13 PUSH1 0x2 PUSH2 0x2E62 JUMP JUMPDEST SWAP1 SWAP7 POP SWAP5 POP PUSH2 0x2D9D DUP7 DUP7 DUP11 DUP11 PUSH2 0x2BB4 JUMP JUMPDEST SWAP1 SWAP7 POP SWAP5 POP PUSH2 0x2DAE DUP9 DUP9 DUP5 DUP5 PUSH2 0x2BB4 JUMP JUMPDEST SWAP1 SWAP3 POP SWAP1 POP PUSH2 0x2DBF DUP3 DUP3 PUSH1 0x8 PUSH2 0x2E62 JUMP JUMPDEST DUP1 SWAP3 POP DUP2 SWAP4 POP POP POP SWAP7 POP SWAP7 POP SWAP7 POP SWAP7 POP SWAP7 POP SWAP7 SWAP1 POP JUMP JUMPDEST PUSH1 0x0 DUP1 DUP1 PUSH2 0x2E17 PUSH1 0x0 DUP1 MLOAD PUSH1 0x20 PUSH2 0x377C DUP4 CODECOPY DUP2 MLOAD SWAP2 MSTORE DUP1 DUP8 DUP9 MULMOD PUSH1 0x0 DUP1 MLOAD PUSH1 0x20 PUSH2 0x377C DUP4 CODECOPY DUP2 MLOAD SWAP2 MSTORE DUP8 DUP9 MULMOD ADDMOD PUSH1 0x0 DUP1 MLOAD PUSH1 0x20 PUSH2 0x377C DUP4 CODECOPY DUP2 MLOAD SWAP2 MSTORE PUSH2 0x2EB9 JUMP JUMPDEST SWAP1 POP PUSH1 0x0 DUP1 MLOAD PUSH1 0x20 PUSH2 0x377C DUP4 CODECOPY DUP2 MLOAD SWAP2 MSTORE DUP2 DUP7 MULMOD PUSH1 0x0 DUP1 MLOAD PUSH1 0x20 PUSH2 0x377C DUP4 CODECOPY DUP2 MLOAD SWAP2 MSTORE DUP3 DUP7 MULMOD PUSH2 0x2E55 SWAP1 PUSH1 0x0 DUP1 MLOAD PUSH1 0x20 PUSH2 0x377C DUP4 CODECOPY DUP2 MLOAD SWAP2 MSTORE PUSH2 0x3590 JUMP JUMPDEST SWAP3 POP SWAP3 POP POP JUMPDEST SWAP3 POP SWAP3 SWAP1 POP JUMP JUMPDEST PUSH1 0x0 DUP1 PUSH1 0x0 DUP1 MLOAD PUSH1 0x20 PUSH2 0x377C DUP4 CODECOPY DUP2 MLOAD SWAP2 MSTORE DUP4 DUP7 MULMOD PUSH1 0x0 DUP1 MLOAD PUSH1 0x20 PUSH2 0x377C DUP4 CODECOPY DUP2 MLOAD SWAP2 MSTORE DUP5 DUP7 MULMOD SWAP2 POP SWAP2 POP SWAP4 POP SWAP4 SWAP2 POP POP JUMP JUMPDEST PUSH1 0x0 DUP2 DUP1 PUSH2 0x2EA5 JUMPI PUSH2 0x2EA5 PUSH2 0x363D JUMP JUMPDEST PUSH2 0x2EAF DUP5 DUP5 PUSH2 0x3590 JUMP JUMPDEST DUP6 ADDMOD SWAP5 SWAP4 POP POP POP POP JUMP JUMPDEST PUSH1 0x0 DUP1 PUSH1 0x40 MLOAD PUSH1 0x20 DUP2 MSTORE PUSH1 0x20 DUP1 DUP3 ADD MSTORE PUSH1 0x20 PUSH1 0x40 DUP3 ADD MSTORE DUP5 PUSH1 0x60 DUP3 ADD MSTORE PUSH1 0x2 DUP5 SUB PUSH1 0x80 DUP3 ADD MSTORE DUP4 PUSH1 0xA0 DUP3 ADD MSTORE PUSH1 0x20 DUP2 PUSH1 0xC0 DUP4 PUSH1 0x5 PUSH2 0x7D0 GAS SUB STATICCALL SWAP1 MLOAD SWAP3 POP SWAP1 POP DUP1 PUSH2 0x2F03 JUMPI PUSH1 0x0 DUP1 REVERT JUMPDEST POP SWAP3 SWAP2 POP POP JUMP JUMPDEST PUSH1 0x40 MLOAD DUP1 PUSH1 0x40 ADD PUSH1 0x40 MSTORE DUP1 PUSH1 0x2 SWAP1 PUSH1 0x20 DUP3 MUL DUP1 CALLDATASIZE DUP4 CALLDATACOPY POP SWAP2 SWAP3 SWAP2 POP POP JUMP JUMPDEST PUSH1 0x40 MLOAD DUP1 PUSH1 0x80 ADD PUSH1 0x40 MSTORE DUP1 PUSH1 0x4 SWAP1 PUSH1 0x20 DUP3 MUL DUP1 CALLDATASIZE DUP4 CALLDATACOPY POP SWAP2 SWAP3 SWAP2 POP POP JUMP JUMPDEST PUSH1 0x40 MLOAD DUP1 PUSH1 0x20 ADD PUSH1 0x40 MSTORE DUP1 PUSH1 0x1 SWAP1 PUSH1 0x20 DUP3 MUL DUP1 CALLDATASIZE DUP4 CALLDATACOPY POP SWAP2 SWAP3 SWAP2 POP POP JUMP JUMPDEST PUSH1 0x40 MLOAD DUP1 PUSH1 0x60 ADD PUSH1 0x40 MSTORE DUP1 PUSH1 0x3 SWAP1 PUSH1 0x20 DUP3 MUL DUP1 CALLDATASIZE DUP4 CALLDATACOPY POP SWAP2 SWAP3 SWAP2 POP POP JUMP JUMPDEST PUSH1 0x40 MLOAD DUP1 PUSH1 0xC0 ADD PUSH1 0x40 MSTORE DUP1 PUSH1 0x6 SWAP1 PUSH1 0x20 DUP3 MUL DUP1 CALLDATASIZE DUP4 CALLDATACOPY POP SWAP2 SWAP3 SWAP2 POP POP JUMP JUMPDEST DUP1 PUSH1 0x40 DUP2 ADD DUP4 LT ISZERO PUSH2 0x5A0 JUMPI PUSH1 0x0 DUP1 REVERT JUMPDEST PUSH1 0x0 DUP1 DUP4 PUSH1 0x1F DUP5 ADD SLT PUSH2 0x2FC3 JUMPI PUSH1 0x0 DUP1 REVERT JUMPDEST POP DUP2 CALLDATALOAD PUSH8 0xFFFFFFFFFFFFFFFF DUP2 GT ISZERO PUSH2 0x2FDB JUMPI PUSH1 0x0 DUP1 REVERT JUMPDEST PUSH1 0x20 DUP4 ADD SWAP2 POP DUP4 PUSH1 0x20 DUP3 PUSH1 0x6 SHL DUP6 ADD ADD GT ISZERO PUSH2 0x2E5B JUMPI PUSH1 0x0 DUP1 REVERT JUMPDEST PUSH1 0x0 DUP1 PUSH1 0x0 DUP1 PUSH1 0x0 PUSH1 0x80 DUP7 DUP9 SUB SLT ISZERO PUSH2 0x300E JUMPI PUSH1 0x0 DUP1 REVERT JUMPDEST PUSH2 0x3018 DUP8 DUP8 PUSH2 0x2FA0 JUMP JUMPDEST SWAP5 POP PUSH1 0x40 DUP7 ADD CALLDATALOAD PUSH8 0xFFFFFFFFFFFFFFFF DUP1 DUP3 GT ISZERO PUSH2 0x3035 JUMPI PUSH1 0x0 DUP1 REVERT JUMPDEST DUP2 DUP9 ADD SWAP2 POP DUP9 PUSH1 0x1F DUP4 ADD SLT PUSH2 0x3049 JUMPI PUSH1 0x0 DUP1 REVERT JUMPDEST DUP2 CALLDATALOAD DUP2 DUP2 GT ISZERO PUSH2 0x3058 JUMPI PUSH1 0x0 DUP1 REVERT JUMPDEST DUP10 PUSH1 0x20 DUP3 PUSH1 0x7 SHL DUP6 ADD ADD GT ISZERO PUSH2 0x306D JUMPI PUSH1 0x0 DUP1 REVERT JUMPDEST PUSH1 0x20 DUP4 ADD SWAP7 POP DUP1 SWAP6 POP POP PUSH1 0x60 DUP9 ADD CALLDATALOAD SWAP2 POP DUP1 DUP3 GT ISZERO PUSH2 0x308B JUMPI PUSH1 0x0 DUP1 REVERT JUMPDEST POP PUSH2 0x3098 DUP9 DUP3 DUP10 ADD PUSH2 0x2FB1 JUMP JUMPDEST SWAP7 SWAP10 SWAP6 SWAP9 POP SWAP4 SWAP7 POP SWAP3 SWAP5 SWAP4 SWAP3 POP POP POP JUMP JUMPDEST DUP1 PUSH1 0x80 DUP2 ADD DUP4 LT ISZERO PUSH2 0x5A0 JUMPI PUSH1 0x0 DUP1 REVERT JUMPDEST PUSH1 0x0 PUSH1 0x80 DUP3 DUP5 SUB SLT ISZERO PUSH2 0x30CC JUMPI PUSH1 0x0 DUP1 REVERT JUMPDEST PUSH2 0x68F DUP4 DUP4 PUSH2 0x30A9 JUMP JUMPDEST PUSH1 0x0 DUP1 PUSH1 0x0 PUSH2 0x100 DUP5 DUP7 SUB SLT ISZERO PUSH2 0x30EC JUMPI PUSH1 0x0 DUP1 REVERT JUMPDEST PUSH2 0x30F6 DUP6 DUP6 PUSH2 0x2FA0 JUMP JUMPDEST SWAP3 POP PUSH2 0x3105 DUP6 PUSH1 0x40 DUP7 ADD PUSH2 0x30A9 JUMP JUMPDEST SWAP2 POP PUSH2 0x3114 DUP6 PUSH1 0xC0 DUP7 ADD PUSH2 0x2FA0 JUMP JUMPDEST SWAP1 POP SWAP3 POP SWAP3 POP SWAP3 JUMP JUMPDEST PUSH1 0x0 PUSH1 0x40 DUP3 DUP5 SUB SLT ISZERO PUSH2 0x312F JUMPI PUSH1 0x0 DUP1 REVERT JUMPDEST PUSH2 0x68F DUP4 DUP4 PUSH2 0x2FA0 JUMP JUMPDEST PUSH1 0x0 DUP1 PUSH1 0x20 DUP4 DUP6 SUB SLT ISZERO PUSH2 0x314C JUMPI PUSH1 0x0 DUP1 REVERT JUMPDEST DUP3 CALLDATALOAD PUSH8 0xFFFFFFFFFFFFFFFF DUP1 DUP3 GT ISZERO PUSH2 0x3164 JUMPI PUSH1 0x0 DUP1 REVERT JUMPDEST DUP2 DUP6 ADD SWAP2 POP DUP6 PUSH1 0x1F DUP4 ADD SLT PUSH2 0x3178 JUMPI PUSH1 0x0 DUP1 REVERT JUMPDEST DUP2 CALLDATALOAD DUP2 DUP2 GT ISZERO PUSH2 0x3187 JUMPI PUSH1 0x0 DUP1 REVERT JUMPDEST DUP7 PUSH1 0x20 DUP3 DUP6 ADD ADD GT ISZERO PUSH2 0x3199 JUMPI PUSH1 0x0 DUP1 REVERT JUMPDEST PUSH1 0x20 SWAP3 SWAP1 SWAP3 ADD SWAP7 SWAP2 SWAP6 POP SWAP1 SWAP4 POP POP POP POP JUMP JUMPDEST PUSH1 0x40 DUP2 ADD DUP2 DUP4 PUSH1 0x0 JUMPDEST PUSH1 0x2 DUP2 LT ISZERO PUSH2 0x31D3 JUMPI DUP2 MLOAD DUP4 MSTORE PUSH1 0x20 SWAP3 DUP4 ADD SWAP3 SWAP1 SWAP2 ADD SWAP1 PUSH1 0x1 ADD PUSH2 0x31B4 JUMP JUMPDEST POP POP POP SWAP3 SWAP2 POP POP JUMP JUMPDEST PUSH1 0x0 PUSH1 0x20 DUP3 DUP5 SUB SLT ISZERO PUSH2 0x31EE JUMPI PUSH1 0x0 DUP1 REVERT JUMPDEST POP CALLDATALOAD SWAP2 SWAP1 POP JUMP JUMPDEST PUSH4 0x4E487B71 PUSH1 0xE0 SHL PUSH1 0x0 MSTORE PUSH1 0x41 PUSH1 0x4 MSTORE PUSH1 0x24 PUSH1 0x0 REVERT JUMPDEST PUSH1 0x40 MLOAD PUSH1 0x1F DUP3 ADD PUSH1 0x1F NOT AND DUP2 ADD PUSH8 0xFFFFFFFFFFFFFFFF DUP2 GT DUP3 DUP3 LT OR ISZERO PUSH2 0x3234 JUMPI PUSH2 0x3234 PUSH2 0x31F5 JUMP JUMPDEST PUSH1 0x40 MSTORE SWAP2 SWAP1 POP JUMP JUMPDEST PUSH1 0x0 DUP3 PUSH1 0x1F DUP4 ADD SLT PUSH2 0x324D JUMPI PUSH1 0x0 DUP1 REVERT JUMPDEST PUSH1 0x40 MLOAD PUSH1 0x40 DUP2 ADD DUP2 DUP2 LT PUSH8 0xFFFFFFFFFFFFFFFF DUP3 GT OR ISZERO PUSH2 0x3270 JUMPI PUSH2 0x3270 PUSH2 0x31F5 JUMP JUMPDEST DUP1 PUSH1 0x40 MSTORE POP DUP1 PUSH1 0x40 DUP5 ADD DUP6 DUP2 GT ISZERO PUSH2 0x3287 JUMPI PUSH1 0x0 DUP1 REVERT JUMPDEST DUP5 JUMPDEST DUP2 DUP2 LT ISZERO PUSH2 0x32A1 JUMPI DUP1 CALLDATALOAD DUP4 MSTORE PUSH1 0x20 SWAP3 DUP4 ADD SWAP3 ADD PUSH2 0x3289 JUMP JUMPDEST POP SWAP2 SWAP6 SWAP5 POP POP POP POP POP JUMP JUMPDEST PUSH1 0x0 DUP3 PUSH1 0x1F DUP4 ADD SLT PUSH2 0x32BD JUMPI PUSH1 0x0 DUP1 REVERT JUMPDEST PUSH1 0x40 MLOAD PUSH1 0x80 DUP2 ADD DUP2 DUP2 LT PUSH8 0xFFFFFFFFFFFFFFFF DUP3 GT OR ISZERO PUSH2 0x32E0 JUMPI PUSH2 0x32E0 PUSH2 0x31F5 JUMP JUMPDEST PUSH1 0x40 MSTORE DUP1 PUSH1 0x80 DUP5 ADD DUP6 DUP2 GT ISZERO PUSH2 0x3287 JUMPI PUSH1 0x0 DUP1 REVERT JUMPDEST PUSH1 0x0 DUP1 PUSH1 0x60 DUP4 DUP6 SUB SLT ISZERO PUSH2 0x3308 JUMPI PUSH1 0x0 DUP1 REVERT JUMPDEST PUSH2 0x3312 DUP5 DUP5 PUSH2 0x323C JUMP JUMPDEST SWAP2 POP PUSH1 0x40 DUP4 ADD CALLDATALOAD PUSH8 0xFFFFFFFFFFFFFFFF DUP1 DUP3 GT ISZERO PUSH2 0x332F JUMPI PUSH1 0x0 DUP1 REVERT JUMPDEST DUP2 DUP6 ADD SWAP2 POP DUP6 PUSH1 0x1F DUP4 ADD SLT PUSH2 0x3343 JUMPI PUSH1 0x0 DUP1 REVERT JUMPDEST DUP2 CALLDATALOAD PUSH1 0x20 DUP3 DUP3 GT ISZERO PUSH2 0x3357 JUMPI PUSH2 0x3357 PUSH2 0x31F5 JUMP JUMPDEST PUSH2 0x3365 DUP2 DUP4 PUSH1 0x5 SHL ADD PUSH2 0x320B JUMP JUMPDEST DUP3 DUP2 MSTORE DUP2 DUP2 ADD SWAP4 POP PUSH1 0x7 SWAP3 SWAP1 SWAP3 SHL DUP5 ADD DUP2 ADD SWAP2 DUP9 DUP4 GT ISZERO PUSH2 0x3385 JUMPI PUSH1 0x0 DUP1 REVERT JUMPDEST SWAP4 DUP2 ADD SWAP4 JUMPDEST DUP3 DUP6 LT ISZERO PUSH2 0x33AE JUMPI PUSH2 0x339C DUP10 DUP7 PUSH2 0x32AC JUMP JUMPDEST DUP5 MSTORE DUP2 DUP5 ADD SWAP4 POP PUSH1 0x80 DUP6 ADD SWAP5 POP PUSH2 0x338A JUMP JUMPDEST DUP1 SWAP6 POP POP POP POP POP POP SWAP3 POP SWAP3 SWAP1 POP JUMP JUMPDEST PUSH1 0x0 DUP1 PUSH1 0x0 DUP1 PUSH2 0x120 DUP6 DUP8 SUB SLT ISZERO PUSH2 0x33D4 JUMPI PUSH1 0x0 DUP1 REVERT JUMPDEST PUSH2 0x33DE DUP7 DUP7 PUSH2 0x323C JUMP JUMPDEST SWAP4 POP PUSH2 0x33ED DUP7 PUSH1 0x40 DUP8 ADD PUSH2 0x32AC JUMP JUMPDEST SWAP3 POP PUSH1 0xC0 DUP6 ADD CALLDATALOAD PUSH8 0xFFFFFFFFFFFFFFFF DUP1 DUP3 GT ISZERO PUSH2 0x340A JUMPI PUSH1 0x0 DUP1 REVERT JUMPDEST DUP2 DUP8 ADD SWAP2 POP DUP8 PUSH1 0x1F DUP4 ADD SLT PUSH2 0x341E JUMPI PUSH1 0x0 DUP1 REVERT JUMPDEST DUP2 CALLDATALOAD DUP2 DUP2 GT ISZERO PUSH2 0x3430 JUMPI PUSH2 0x3430 PUSH2 0x31F5 JUMP JUMPDEST PUSH2 0x3443 PUSH1 0x1F DUP3 ADD PUSH1 0x1F NOT AND PUSH1 0x20 ADD PUSH2 0x320B JUMP JUMPDEST SWAP2 POP DUP1 DUP3 MSTORE DUP9 PUSH1 0x20 DUP3 DUP6 ADD ADD GT ISZERO PUSH2 0x345A JUMPI PUSH1 0x0 DUP1 REVERT JUMPDEST DUP1 PUSH1 0x20 DUP5 ADD PUSH1 0x20 DUP5 ADD CALLDATACOPY PUSH1 0x0 SWAP1 DUP3 ADD PUSH1 0x20 ADD MSTORE SWAP3 POP PUSH2 0x347E SWAP1 POP DUP7 PUSH1 0xE0 DUP8 ADD PUSH2 0x323C JUMP JUMPDEST SWAP1 POP SWAP3 SWAP6 SWAP2 SWAP5 POP SWAP3 POP JUMP JUMPDEST PUSH1 0x0 DUP1 PUSH1 0xC0 DUP4 DUP6 SUB SLT ISZERO PUSH2 0x349C JUMPI PUSH1 0x0 DUP1 REVERT JUMPDEST PUSH2 0x34A6 DUP5 DUP5 PUSH2 0x323C JUMP JUMPDEST SWAP2 POP PUSH2 0x34B5 DUP5 PUSH1 0x40 DUP6 ADD PUSH2 0x32AC JUMP JUMPDEST SWAP1 POP SWAP3 POP SWAP3 SWAP1 POP JUMP JUMPDEST PUSH1 0x0 DUP1 PUSH1 0x80 DUP4 DUP6 SUB SLT ISZERO PUSH2 0x34D1 JUMPI PUSH1 0x0 DUP1 REVERT JUMPDEST PUSH2 0x34DB DUP5 DUP5 PUSH2 0x2FA0 JUMP JUMPDEST SWAP2 POP PUSH2 0x34B5 DUP5 PUSH1 0x40 DUP6 ADD PUSH2 0x2FA0 JUMP JUMPDEST PUSH1 0x80 DUP2 ADD DUP2 DUP4 PUSH1 0x0 JUMPDEST PUSH1 0x4 DUP2 LT ISZERO PUSH2 0x31D3 JUMPI DUP2 MLOAD DUP4 MSTORE PUSH1 0x20 SWAP3 DUP4 ADD SWAP3 SWAP1 SWAP2 ADD SWAP1 PUSH1 0x1 ADD PUSH2 0x34F3 JUMP JUMPDEST PUSH1 0x0 DUP1 PUSH1 0x40 DUP4 DUP6 SUB SLT ISZERO PUSH2 0x3525 JUMPI PUSH1 0x0 DUP1 REVERT JUMPDEST POP POP DUP1 CALLDATALOAD SWAP3 PUSH1 0x20 SWAP1 SWAP2 ADD CALLDATALOAD SWAP2 POP JUMP JUMPDEST PUSH1 0x20 DUP1 DUP3 MSTORE PUSH1 0x26 SWAP1 DUP3 ADD MSTORE PUSH32 0x424C53546573743A206578706563742073756363657366756C20766572696669 PUSH1 0x40 DUP3 ADD MSTORE PUSH6 0x31B0BA34B7B7 PUSH1 0xD1 SHL PUSH1 0x60 DUP3 ADD MSTORE PUSH1 0x80 ADD SWAP1 JUMP JUMPDEST PUSH4 0x4E487B71 PUSH1 0xE0 SHL PUSH1 0x0 MSTORE PUSH1 0x11 PUSH1 0x4 MSTORE PUSH1 0x24 PUSH1 0x0 REVERT JUMPDEST DUP2 DUP2 SUB DUP2 DUP2 GT ISZERO PUSH2 0x5A0 JUMPI PUSH2 0x5A0 PUSH2 0x357A JUMP JUMPDEST PUSH4 0x4E487B71 PUSH1 0xE0 SHL PUSH1 0x0 MSTORE PUSH1 0x32 PUSH1 0x4 MSTORE PUSH1 0x24 PUSH1 0x0 REVERT JUMPDEST PUSH1 0x20 DUP1 DUP3 MSTORE PUSH1 0x21 SWAP1 DUP3 ADD MSTORE PUSH32 0x424C533A206E756D626572206F66207075626C6963206B6579206973207A6572 PUSH1 0x40 DUP3 ADD MSTORE PUSH1 0x6F PUSH1 0xF8 SHL PUSH1 0x60 DUP3 ADD MSTORE PUSH1 0x80 ADD SWAP1 JUMP JUMPDEST DUP1 DUP3 ADD DUP1 DUP3 GT ISZERO PUSH2 0x5A0 JUMPI PUSH2 0x5A0 PUSH2 0x357A JUMP JUMPDEST DUP1 DUP3 MUL DUP2 ISZERO DUP3 DUP3 DIV DUP5 EQ OR PUSH2 0x5A0 JUMPI PUSH2 0x5A0 PUSH2 0x357A JUMP JUMPDEST PUSH1 0x0 PUSH1 0x1 DUP3 ADD PUSH2 0x3636 JUMPI PUSH2 0x3636 PUSH2 0x357A JUMP JUMPDEST POP PUSH1 0x1 ADD SWAP1 JUMP JUMPDEST PUSH4 0x4E487B71 PUSH1 0xE0 SHL PUSH1 0x0 MSTORE PUSH1 0x12 PUSH1 0x4 MSTORE PUSH1 0x24 PUSH1 0x0 REVERT JUMPDEST PUSH1 0x0 DUP11 MLOAD PUSH1 0x0 JUMPDEST DUP2 DUP2 LT ISZERO PUSH2 0x3674 JUMPI PUSH1 0x20 DUP2 DUP15 ADD DUP2 ADD MLOAD DUP6 DUP4 ADD MSTORE ADD PUSH2 0x365A JUMP JUMPDEST POP SWAP2 SWAP1 SWAP2 ADD SWAP9 DUP10 MSTORE POP PUSH1 0x20 DUP9 ADD SWAP7 SWAP1 SWAP7 MSTORE PUSH1 0x40 DUP8 ADD SWAP5 SWAP1 SWAP5 MSTORE PUSH1 0x60 DUP7 ADD SWAP3 SWAP1 SWAP3 MSTORE PUSH1 0x80 DUP6 ADD MSTORE PUSH1 0xA0 DUP5 ADD MSTORE PUSH1 0xC0 DUP4 ADD MSTORE PUSH1 0xE0 DUP3 ADD MSTORE PUSH2 0x100 ADD SWAP2 SWAP1 POP JUMP JUMPDEST PUSH1 0x20 DUP1 DUP3 MSTORE PUSH1 0x2B SWAP1 DUP3 ADD MSTORE PUSH32 0x424C533A20626164207920636F6F7264696E61746520666F7220756E636F6D70 PUSH1 0x40 DUP3 ADD MSTORE PUSH11 0x72657373696E67206B6579 PUSH1 0xA8 SHL PUSH1 0x60 DUP3 ADD MSTORE PUSH1 0x80 ADD SWAP1 JUMP JUMPDEST PUSH1 0x0 DUP3 PUSH2 0x370C JUMPI PUSH2 0x370C PUSH2 0x363D JUMP JUMPDEST POP MOD SWAP1 JUMP JUMPDEST PUSH4 0x4E487B71 PUSH1 0xE0 SHL PUSH1 0x0 MSTORE PUSH1 0x1 PUSH1 0x4 MSTORE PUSH1 0x24 PUSH1 0x0 REVERT JUMPDEST PUSH1 0x0 DUP3 PUSH2 0x3736 JUMPI PUSH2 0x3736 PUSH2 0x363D JUMP JUMPDEST POP DIV SWAP1 JUMP INVALID XOR STOP 0xDE 0xEF SLT 0x1F 0x1E PUSH23 0x426A00665E5C4479674322D4F75EDADD46DEBD5CD992F6 0xED NOT DUP15 SWAP4 SWAP4 SWAP3 0xD BASEFEE GASPRICE PUSH19 0x60BFB731FB5D25F1AA493335A9E71297E485B7 0xAE RETURN SLT 0xC2 ADDRESS PUSH5 0x4E72E131A0 0x29 0xB8 POP GASLIMIT 0xB6 DUP2 DUP2 PC 0x5D SWAP8 DUP2 PUSH11 0x916871CA8D3C208C16D87C REVERT SELFBALANCE XOR ORIGIN 0x27 CODECOPY PUSH17 0x98D014DC2822DB40C0AC2ECBC0B548B438 0xE5 CHAINID SWAP15 LT CHAINID SIGNEXTEND PUSH13 0x3E7EA3A2646970667358221220 0x26 PUSH11 0x9639A94EB161D53C3D17DF BASEFEE PUSH12 0x291B63C082CED6A6DF2C3D52 DUP16 LOG4 0x27 0xEA CODECOPY PUSH5 0x736F6C6343 STOP ADDMOD SGT STOP CALLER ",
  "sha1": "f7e0ed935a32e48d4e905080ead0b6d5be8a978c",
  "source": "// SPDX-License-Identifier: LGPL 3.0\npragma solidity ^0.8.15;\n\nimport {BLS} from \"./BLS.sol\";\n\ncontract TestBLS {\n    \n    function verifyMultiple(\n        uint256[2] calldata signature,\n        uint256[4][] calldata pubkeys,\n        uint256[2][] calldata messages\n    ) external view returns (bool) {\n        return BLS.verifyMultiple(signature, pubkeys, messages);\n    }\n\n    function verifyMultipleGasCost(\n        uint256[2] calldata signature,\n        uint256[4][] calldata pubkeys,\n        uint256[2][] calldata messages\n    ) external view returns (uint256) {\n        uint256 g = gasleft();\n        require(BLS.verifyMultiple(signature, pubkeys, messages), \"BLSTest: expect succesful verification\");\n        return g - gasleft();\n    }\n\n    function verifySingle(\n        uint256[2] calldata signature,\n        uint256[4] calldata pubkey,\n        uint256[2] calldata message\n    ) external view returns (bool) {\n        return BLS.verifySingle(signature, pubkey, message);\n    }\n\n    function verifySingleGasCost(\n        uint256[2] calldata signature,\n        uint256[4] calldata pubkey,\n        uint256[2] calldata message\n    ) external view returns (uint256) {\n        uint256 g = gasleft();\n        require(BLS.verifySingle(signature, pubkey, message), \"BLSTest: expect succesful verification\");\n        return g - gasleft();\n    }\n\n    function hashToPoint(bytes calldata data) external view returns (uint256[2] memory p) {\n        return BLS.hashToPoint(data);\n    }\n\n    function hashToPointGasCost(bytes calldata data) external view returns (uint256 p) {\n        uint256 g = gasleft();\n        BLS.hashToPoint(data);\n        return g - gasleft();\n    }\n\n    function isOnCurveG1Compressed(uint256 point) external view returns (bool) {\n        uint256 FIELD_MASK = 0x7fffffffffffffffffffffffffffffffffffffffffffffffffffffffffffffff;\n        return BLS.isOnCurveG1(point & FIELD_MASK);\n    }\n\n    function isOnCurveG1(uint256[2] calldata point) external pure returns (bool) {\n        return BLS.isOnCurveG1(point);\n    }\n\n    function isOnCurveG1CompressedGasCost(uint256 point) external returns (uint256) {\n        uint256 g = gasleft();\n        BLS.isOnCurveG1(point);\n        return g - gasleft();\n    }\n\n    function isOnCurveG1GasCost(uint256[2] calldata point) external returns (uint256) {\n        uint256 g = gasleft();\n        BLS.isOnCurveG1(point);\n        return g - gasleft();\n    }\n\n    function isOnCurveG2Compressed(uint256[2] calldata point) external view returns (bool) {\n        uint256 FIELD_MASK = 0x7fffffffffffffffffffffffffffffffffffffffffffffffffffffffffffffff;\n        uint256 x0 = point[0] & FIELD_MASK;\n        uint256 x1 = point[1];\n        return BLS.isOnCurveG2([x0, x1]);\n    }\n\n    function isOnCurveG2(uint256[4] calldata point) external pure returns (bool) {\n        return BLS.isOnCurveG2(point);\n    }\n\n    function isOnCurveG2CompressedGasCost(uint256[2] calldata point) external view returns (uint256) {\n        uint256 g = gasleft();\n        BLS.isOnCurveG2(point);\n        return g - gasleft();\n    }\n\n    function isOnCurveG2GasCost(uint256[4] calldata point) external view returns (uint256) {\n        uint256 g = gasleft();\n        BLS.isOnCurveG2(point);\n        return g - gasleft();\n    }\n\n    function isOnSubgroupG2Naive(uint256[4] calldata point) external view returns (bool) {\n        return BLS.isOnSubgroupG2Naive(point);\n    }\n\n    function isOnSubgroupG2NaiveGasCost(uint256[4] calldata point) external view returns (uint256) {\n        uint256 g = gasleft();\n        BLS.isOnSubgroupG2Naive(point);\n        return g - gasleft();\n    }\n\n    function isOnSubgroupG2DLZZ(uint256[4] calldata point) external view returns (bool) {\n        return BLS.isOnSubgroupG2DLZZ(point);\n    }\n\n    function isOnSubgroupG2DLZZGasCost(uint256[4] calldata point) external view returns (uint256) {\n        uint256 g = gasleft();\n        BLS.isOnSubgroupG2DLZZ(point);\n        return g - gasleft();\n    }\n\n    function isNonResidueFP(uint256 e) external view returns (bool) {\n        return BLS.isNonResidueFP(e);\n    }\n\n    function isNonResidueFPGasCost(uint256 e) external returns (uint256) {\n        uint256 g = gasleft();\n        BLS.isNonResidueFP(e);\n        return g - gasleft();\n    }\n\n    function isNonResidueFP2(uint256[2] calldata e) external view returns (bool) {\n        return BLS.isNonResidueFP2(e);\n    }\n\n    function isNonResidueFP2GasCost(uint256[2] calldata e) external returns (uint256) {\n        uint256 g = gasleft();\n        BLS.isNonResidueFP2(e);\n        return g - gasleft();\n    }\n\n    function pubkeyToUncompresed(uint256[2] calldata compressed, uint256[2] calldata y) external pure returns (uint256[4] memory uncompressed) {\n        return BLS.pubkeyToUncompresed(compressed, y);\n    }\n\n    function signatureToUncompresed(uint256 compressed, uint256 y) external pure returns (uint256[2] memory uncompressed) {\n        return BLS.signatureToUncompresed(compressed, y);\n    }\n\n    function isValidCompressedPublicKey(uint256[2] calldata compressed) external view returns (bool) {\n        return BLS.isValidCompressedPublicKey(compressed);\n    }\n\n    function isValidCompressedSignature(uint256 compressed) external view returns (bool) {\n        return BLS.isValidCompressedSignature(compressed);\n    }\n\n    function verifyHelpedAggregationPublicKeys(\n        uint256[2] memory pubKeyG1,\n        uint256[4] memory pubkey\n    ) external view returns (bool) {\n        return BLS.verifyHelpedAggregationPublicKeys(pubKeyG1,pubkey);\n    }\n\n    function verifyHelpedAggregationPublicKeysMultiple(\n        uint256[2] memory pubKeyG1,\n        uint256[4][] memory pubkeys\n    ) external view returns (bool) {\n        return BLS.verifyHelpedAggregationPublicKeysMultiple(pubKeyG1,pubkeys);\n    }\n\n    function verifyHelpedAggregationPublicKeysRec(\n        uint256[2] memory aggregated_p1, uint256[4] memory aggregated_g2, \n        bytes memory data,uint256[2] memory signature\n        ) external view returns (bool) {\n        return BLS.verifyHelpedAggregationPublicKeysRec(aggregated_p1, aggregated_g2, data,signature);\n    }\n\n}\n",
  "sourcePath": "contracts/TestBLS.sol",
  "type": "contract"
}